:020000040800F2
:1000000000500020693C0008053C00080D3C000839
:10001000153C00081D3C0008253C000800000000BD
:100020000000000000000000000000002D3C00085F
:10003000393C000800000000453C0008513C000825
:10004000B13C0008B13C0008B13C0008B13C0008DC
:10005000B13C0008B13C0008B13C0008B13C0008CC
:10006000B13C0008B13C0008B13C0008B13C0008BC
:10007000B13C0008B13C0008B13C0008B13C0008AC
:10008000B13C0008B13C0008B13C0008B13C00089C
:10009000B13C0008B13C0008B13C0008B13C00088C
:1000A000B13C0008B13C0008B13C0008B13C00087C
:1000B000B13C0008B13C0008B13C0008B13C00086C
:1000C000B13C0008B13C0008B13C0008B13C00085C
:1000D000B13C0008B13C0008B13C0008B13C00084C
:1000E000B13C0008B13C0008B13C00080000000031
:1000F0000000000000000000000000000000000000
:0C01000000000000000000005FF808F1A3
:10010C0010B5054C237833B9044B13B10448AFF345
:10011C0000800123237010BD0C00002000000000A3
:10012C000850000808B5034B1BB103490348AFF353
:10013C00008008BD000000001000002008500008DE
:10014C0080B483B000AF78600B467B8013463B8055
:10015C007B687A889A817B683A88DA8100BF0C3791
:10016C00BD4680BC704780B483B000AF78600B464E
:10017C007B807B687A885A827B685A8A7B681A8271
:10018C0000BF0C37BD4680BC704780B483B000AF55
:10019C0078607B68B3F9083018460C37BD4680BCD4
:1001AC00704780B483B000AF78607B68B3F90A30D5
:1001BC0018460C37BD4680BC704780B483B000AF86
:1001CC0078600B46FB707B685A68FB78DB00134445
:1001DC0018460C37BD4680BC704780B483B000AF66
:1001EC0078607B681B6818460C37BD4680BC70472E
:1001FC0080B483B000AF78600B467B8013463B80A5
:10020C001D4A7B681A607B687A889A807B683A887A
:10021C00DA807B68B3F904207B681A817B68B3F9B8
:10022C0006207B685A817B6800229A757B680022C5
:10023C009A817B68B3F90C207B68DA817B68012298
:10024C005A757B685A7D7B681A757B684FF6FF720E
:10025C005A827B685A8A7B681A827B680122DA751B
:10026C007B6800221A767B680022DA617B6818466C
:10027C000C37BD4680BC70479856000890B58BB0C3
:10028C0000AFF860084611461A4603467B810B46C0
:10029C003B811346FB80B7F93820B7F90830D31AE5
:1002AC0083EAE372A2EBE372B7F90610B7F90A30EE
:1002BC00CB1A002BB8BF5B429A42CCBF0123002360
:1002CC00DBB27B84B7F92230002B0BD07B893B84CB
:1002DC003B897B813B8C3B81FB88FB833B8FFB8089
:1002EC00FB8B3B87B7F90A20B7F906309A420BDD36
:1002FC007B89BB83FB887B81BB8BFB803B897B83AE
:10030C003B8F3B817B8B3B87FA887B89D31A9BB2D3
:10031C003B83B7F93820B7F90830D31A002BB8BF94
:10032C005B42FB82B7F91830DA0F13445B10FB8485
:10033C00B7F90820B7F938309A4202DA0123BB84A6
:10034C0037E04FF6FF73BB8433E0B7F92230002B54
:10035C000BD0FB681B6808331C68BB8FB7F90A20ED
:10036C00B7F90810F868A0470AE0FB681B68083367
:10037C001C68BB8FB7F90820B7F90A10F868A047BA
:10038C00FA8CFB8AD31A9BB2FB84B7F92630002B6C
:10039C0009DA3A89BB8C13449BB23B81FA8C3B8BB8
:1003AC0013449BB2FB84B7F90A309BB201339BB266
:1003BC007B81B7F90A20B7F906309A42C5DD00BF38
:1003CC0000BF2C37BD4690BD80B483B000AF7860C1
:1003DC0000BF0C37BD4680BC704790B585B000AFF0
:1003EC00F860084611461A4603467B810B463B8152
:1003FC001346FB80FB681B681C68FB88B7F9082058
:10040C00B7F90A10F868A04700BF1437BD4690BD75
:10041C0090B587B002AFF860084611461A460346FD
:10042C007B810B463B811346FB80FB681B682833A2
:10043C001C68B7F90600B7F90820B7F90A103B8C0D
:10044C0000930346F868A04700BF1437BD4690BD23
:10045C0090B587B002AFF860084611461A460346BD
:10046C007B810B463B811346FB80FB681B682C335E
:10047C001C68B7F90600B7F90820B7F90A103B8CCD
:10048C0000930346F868A04700BF1437BD4690BDE3
:10049C0090B587B002AFF860084611461A4603467D
:1004AC007B810B463B811346FB80FB681B6830331A
:1004BC001C68B7F90600B7F90820B7F90A10BB8C0D
:1004CC000193B7F9203000930346F868A04700BFAA
:1004DC001437BD4690BD80B483B000AF786000BFC8
:1004EC000C37BD4680BC7047B0B586B002AFF86023
:1004FC00084611461A4603467B810B463B81134640
:10050C00FB80FB681B6804331B68F8689847FB6822
:10051C001B6818331C683A89FB8813449BB2013B57
:10052C009BB21BB2B7F90A50B7F90800B7F90A1019
:10053C003A8C019200932B460246F868A047FB6860
:10054C001B681C331B68F868984700BF1037BD4602
:10055C00B0BD90B587B002AFF860084611461A4698
:10056C0003467B810B463B811346FB80FB681B6873
:10057C0004331B68F8689847FB681B6818331C68C1
:10058C007A89FB8813449BB2013B9BB218B2B7F932
:10059C000820B7F90A103B8C0193B7F90830009387
:1005AC000346F868A047FB681B681C331B68F86897
:1005BC00984700BF1437BD4690BD90B589B002AFC7
:1005CC00F860084611461A4603467B810B463B8170
:1005DC001346FB80FB681B6804331B68F86898475C
:1005EC007B89FB8214E0FB681B6810331C68B7F92D
:1005FC002800B7F90820B7F91610BB8D00930346F5
:10060C00F868A047B7F916309BB201339BB2FB8256
:10061C00B7F91620B7F90A10B7F906300B449A420D
:10062C00E1DBFB681B681C331B68F868984700BF4C
:10063C001C37BD4690BD90B585B002AF78600B46B7
:10064C007B807B681B6830331C687B68B3F90810AF
:10065C007B68B3F90A307A88019200930B4600222A
:10066C0000217868A04700BF0C37BD4690BD90B5FF
:10067C0089B002AFF860084611461A4603467B81E2
:10068C000B463B811346FB80B7F90A20B7F90630BD
:10069C009A4220D1B7F90820B7F928309A4205DDE3
:1006AC003B89BB823B8D3B81BB8A3B85FB681B68CE
:1006BC0028331C683A8D3B89D31A9BB201339BB209
:1006CC0018B2B7F90820B7F90A10BB8D009303468E
:1006DC00F868A04744E0B7F90820B7F928309A42E7
:1006EC0020D1B7F90A20B7F906309A4205DD7B898B
:1006FC00FB82FB887B81FB8AFB80FB681B682C33AD
:10070C001C68FA887B89D31A9BB201339BB218B24E
:10071C00B7F90820B7F90A10BB8D00930346F868A7
:10072C00A0471DE0FB681B6804331B68F8689847FA
:10073C00FB681B6818331C68B7F90600B7F908206A
:10074C00B7F90A10BB8D0193B7F928300093034613
:10075C00F868A047FB681B681C331B68F86898474F
:10076C0000BF1C37BD4690BD90B589B000AFF86096
:10077C00084611461A4603467B810B463B811346BD
:10078C00FB80FB88C3F101039BB2FB830123BB837A
:10079C00FB881A46D203D31A5B009BB27B830023DF
:1007AC003B83FB88FB82FB681B6804331B68F8687F
:1007BC009847FB681B6808331C683A89FB8813440C
:1007CC009BB21AB23B8EB7F90A10F868A047FB68C7
:1007DC001B6808331C683A89FB88D31A9BB21AB27F
:1007EC003B8EB7F90A10F868A047FB681B68083302
:1007FC001C687A89FB8813449BB219B23B8EB7F9FB
:10080C000820F868A047FB681B6808331C687A89C5
:10081C00FB88D31A9BB219B23B8EB7F90820F86843
:10082C00A047A9E0B7F91E30002B0EDBB7F9163044
:10083C009BB2013B9BB2FB827B8B02339BB27B83D3
:10084C00FA8B7B8B13449BB2FB83B7F918309BB2AA
:10085C0001339BB23B83BB8B02339BB2BB83FA8BC2
:10086C00BB8B13449BB2FB83FB681B6808331C686F
:10087C007A893B8B13449BB219B23A89FB8A134495
:10088C009BB21AB23B8EF868A047FB681B68083312
:10089C001C687A893B8BD31A9BB219B23A89FB8AB2
:1008AC0013449BB21AB23B8EF868A047FB681B68D6
:1008BC0008331C687A893B8B13449BB219B23A8972
:1008CC00FB8AD31A9BB21AB23B8EF868A047FB681E
:1008DC001B6808331C687A893B8BD31A9BB219B2FC
:1008EC003A89FB8AD31A9BB21AB23B8EF868A0479E
:1008FC00FB681B6808331C687A89FB8A13449BB21B
:10090C0019B23A893B8B13449BB21AB23B8EF868EE
:10091C00A047FB681B6808331C687A89FB8AD31ACA
:10092C009BB219B23A893B8B13449BB21AB23B8EE1
:10093C00F868A047FB681B6808331C687A89FB8A37
:10094C0013449BB219B23A893B8BD31A9BB21AB29D
:10095C003B8EF868A047FB681B6808331C687A89D3
:10096C00FB8AD31A9BB219B23A893B8BD31A9BB22E
:10097C001AB23B8EF868A047B7F91820B7F91630B1
:10098C009A42FFF64FAFFB681B681C331B68F86874
:10099C00984700BF2437BD4690BD90B589B000AFD5
:1009AC00F860084611461A4603467B810B463B818C
:1009BC001346FB80FB88C3F101039BB2FB8301232D
:1009CC00BB83FB881A46D203D31A5B009BB27B8392
:1009DC0000233B83FB88FB82C1E0B7F91E30002B60
:1009EC000EDBB7F916309BB2013B9BB2FB827B8BC3
:1009FC0002339BB27B83FA8B7B8B13449BB2FB83BE
:100A0C00B7F918309BB201339BB23B83BB8B0233DB
:100A1C009BB2BB83FA8BBB8B13449BB2FB8397F8C3
:100A2C00303003F00403002B21D0FB681B68083323
:100A3C001C687A893B8B13449BB219B23A89FB8AA6
:100A4C0013449BB21AB2BB8EF868A047FB681B68B4
:100A5C0008331C687A89FB8A13449BB219B23A8911
:100A6C003B8B13449BB21AB2BB8EF868A04797F825
:100A7C00303003F00203002B21D0FB681B680833D5
:100A8C001C687A893B8B13449BB219B23A89FB8A56
:100A9C00D31A9BB21AB2BB8EF868A047FB681B68CE
:100AAC0008331C687A89FB8A13449BB219B23A89C1
:100ABC003B8BD31A9BB21AB2BB8EF868A04797F83F
:100ACC00303003F00803002B21D0FB681B6808337F
:100ADC001C687A89FB8AD31A9BB219B23A893B8B70
:100AEC0013449BB21AB2BB8EF868A047FB681B6814
:100AFC0008331C687A893B8BD31A9BB219B23A899A
:100B0C00FB8A13449BB21AB2BB8EF868A04797F8C5
:100B1C00303003F00103002B21D0FB681B68083335
:100B2C001C687A89FB8AD31A9BB219B23A893B8B1F
:100B3C00D31A9BB21AB2BB8EF868A047FB681B682D
:100B4C0008331C687A893B8BD31A9BB219B23A8949
:100B5C00FB8AD31A9BB21AB2BB8EF868A047B7F9BE
:100B6C001820B7F916309A42FFF637AF00BF00BF16
:100B7C002437BD4690BD90B589B004AFF8600846E7
:100B8C0011461A4603467B810B463B811346FB807C
:100B9C00FB681B6804331B68F8689847FB681B6884
:100BAC0010331C683A89FB88D31A9BB21AB2FB88A3
:100BBC005B009BB201339BB218B2B7F90A103B8CA5
:100BCC0000930346F868A047B7F90600B7F9082068
:100BDC00B7F90A103B8C0293002301930323009373
:100BEC000346F86800F00AF8FB681B681C331B68A6
:100BFC00F868984700BF1437BD4690BD90B58BB0D0
:100C0C0002AFF860084611461A4603467B810B4634
:100C1C003B811346FB80FB88C3F101039BB2FB8332
:100C2C000123BB83FB881A46D203D31A5B009BB209
:100C3C007B8300233B83FB88FB823B8BBB82FB8A41
:100C4C007B82B7F934309BB201339BB2BB86B5E0E3
:100C5C00B7F91E30002B0EDBB7F916309BB2013BF7
:100C6C009BB2FB827B8B02339BB27B83FA8B7B8B9D
:100C7C0013449BB2FB83B7F918309BB201339BB280
:100C8C003B83BB8B02339BB2BB83FA8BBB8B134472
:100C9C009BB2FB83B7F91620B7F918309A4241DBA7
:100CAC0097F8303003F00103002B1AD0FB681B6857
:100CBC0010331C687A893B8B13449BB219B23A8966
:100CCC00FB8AD31A9BB218B2FB8A5B009AB2BB8E1A
:100CDC0013449BB21AB23B8F009313460246F8683A
:100CEC00A04797F8303003F00203002B1AD0FB68B2
:100CFC001B6810331C687A893B8BD31A9BB219B2D0
:100D0C003A89FB8AD31A9BB218B2FB8A5B009AB25F
:100D1C00BB8E13449BB21AB23B8F00931346024610
:100D2C00F868A047B7F91620B7F912309A4243D0A9
:100D3C0097F8303003F00103002B1AD0FB681B68C6
:100D4C0010331C687A897B8A13449BB219B23A8996
:100D5C00BB8AD31A9BB218B2BB8A5B009AB2BB8E09
:100D6C0013449BB21AB23B8F009313460246F868A9
:100D7C00A04797F8303003F00203002B1AD0FB6821
:100D8C001B6810331C687A897B8AD31A9BB219B200
:100D9C003A89BB8AD31A9BB218B2BB8A5B009AB24F
:100DAC00BB8E13449BB21AB23B8F00931346024680
:100DBC00F868A047FB8A7B823B8BBB82B7F9182073
:100DCC00B7F916309A42FFF643AF00BF00BF243785
:100DDC00BD4690BD90B587B002AFF860084611468D
:100DEC001A4603467B810B463B811346FB80FB680E
:100DFC001B6804331B68F8689847FB681B6814333E
:100E0C001C68B7F90600B7F90820B7F90A10BB8CB3
:100E1C0000930346F868A047FB681B6814331C68F2
:100E2C003A893B8C13449BB2013B9BB21AB2B7F983
:100E3C000600B7F90A10BB8C00930346F868A0476C
:100E4C00FB681B6810331C68B7F92000B7F9082041
:100E5C00B7F90A10BB8C00930346F868A047FB68EF
:100E6C001B6810331C687A89FB8813449BB2013BC6
:100E7C009BB219B2B7F92000B7F90820BB8C0093CC
:100E8C000346F868A047FB681B681C331B68F868AE
:100E9C00984700BF1437BD4690BD90B589B002AFDE
:100EAC00F860084611461A4603467B810B463B8187
:100EBC001346FB80B7F92820B7F906309342A8BF38
:100ECC0013461BB2DA0F13445B10FB82B7F92C20CC
:100EDC00B7F916309A4201DDFB8ABB85FB681B68AB
:100EEC0004331B68F8689847FB681B6814331C684C
:100EFC007A89BB8D13449BB219B2FA88BB8D5B0007
:100F0C009BB2D31A9BB218B2B7F908203B8E009350
:100F1C000346F868A047FB681B6814331C687A8981
:100F2C00BB8D13449BB219B23A893B8D13449BB2CF
:100F3C00013B9BB218B2FA88BB8D5B009BB2D31AF3
:100F4C009BB21AB23B8E009313460246F868A04738
:100F5C00FB681B6810331C683A89BB8D13449BB229
:100F6C0018B23A8DBB8D5B009BB2D31A9BB21AB2EE
:100F7C00B7F90A103B8E009313460246F868A04757
:100F8C00FB681B6810331C687A89FB8813449BB27E
:100F9C00013B9BB219B23A89BB8D13449BB218B278
:100FAC003A8DBB8D5B009BB2D31A9BB21AB23B8EAF
:100FBC00009313460246F868A0477A89BB8D134408
:100FCC009BB219B23A89BB8D13449BB21AB2B7F9D2
:100FDC002C003B8E0193012300930346F868FFF726
:100FEC00DCFC7A89FB8813449AB2BB8DD31A9BB272
:100FFC00013B9BB219B23A89BB8D13449BB21AB216
:10100C00B7F92C003B8E0193022300930346F8683A
:10101C00FFF7C3FC7A89FB8813449AB2BB8DD31AB1
:10102C009BB2013B9BB219B23A893B8D13449AB2E5
:10103C00BB8DD31A9BB2013B9BB21AB2B7F92C00F1
:10104C003B8E0193042300930346F868FFF7A5FC3D
:10105C007A89BB8D13449BB219B23A893B8D1344E8
:10106C009AB2BB8DD31A9BB2013B9BB21AB2B7F9A1
:10107C002C003B8E0193082300930346F868FFF77E
:10108C008CFCFB681B681C331B68F868984700BF16
:10109C001C37BD4690BD90B58BB004AFF8600846C8
:1010AC0011461A4603467B810B463B811346FB8057
:1010BC00B7F92820B7F906309342A8BF13461BB2E4
:1010CC00DA0F13445B10FB82B7F92C20B7F91630FA
:1010DC009A4201DDFB8ABB85FB681B6804331B68E5
:1010EC00F8689847FB681B680C331C687A89BB8DC1
:1010FC0013449BB219B2FA88BB8D5B009BB2D31A16
:10110C009BB218B2B7F908203B8E0193B7F928307F
:10111C0000930346F868A0477A89FB8813449AB277
:10112C00BB8DD31A9BB2013B9BB219B23A89BB8DD2
:10113C0013449BB218B23A8DBB8D5B009BB2D31A91
:10114C009BB2013B9BB21BB2B7F92C403A8E029278
:10115C0001930123009323460246F868FFF74EFDE6
:10116C007A89BB8D13449BB219B23A89BB8D134457
:10117C009BB218B23A8DBB8D5B009BB2D31A9BB25B
:10118C00013B9BB21BB2B7F92C403A8E02920193F1
:10119C000223009323460246F868FFF72FFDFB68F5
:1011AC001B681C331B68F868984700BF1C37BD468A
:1011BC0090BD90B587B002AFF860084611461A464C
:1011CC0003467B810B463B811346FB80FB681B6807
:1011DC0038331C68B7F90600B7F90820B7F90A10BC
:1011EC00BB8D0193B7F9203000930346F868A047F4
:1011FC00FB681B6838331C68B7F92400B7F920204A
:10120C00B7F90610BB8D0193B7F92830009303464C
:10121C00F868A047FB681B6838331C68B7F90A00EC
:10122C00B7F92820B7F92410BB8D0193B7F9083012
:10123C0000930346F868A04700BF1437BD4690BD25
:10124C0090B593B002AFF860084611461A460346B3
:10125C007B810B463B811346FB80B7F90820B7F91D
:10126C0050309A420DDD3B89FB85B7F850303B81FD
:10127C00FB8DA7F850307B89BB85FB887B81BB8DB0
:10128C00FB80B7F95020B7F958309A4211DDB7F806
:10129C0058307B85B7F85030A7F858307B8DA7F8BD
:1012AC005030B7F854303B85FB88A7F854303B8D51
:1012BC00FB80B7F90820B7F950309A420DDD3B8915
:1012CC00FB84B7F850303B81FB8CA7F850307B89FE
:1012DC00BB84FB887B81BB8CFB80FB681B68043365
:1012EC001B68F8689847B7F90820B7F958309A4244
:1012FC0043D17B89BB87BB8FFB87B7F90620B7F936
:10130C003E309A4202DAFB88FB8707E0B7F90620E9
:10131C00B7F93C309A4201DDFB88BB87B7F9542002
:10132C00B7F93E309A4203DAB7F85430FB8708E03D
:10133C00B7F95420B7F93C309A4202DDB7F8543073
:10134C00BB87FB681B6814331C68BA8FFB8FD31ADE
:10135C009BB201339BB218B2B7F90820B7F93E1013
:10136C00B7F85C3000930346F868A047FB681B682D
:10137C001C331B68F8689847EAE0FA887B89D31A13
:10138C009BB27B84B7F850203B89D31A9BB23B8429
:10139C00B7F854207B89D31A9BB2FB83B7F858203B
:1013AC003B89D31A9BB2BB83B7F85420FB88D31A62
:1013BC009BB27B83B7F85820B7F85030D31A9BB246
:1013CC003B8300237B6300233B63B7F95020B7F9C1
:1013DC0058309A4203D1B7F850303B8704E0B7F845
:1013EC005030013B9BB23B873B897B8744E0B7F98C
:1013FC0020307A6B92FBF3F39AB27B8913449BB245
:10140C00FB87B7F91C303A6B92FBF3F39AB27B89EA
:10141C0013449BB2BB87B7F922307A6B13447B63BE
:10142C00B7F91E303A6B13443B63B7F93E20B7F95A
:10143C003C309A4205DDFB8FBB82BB8FFB87BB8A9E
:10144C00BB87FB681B6814331C68BA8FFB8FD31ADD
:10145C009BB201339BB218B2B7F93A20B7F93E10E0
:10146C00B7F85C3000930346F868A047B7F93A30F8
:10147C009BB201339BB27B87B7F93A20B7F938306E
:10148C009A42B4DDB7F91A30B7F93A10B7F95020CF
:10149C008A1A02FB03F37B63B7F91E30B7F93A10D3
:1014AC00B7F908208A1A02FB03F33B6344E0B7F94F
:1014BC0018307A6B92FBF3F39AB2FB8813449BB20D
:1014CC00FB87B7F91C303A6B92FBF3F39AB27B892A
:1014DC0013449BB2BB87B7F91A307A6B13447B6306
:1014EC00B7F91E303A6B13443B63B7F93E20B7F99A
:1014FC003C309A4205DDFB8FFB82BB8FFB87FB8A5E
:10150C00BB87FB681B6814331C68BA8FFB8FD31A1C
:10151C009BB201339BB218B2B7F93A20B7F93E101F
:10152C00B7F85C3000930346F868A047B7F93A3037
:10153C009BB201339BB27B87B7F93A20B7F958308D
:10154C009A42B4DDFB681B681C331B68F86898472B
:10155C004437BD4690BD0000B0B58EB002AFF86008
:10156C00084611461A4603467B810B463B811346BF
:10157C00FB71FB68DB69002B40F05381FB68B3F90E
:10158C000830B7F90A209A4280F23482FB68B3F92A
:10159C000A30B7F908209A4280F22C82B7F90A1067
:1015AC0097F8482013465B0013445B000B44002B58
:1015BC0040F32082B7F9082097F84C30DB00134435
:1015CC00002B40F31782FB681B7E83F00103DBB218
:1015DC00002B05D0FB79AF2B02D9FB790133FB71C2
:1015EC00FB681B6804331B68F8689847002387F86E
:1015FC002F30C9E0FA7913469B001A4497F92F3023
:10160C001344AD4AD35C87F82E30002387F82D3075
:10161C00AEE097F82E3003F00103002B4BD097F877
:10162C004830012B1AD197F84C30012B16D1FB689E
:10163C001B6808331C6897F92F309AB27B891344C6
:10164C009BB219B297F92D309AB23B8913449BB2D5
:10165C001AB2B7F84030F868A0477DE0FB681B6809
:10166C000C331C6897F92F309BB297F8482092B234
:10167C0002FB03F39AB27B8913449BB219B297F91C
:10168C002D309BB297F84C2092B202FB03F39AB226
:10169C003B8913449BB218B297F848301DB297F8A7
:1016AC004C301BB2B7F84020019200932B460246F7
:1016BC00F868A04750E0B7F84420B7F840309A4299
:1016CC004AD097F84830012B1AD197F84C30012B9F
:1016DC0016D1FB681B6808331C6897F92F309AB237
:1016EC007B8913449BB219B297F92D309AB23B897E
:1016FC0013449BB21AB2B7F84430F868A0472BE0F9
:10170C00FB681B680C331C6897F92F309BB297F859
:10171C00482092B202FB03F39AB27B8913449BB22A
:10172C0019B297F92D309BB297F84C2092B202FB6C
:10173C0003F39AB23B8913449BB218B297F8483022
:10174C001DB297F84C301BB2B7F8442001920093AD
:10175C002B460246F868A04797F92D30DBB20133CF
:10176C00DBB287F82D3097F82E305B0887F82E30D7
:10177C0097F92D30072B7FF74CAF97F92F30DBB251
:10178C000133DBB287F82F3097F92F30042B7FF71A
:10179C0031AFB7F84420B7F840309A423AD097F8B6
:1017AC004830012B14D197F84C30012B10D1FB6829
:1017BC001B6810331C687B8905339BB219B2B7F9CF
:1017CC000820B7F8443000930823F868A04721E0BC
:1017DC00FB681B680C331C6897F848309BB21A46A0
:1017EC00920013449AB27B8913449BB219B297F8B6
:1017FC0048301DB297F84C309BB2DB009BB21BB249
:10180C00B7F90800B7F84420019200932B46024622
:10181C00F868A047FB681B681C331B68F86898477E
:10182C00E9E0FB68DB6908331B78FA79D31AFB71A2
:10183C00FB68DB69FA7911461846FEF7BEFCF861C5
:10184C00FB68DB691846FEF7C8FCB861FB691B88AE
:10185C007B85FB6902331B78FB75FB6903331B78B3
:10186C00BB75FB6905331B787B75FB6906331B78ED
:10187C003B75002387F82730002387F82630002398
:10188C00BB8400237B8497F84830012B03D897F84E
:10189C004C30012B05D997F91530BB8497F91430CE
:1018AC007B84FB681B6804331B68F868984700232B
:1018BC0087F8283091E000BF90510008002387F88A
:1018CC0029307FE097F826305A1C87F8262003F041
:1018DC000703002B0CBF01230023DBB2002B08D025
:1018EC007B8D5A1C7A851A46BB6913441B7887F882
:1018FC00273097F92730002B5ADA97F84830012B0C
:10190C0024D197F84C30012B20D1FB681B6808338D
:10191C001C6897F915309AB27B8913449AB297F8E0
:10192C0029309BB213449BB219B297F914309AB276
:10193C003B8913449AB297F828309BB213449BB25C
:10194C001AB2B7F84030F868A04731E0FB681B6862
:10195C000C331C68B7F9242097F8293013449BB238
:10196C0097F8482092B202FB03F39AB27B89134496
:10197C009BB219B2B7F9222097F8283013449BB2C6
:10198C0097F84C2092B202FB03F39AB23B891344B2
:10199C009BB218B297F848301DB297F84C301BB276
:1019AC00B7F84020019200932B460246F868A047F6
:1019BC0097F827305B0087F8273097F829300133E8
:1019CC0087F8293097F82920FB7D9A42FFF47AAFEB
:1019DC0097F82830013387F8283097F82820BB7DFA
:1019EC009A42FFF46BAFFB681B681C331B68F868EA
:1019FC00984700E000BF3037BD46B0BDF0B58BB0A6
:101A0C0004AF78600B46FB707B68DB69002B66D1FA
:101A1C00FB780A2B10D17B6800229A817B68B3F982
:101A2C000E309AB27B685B7DDB009BB213449BB299
:101A3C001AB27B68DA81F5E0FB780D2B00F0F280AE
:101A4C007B68DB7D002B20D07B68B3F90C3019460A
:101A5C007B681B7D1A4613465B0013445B000B44EA
:101A6C007A68B2F9082093420FDD7B6800229A81D4
:101A7C007B68B3F90E309AB27B685B7DDB009BB25E
:101A8C0013449BB21AB27B68DA817B68B3F90C40C1
:101A9C007B68B3F90E507B681B8A7A68528A796826
:101AAC00097D7868407DFE78039002910192009345
:101ABC0033462A4621467868FFF74EFD7B68B3F91A
:101ACC000C309AB27B681B7D194649000B445B00B5
:101ADC009BB213449BB21AB27B689A81A2E0FB784A
:101AEC000A2B16D17B6800229A817B68B3F90E30E1
:101AFC009AB27B685B7D19467B68DB690C331B787B
:101B0C0001FB03F39BB213449BB21AB27B68DA81DC
:101B1C0088E0FB780D2B00F085807B68DB6908334F
:101B2C001B78FB75FA78FB7D9A427BD37B68DB696B
:101B3C000A331B78FA789A4274D87B68D869FA7899
:101B4C00FB7DD31ADBB21946FEF737FB38613B69D4
:101B5C0002331B78FB733B6903331B78BB73FB7B32
:101B6C00002B4DD0BB7B002B4AD03B6905331B7837
:101B7C005BB2BB817B68DB7D002B28D07B68B3F923
:101B8C000C3019467B681B7D1846B7F90C20FB7B83
:101B9C00134400FB03F30B447A68B2F90820934218
:101BAC0015DD7B6800229A817B68B3F90E309AB2FE
:101BBC007B685B7D19467B68DB690C331B7801FB0A
:101BCC0003F39BB213449BB21AB27B68DA817B6835
:101BDC00B3F90C407B68B3F90E507B681B8A7A68AA
:101BEC00528A7968097D7868407DFE78039002916D
:101BFC000192009333462A4621467868FFF7ACFCE5
:101C0C007B68B3F90C309AB23B6904331B781946E4
:101C1C007B681B7D01FB03F39BB213449BB21AB28E
:101C2C007B689A81012318461C37BD46F0BD80B5F0
:101C3C0082B000AF78600B46FB70FA78FB781946DF
:101C4C00786800F004F800BF0837BD4680BD80B44A
:101C5C0083B000AF78600B46FB701346BB70FB780B
:101C6C00002B01D0FA7800E001227B681A75BB7852
:101C7C00002B01D0BA7800E001227B685A7500BFB6
:101C8C000C37BD4680BC704780B483B000AF786021
:101C9C000B46FB70FB7803F00303DAB27B689A7592
:101CAC007B689B7D032B21D801A252F823F000BF47
:101CBC00CD1C0008E31C0008CD1C0008E31C000828
:101CCC007B68B3F904207B681A817B68B3F9062022
:101CDC007B685A810AE07B68B3F906207B681A811D
:101CEC007B68B3F904207B685A8100BF00BF0C37B6
:101CFC00BD4680BC704700BF80B483B000AF786035
:101D0C000B46FB7000BF0C37BD4680BC7047000013
:101D1C0080B582B000AF78607B6893F920309BB2BD
:101D2C0001221946034802F0C4FA00BF0837BD4629
:101D3C0080BD00BF0008014080B582B000AF786064
:101D4C007B6893F920309BB200221946034802F0BD
:101D5C00B0FA00BF0837BD4680BD00BF0008014087
:101D6C0080B582B000AF78607B6893F921309BB26C
:101D7C0001221946034802F09CFA00BF0837BD4601
:101D8C0080BD00BF0008014080B582B000AF786014
:101D9C007B6893F921309BB200221946034802F06C
:101DAC0088FA00BF0837BD4680BD00BF000801405F
:101DBC0080B584B000AFF860084611461A46034659
:101DCC007B810B463B811346FB71FB68B7F90A100C
:101DDC00B7F908201846FEF70BFA0F4AFB681A6091
:101DEC00FB68FA7983F82020FB683A7E83F821207F
:101DFC00FB6800225A84FB6800229A84FB6800224C
:101E0C0083F82620FB68002283F82720FB681846FD
:101E1C001037BD4680BD00BFE456000880B582B0C7
:101E2C0000AF7860054B9B69B3F5007F02D17868F1
:101E3C00FFF782FF00BF0837BD4680BD740000204D
:101E4C0080B582B000AF7860054B9B69B3F5007F1D
:101E5C0002D17868FFF75CFF00BF0837BD4680BD34
:101E6C007400002090B587B002AFF86008461146A8
:101E7C001A4603467B810B463B811346FB80B7F920
:101E8C000A30002B21DBFB68B3F90830B7F90A20C4
:101E9C009A421ADAB7F90830002B16DBFB68B3F953
:101EAC000A30B7F908209A420FDAFB681B684433F2
:101EBC001C6879893A89012300930123F868A047AB
:101ECC00FB881946F86800F095FC00BF1437BD4636
:101EDC0090BD80B584B000AFF860B9607A60FB70DB
:101EEC007B68002B2ED03B7E83F00103DBB2002BF2
:101EFC001DD007E0BB689A1CBA601B881946F868AD
:101F0C0000F078FC7B685A1E7A60002B14BF01230A
:101F1C000023DBB2002BEDD115E0BB689A1CBA6034
:101F2C001B885BBA9BB21946F86800F063FC7B68AF
:101F3C005A1E7A60002B14BF01230023DBB2002B46
:101F4C00EBD100E000BF1037BD4680BD80B588B036
:101F5C0002AFF8600B467A607B817B68002B2AD03D
:101F6C007B68102B28BF1023BB820023FB8207E069
:101F7C00FB8A13497A8921F81320FB8A0133FB82EF
:101F8C00FA8ABB8A9A42F3D311E0BA8A7B689342ED
:101F9C0028BF13467B827A8A0023009301230849C9
:101FAC00F868FFF796FF7B8A7A68D31A7B607B68A8
:101FBC00002BEAD100E000BF1837BD4680BD00BF42
:101FCC002800002080B588B002AFF86008461146A2
:101FDC001A4603467B810B463B811346FB80B7F9BF
:101FEC000630002B00F08880B7F92030002B00F071
:101FFC008380B7F90630002B0ADAFA887B89134400
:10200C009BB201339BB27B81FB885B429BB2FB8012
:10201C00FB68B3F90830B7F90A209A426CDAB7F9C1
:10202C002030002B0ADA3A8C3B8913449BB20133E3
:10203C009BB23B813B8C5B429BB23B84FB68B3F90C
:10204C000A30B7F908209A4256DA7A89FB88134489
:10205C009BB2013B9BB2FB82B7F91630002B4BDBDA
:10206C003A893B8C13449BB2013B9BB2BB82B7F9C0
:10207C001430002B40DBB7F90A30002B05DA0023B3
:10208C007B81FB8A01339BB2FB80B7F90830002BB4
:10209C0005DA00233B81BB8A01339BB23B84FB688E
:1020AC00B3F90830B7F916209A4207DBFB68B3F98D
:1020BC0008309AB27B89D31A9BB2FB80FB68B3F9C8
:1020CC000A30B7F914209A4207DBFB68B3F90A30DF
:1020DC009AB23B89D31A9BB23B84B7F90600B7F985
:1020EC000820B7F90A10BB8C0193B7F92030009384
:1020FC000346F86800F0D3F800BF1837BD4680BD22
:10210C0080B588B002AFF860084611461A460346FF
:10211C007B810B463B811346FB80B7F90830002BC3
:10212C0052DBFB68B3F90A30B7F908209A424BDA54
:10213C00B7F90630002B47D0B7F90630002B0ADA76
:10214C00FA887B8913449BB201339BB27B81FB8859
:10215C005B429BB2FB80FB68B3F90830B7F90A20ED
:10216C009A4231DA7A89FB8813449BB2013B9BB2C9
:10217C00FB82B7F91630002B26DBB7F90A30002B9F
:10218C0005DA00237B81FB8A01339BB2FB80FB6861
:10219C00B3F90830B7F916209A4207DBFB68B3F99C
:1021AC0008309AB27B89D31A9BB2FB80B7F9060030
:1021BC00B7F90820B7F90A103B8C0193012300935F
:1021CC000346F86800F06BF800BF1837BD4680BDB9
:1021DC0080B588B002AFF860084611461A4603462F
:1021EC007B810B463B811346FB80B7F90A30002BF1
:1021FC0051DBFB68B3F90830B7F90A209A424ADA86
:10220C00B7F90630002B46D0B7F90630002B0ADAA6
:10221C00FA883B8913449BB201339BB23B81FB8808
:10222C005B429BB2FB80FB68B3F90A30B7F908201C
:10223C009A4230DA3A89FB8813449BB2013B9BB239
:10224C00FB82B7F91630002B25DBB7F90830002BD1
:10225C0005DA00233B81FB8A01339BB2FB80FB68D0
:10226C00B3F90A30B7F916209A4207DBFB68B3F9C9
:10227C000A309AB23B89D31A9BB2FB80B7F908207B
:10228C00B7F90A103B8C0193B7F906300093012380
:10229C00F86800F004F800BF1837BD4680BD90B553
:1022AC0087B002AFF860084611461A4603467B8198
:1022BC000B463B811346FB80FB681B6844331C6850
:1022CC0079893A89F8883B8C00930346F868A047D3
:1022DC00B7F90630B7F9202003FB02F2BB8C194684
:1022EC00F868FFF733FE00BF1437BD4690BD90B5BC
:1022FC0087B002AFF860084611461A4603467B8148
:10230C000B463B811346FB80B7F90A30002B2DDBC3
:10231C00FB68B3F90830B7F90A209A4226DAB7F904
:10232C000830002B22DBFB68B3F90A30B7F9082020
:10233C009A421BDAFB681B6804331B68F8689847E1
:10234C00FB681B6844331C6879893A890123009324
:10235C000123F868A047FB881946F86800F04AFA90
:10236C00FB681B681C331B68F868984700BF143760
:10237C00BD4690BD80B588B002AFF86008461146E6
:10238C001A4603467B810B463B811346FB80B7F90B
:10239C000630002B00F09480B7F92030002B00F0B1
:1023AC008F80B7F90630002B0ADAFA887B89134440
:1023BC009BB201339BB27B81FB885B429BB2FB805F
:1023CC00FB68B3F90830B7F90A209A4278DAB7F902
:1023DC002030002B0ADA3A8C3B8913449BB2013330
:1023EC009BB23B813B8C5B429BB23B84FB68B3F959
:1023FC000A30B7F908209A4262DA7A89FB881344CA
:10240C009BB2013B9BB2FB82B7F91630002B57DB1A
:10241C003A893B8C13449BB2013B9BB2BB82B7F90C
:10242C001430002B4CDBB7F90A30002B05DA0023F3
:10243C007B81FB8A01339BB2FB80B7F90830002B00
:10244C0005DA00233B81BB8A01339BB23B84FB68DA
:10245C00B3F90830B7F916209A4207DBFB68B3F9D9
:10246C0008309AB27B89D31A9BB2FB80FB68B3F914
:10247C000A30B7F914209A4207DBFB68B3F90A302B
:10248C009AB23B89D31A9BB23B84FB681B6804331A
:10249C001B68F8689847B7F90600B7F90820B7F930
:1024AC000A10BB8C0193B7F9203000930346F868EF
:1024BC00FFF7F5FEFB681B681C331B68F868984730
:1024CC0000BF1837BD4680BD80B588B002AFF8603C
:1024DC00084611461A4603467B810B463B81134640
:1024EC00FB80B7F90830002B5EDBFB68B3F90A30D0
:1024FC00B7F908209A4257DAB7F90630002B53D0B7
:10250C00B7F90630002B0ADAFA887B8913449BB2A0
:10251C0001339BB27B81FB885B429BB2FB80FB68E7
:10252C00B3F90830B7F90A209A423DDA7A89FB8868
:10253C0013449BB2013B9BB2FB82B7F91630002BC4
:10254C0032DBB7F90A30002B05DA00237B81FB8ADA
:10255C0001339BB2FB80FB68B3F90830B7F9162046
:10256C009A4207DBFB68B3F908309AB27B89D31A1D
:10257C009BB2FB80FB681B6804331B68F8689847A8
:10258C00B7F90600B7F90820B7F90A103B8C01938C
:10259C00012300930346F868FFF781FEFB681B6874
:1025AC001C331B68F868984700BF1837BD4680BDC0
:1025BC0080B588B002AFF860084611461A4603464B
:1025CC007B810B463B811346FB80B7F90A30002B0D
:1025DC005DDBFB68B3F90830B7F90A209A4256DA8A
:1025EC00B7F90630002B52D0B7F90630002B0ADAB7
:1025FC00FA883B8913449BB201339BB23B81FB8825
:10260C005B429BB2FB80FB68B3F90A30B7F9082038
:10261C009A423CDA3A89FB8813449BB2013B9BB249
:10262C00FB82B7F91630002B31DBB7F90830002BE1
:10263C0005DA00233B81FB8A01339BB2FB80FB68EC
:10264C00B3F90A30B7F916209A4207DBFB68B3F9E5
:10265C000A309AB23B89D31A9BB2FB80FB681B6889
:10266C0004331B68F8689847B7F90820B7F90A10C3
:10267C003B8C0193B7F9063000930123F868FFF700
:10268C000EFEFB681B681C331B68F868984700BF7C
:10269C001837BD4680BD80B582B000AF78600B4660
:1026AC00FB707B681B6804331B6878689847FB7861
:1026BC00002B03D07B6893F8263002E07B6893F8FC
:1026CC0027301946786800F07FF87B681B681C334C
:1026DC001B687868984700BF0837BD4680BD00006E
:1026EC0080B586B000AFF8607A601A460B46FB7274
:1026FC001346BB72284B9B69B3F5007F0CD1FB686A
:10270C0093F920309BB21946244801F0BBFD0346D7
:10271C00002B01DB012300E00023002B02D0F86822
:10272C00FFF70AFBF868FFF72FFBFB7A1946F868EE
:10273C0000F036F8F868FFF713FB00237B610BE021
:10274C007B681B781946F86800F02AF87B6801331F
:10275C007B607B6901337B61BB7A7A699A42EFDBE0
:10276C000D4B9B69B3F5007F0CD1FB6893F92030BE
:10277C009BB21946094801F085FD0346002B01DB8D
:10278C00012300E00023002B02D0F868FFF7C0FA09
:10279C0000BF1837BD4680BD740000200008014002
:1027AC0080B582B000AF78600B46FB70F91C4FF01F
:1027BC00FF330122034802F0F7F900BF0837BD468A
:1027CC0080BD00BF7400002080B582B000AF78607F
:1027DC000B46FB707868FFF7D7FAFB7819467868D8
:1027EC00FFF7DEFF7868FFF7BBFA00BF0837BD467E
:1027FC0080BD000080B582B000AF78600B467B8056
:10280C007B885BBA9BB27B80B91C4FF0FF330222F2
:10281C00034802F0C9F900BF0837BD4680BD00BFB0
:10282C007400002080B582B000AF786039603B68DE
:10283C001BBA3B6039464FF0FF330422034802F0C9
:10284C00B3F900BF0837BD4680BD00BF740000203F
:10285C0080B584B002AF78600B46FB701346BB703A
:10286C00786897F9032097F9023000931346A02259
:10287C00802100F045F9044A7B681A607B68184691
:10288C000837BD4680BD00BF3457000880B584B002
:10289C0000AF78600B46FB700023FB73FB7803F0F2
:1028AC000303DAB27B689A757B6893F82A30012BA4
:1028BC0004D07B6893F82A30052B09D17B689B7D6B
:1028CC00012B01D8032200E001227B6883F8292028
:1028DC007B689B7D032B00F2078101A252F823F049
:1028EC00FD2800087B290008F9290008772A000830
:1028FC007B6893F82A30022B04D07B6893F82A303B
:10290C00042B02D1C023FB7301E0C823FB737B684B
:10291C0093F82A30012B06D17B6880225A817B6880
:10292C0080221A8116E07B6893F82A30042B04D09D
:10293C007B6893F82A30062B06D17B68A0225A813B
:10294C007B6850221A8105E07B68A0225A817B6843
:10295C0080221A817B6893F828301AB27B685A84DB
:10296C007B6893F829301AB27B689A84BCE07B6848
:10297C0093F82A30022B04D07B6893F82A30042B6E
:10298C0002D1A023FB7301E0A823FB737B6893F8AF
:10299C002A30012B06D17B6880221A817B68802229
:1029AC005A8116E07B6893F82A30042B04D07B689C
:1029BC0093F82A30062B06D17B68A0221A817B68FB
:1029CC0050225A8105E07B68A0221A817B68802204
:1029DC005A817B6893F828301AB27B689A847B689A
:1029EC0093F829301AB27B685A847DE07B6893F89F
:1029FC002A30022B04D07B6893F82A30042B02D1A6
:102A0C000023FB7301E00823FB737B6893F82A30E7
:102A1C00012B06D17B6880225A817B6880221A8127
:102A2C0016E07B6893F82A30042B04D07B6893F86B
:102A3C002A30062B06D17B68A0225A817B68502253
:102A4C001A8105E07B68A0225A817B6880221A815A
:102A5C007B6893F828301AB27B685A847B6893F8A9
:102A6C0029301AB27B689A843EE07B6893F82A304E
:102A7C00022B04D07B6893F82A30042B02D16023FC
:102A8C00FB7301E06823FB737B6893F82A30012BFE
:102A9C0006D17B6880221A817B6880225A8116E0DD
:102AAC007B6893F82A30042B04D07B6893F82A3087
:102ABC00062B06D17B68A0221A817B6850225A8192
:102ACC0005E07B68A0221A817B6880225A817B6892
:102ADC0093F828301AB27B689A847B6893F8293073
:102AEC001AB27B685A8400BF786807F10F02012381
:102AFC003621FFF7F5FD00BF1037BD4680BD00BF86
:102B0C0090B587B002AFF860084611461A460346E6
:102B1C007B810B463B811346FB71F86897F90740A4
:102B2C003A89798997F9203000932346FFF740F9C9
:102B3C00074AFB681A60FB68002283F82820FB68B0
:102B4C00002283F82920FB6818461437BD4690BD37
:102B5C008457000880B586B000AFF860084611466F
:102B6C001A4603467B810B463B811346FB80FB6870
:102B7C00B3F922309AB27B8913447B81FB68B3F999
:102B8C0024309AB23B8913443B817B891B0479899D
:102B9C00FA880A44013A13437B613B891B04398947
:102BAC003A8C0A44013A13433B61FB682A211846CC
:102BBC00FFF70AFEFB6879691846FFF733FEFB68DE
:102BCC002B211846FFF700FEFB6839691846FFF702
:102BDC0029FEFB682C211846FFF7F6FD00BF1837BD
:102BEC00BD4680BD80B584B000AF78600B46FB70ED
:102BFC000023FB73FB7803F00303DAB27B689A754E
:102C0C007B689B7D032B47D801A252F823F000BFB1
:102C1C002D2C00084B2C0008692C0008872C000870
:102C2C00C023FB737B6893F828301AB27B685A84F4
:102C3C007B6893F829301AB27B689A842CE0A02325
:102C4C00FB737B6893F828301AB27B689A847B6894
:102C5C0093F829301AB27B685A841DE00023FB7369
:102C6C007B6893F828301AB27B685A847B6893F897
:102C7C0029301AB27B689A840EE06023FB737B6860
:102C8C0093F828301AB27B689A847B6893F82930C1
:102C9C001AB27B685A8400BF786807F10F020123CF
:102CAC003621FFF71DFD00BF1037BD4680BD00BFAC
:102CBC0080B483B000AF78600B46FB707B68FA7809
:102CCC00DA7500BF0C37BD4680BC704780B483B04A
:102CDC0000AF7860044A7B681A607B6818460C3732
:102CEC00BD4680BC704700BFE456000880B582B07A
:102CFC0000AF7860054A7B681A607B681846FFF75E
:102D0C00E5FF7B6818460837BD4680BD8457000830
:102D1C0080B582B000AF7860054A7B681A607B682A
:102D2C001846FFF7E3FF7B6818460837BD4680BDA1
:102D3C003457000890B589B002AF0346FB800021E0
:102D4C00AA48FDF778FC0023FB8219E0A748FDF7A1
:102D5C0028FA03469BB2013B9BB21BB2B7F9161083
:102D6C00FA88019200930B46002200219F48FDF740
:102D7C007EFC002000F0FAFFFB8A06339BB2FB823C
:102D8C009A48FDF702FA03461A46B7F916309342F1
:102D9C00B4BF01230023DBB2002BD7D10023BB82AD
:102DAC0019E09248FDF7F1F903469BB2013B9BB247
:102DBC001AB2FB880193B7F9143000931346002222
:102DCC0000218A48FDF753FC002000F0CFFFBB8A9E
:102DDC0006339BB2BB828548FDF7E3F903461A46DE
:102DEC00B7F914309342B4BF01230023DBB2002B9C
:102DFC00D7D100217D48FDF71EFC00237B8221E00A
:102E0C007A48FDF7C2F903469BB2013B9BB21CB258
:102E1C007648FDF7C6F903469BB2013B9BB21BB249
:102E2C00B7F91210FA88019200930B460022214642
:102E3C006E48FDF71CFC002000F098FF7B8A0633DF
:102E4C009BB27B826948FDF7A0F903461A46B7F995
:102E5C0012309342B4BF01230023DBB2002BCFD13D
:102E6C0000233B8218E06148FDF78FF903469BB2C3
:102E7C00013B9BB219B2FB880193B7F91030009358
:102E8C00002300225948FDF7F2FB002000F06EFFF2
:102E9C003B8A06339BB23B825448FDF782F90346CA
:102EAC001A46B7F910309342B4BF01230023DBB2AA
:102EBC00002BD8D100214D48FDF7BDFB0023FB8131
:102ECC0019E04A48FDF76DF903469BB2013B9BB2F2
:102EDC001AB2B7F90E10FB880193002300930B462E
:102EEC0000214248FDF7C3FB002000F03FFFFB89A7
:102EFC0006339BB2FB813D48FDF747F903461A4662
:102F0C00B7F90E309342B4BF01230023DBB2002B80
:102F1C00D7D10023BB8121E03448FDF742F90346A9
:102F2C009BB2013B9BB21CB23048FDF72EF9034615
:102F3C009BB2013B9BB21AB2FB880193B7F90C30E0
:102F4C0000931346224600212848FDF790FB0020F1
:102F5C0000F00CFFBB8906339BB2BB812348FDF705
:102F6C0020F903461A46B7F90C309342B4BF01233B
:102F7C000023DBB2002BCFD100211C48FDF75BFBFB
:102F8C0000237B8121E01948FDF7FFF803469BB233
:102F9C00013B9BB21CB21548FDF703F903469BB2EB
:102FAC00013B9BB21AB2B7F90A10FB8801930023BC
:102FBC0000930B4621460D48FDF759FB002000F00D
:102FCC00D5FE7B8906339BB27B810848FDF7DDF883
:102FDC0003461A46B7F90A309342B4BF01230023C3
:102FEC00DBB2002BCFD100233B8122E04800002034
:102FFC001948FDF7CAF803469BB2013B9BB21CB2C1
:10300C001548FDF7CEF803469BB2013B9BB21AB2B2
:10301C00FB880193B7F908300093002321460E4832
:10302C00FDF725FB002000F0A1FE3B8906339BB287
:10303C003B810948FDF7B5F803461A46B7F9083045
:10304C009342B4BF01230023DBB2002BD0D100BFCD
:10305C0000BF1C37BD4690BD4800002080B582B033
:10306C0000AF78600B467B80002200210748FDF7FB
:10307C0067F87B8819460548FDF775F80121034868
:10308C00FFF716FE00BF0837BD4680BD4800002084
:10309C0080B586B002AF03460A46FB801346BB8060
:1030AC0000212748FDF7C7FA0023FB8111E02448D3
:1030BC00FDF76BF803461946B7F90E20FB88009311
:1030CC000B4600211E48FFF7FFF9FB8905339BB225
:1030DC00FB811B48FDF765F803461A46B7F90E301D
:1030EC009342B4BF01230023DBB2002BDFD10023BA
:1030FC00BB8111E01248FDF754F803461A46B7F9A4
:10310C000C10BB880093134600220D48FFF750FAB1
:10311C00BB8905339BB2BB810948FDF736F80346E2
:10312C001A46B7F90C309342B4BF01230023DBB22B
:10313C00002BDFD100BF00BF1037BD4680BD00BFE4
:10314C004800002090B587B002AF0346FB800021F9
:10315C002748FDF770FA0023FB8135E02448FDF782
:10316C0014F80346DA0F13445B101BB29AB2B7F98A
:10317C000E30D90F0B445B101BB29BB2D31A9BB20F
:10318C001CB21B48FDF70DF80346DA0F13445B1015
:10319C001BB29AB2B7F90E30D90F0B445B101BB2AD
:1031AC009BB2D31A9BB21AB2B7F90E10FB880193DB
:1031BC00B7F90E3000930B4621460D48FDF70AFE79
:1031CC00FB8906339BB2FB810948FCF7DEFF034603
:1031DC001A46B7F90E309342B4BF01230023DBB279
:1031EC00002BBBD100BF00BF1437BD4690BD00BF44
:1031FC004800002090B587B002AF03460A46FB801A
:10320C001346BB8000213E48FDF715FA3C48FCF7FD
:10321C00BCFF03469BB2013B9BB2FB8167E0384885
:10322C00FCF7B3FF0346DA0F13445B101BB29AB2E0
:10323C00B7F90E30D90F0B445B101BB29BB2D31AEB
:10324C009BB21CB22E48FCF7ACFF0346DA0F1344BA
:10325C005B101BB29AB2B7F90E30D90F0B445B104E
:10326C001BB29BB2D31A9BB21AB2B7F90E10FB88E1
:10327C000193B7F90E3000930B4621462048FFF717
:10328C0079F81F48FCF781FF0346DA0F13445B10F3
:10329C001BB29AB2B7F90E30D90F0B445B101BB2AC
:1032AC009BB2D31A9BB21CB21548FCF77AFF0346AB
:1032BC00DA0F13445B101BB29AB2B7F90E30D90F68
:1032CC000B445B101BB29BB2D31A9BB21AB2B7F968
:1032DC000E10BB880193B7F90E3000930B462146B4
:1032EC000748FDF777FDFB89063B9BB2FB81B7F9DD
:1032FC000E30062B93DC00BF00BF1437BD4690BDCB
:10330C004800002080B586B002AF03460A46FB7128
:10331C001346BB80FB79FB812CE0FB79BB8113E06E
:10332C00FB7918B2B7F90C20B7F90E10BB880093D3
:10333C0003461A48FDF71FFCFB799BB25B009AB25F
:10334C00BB8913449BB2BB811448FCF72AFF03468C
:10335C001A46B7F90C309342B4BF01230023DBB2F9
:10336C00002BDDD1FB799BB25B009AB2FB89134435
:10337C009BB2FB810948FCF708FF03461A46B7F9D4
:10338C000E309342B4BF01230023DBB2002BC4D117
:10339C0000BF00BF1037BD4680BD00BF48000020F5
:1033AC0090B587B002AF03460A46FB711346BB804B
:1033BC000023FB812EE00023BB8113E0FB7918B2C4
:1033CC00B7F90C20B7F90E10BB88009303461C48C4
:1033DC00FDF7CAF9FB799BB25B009AB2BB89134427
:1033EC009BB2BB81B7F90C401548FCF7DAFE0346DB
:1033FC001A46FB7913449C42B4BF01230023DBB271
:10340C00002BDBD1FB799BB25B009AB2FB89134496
:10341C009BB2FB81B7F90E400948FCF7B6FE034698
:10342C001A46FB7913449C42B4BF01230023DBB240
:10343C00002BC0D100BF00BF1437BD4690BD00BFEC
:10344C0048000020F0B58BB004AF00212648FDF7F2
:10345C00F2F84FF47843FB822348FCF796FE0346C0
:10346C00DA0F13445B101BB23B601F48FCF799FE4C
:10347C000346013BFB600023BB601B48FCF785FE49
:10348C0003467B6000233B6125E03B681CB2BB68B4
:10349C001DB2BB681EB2FB681BB27A6812B2F96827
:1034AC0009B2F88A039002910192009333462A469E
:1034BC0021460D48FDF77DFEFB68043BFB60BB68B5
:1034CC000433BB607B68043B7B60FB8A6433FB8208
:1034DC003B6901333B613B690F2BD6DD00BF00BF5D
:1034EC001C37BD46F0BD00BF4800002090B58DB024
:1034FC0004AF00212848FDF79EF86423FB830023CA
:10350C007B6140E000233B610023FB602248FCF719
:10351C003CFE0346023BBB601F48FCF742FE0346E1
:10352C00023B7B600023BB6124E03B6919B2FB6862
:10353C0018B2BB681CB27B681BB2FA8B02920522D4
:10354C0001920093234602461348FDF7A6FC3B6903
:10355C0002333B61FB680333FB60BB68043BBB601D
:10356C007B68063B7B60FB8B03F24C43FB83BB69A4
:10357C000133BB61BB69102BD7DDFB8B6433FB8341
:10358C007B6901337B617B69042BBBDD00BF00BF12
:10359C002437BD4690BD00BF4800002080B500AF69
:1035AC0000212A48FFF784FB00212848FDF743F847
:1035BC001E2200212548FCF7C3FD4FF47841234817
:1035CC00FCF7D1FD01212148FEF731FB4FF6E071EC
:1035DC001E48FCF7C8FD02211C48FEF728FB4FF4DF
:1035EC00FC611A48FCF7BFFD03211848FEF71FFBCE
:1035FC001F211648FCF7B7FD04211448FEF717FBF2
:10360C0040F2DC5000F0B2FB002200210F48FCF726
:10361C0097FD00210D48FDF70EF84FF6FF710B4892
:10362C00FCF7A1FD00210948FEF701FB0121074829
:10363C00FEF7FDFA4FF4FC610448FCF794FD4FF6DD
:10364C00FF710248FCF78FFD00BF80BD48000020D1
:10365C0080B584B004AF00214548FCF7ECFF4FF671
:10366C00FF730293082301933C2300934E230A22F9
:10367C0019213F48FDF70FFD4FF47843039328239E
:10368C0002935A2301933C2300932A2314222A21C8
:10369C003748FDF7D5FD4FF4FA7000F067FB4FF695
:1036AC00FF730293082301933C2300934E235A2269
:1036BC0019212F48FDF7EFFC4FF4FC63029305230F
:1036CC0001932D2300931423622227212848FDF710
:1036DC00E2FC4FF4FC630293052301932D2300932A
:1036EC001423622245212248FDF7D5FC4FF4FA70D1
:1036FC0000F03CFB1F230393282302935A230193CE
:10370C003C2300932A2314222A211948FDF798FD03
:10371C00322000F02BFB4FF47843029305230193E6
:10372C002D2300931423622227211148FDF7B3FCAB
:10373C004FF478430293052301932D230093142314
:10374C00622245210A48FDF7A6FC4FF4FC63039363
:10375C00282302935A2301933C2300932A231422F7
:10376C002A210348FDF76CFD00BFBD4680BD00BF9C
:10377C004800002098B500AF00214848FCF75BFFDB
:10378C004FF4FA7000F0F2FA00214448FCF753FFB2
:10379C004FF6FF714248FFF761FC4FF47A7000F06E
:1037AC00E5FAFFF7FBFE4FF47A6000F0DFFA3B48D6
:1037BC00FCF7EBFC0346DA0F13445B101CB23748E2
:1037CC00FCF7EFFC0346DA0F13445B101AB24FF40C
:1037DC00FC6321463148FEF78AFD4FF4FA7000F085
:1037EC00C5FA4FF6E070FFF7A5FA4FF4FA7000F047
:1037FC00BDFA1F214FF47840FFF74AFC4FF4FA70E2
:10380C0000F0B4FA4FF4FC60FFF79CFC4FF4FA7034
:10381C0000F0ACFA4FF61F014FF6E070FFF7EAFC30
:10382C004FF4FA7000F0A2FA00211C48FCF703FFD9
:10383C001F210A20FFF766FD4FF6FF710A20FFF7E4
:10384C00AFFD4FF4FA7000F091FAFFF74FFE4FF412
:10385C00FA7000F08BFAFFF7F5FD4FF4FA7000F0F8
:10386C0085FAFFF7F5FE4FF4FA7000F07FFA4FF48B
:10387C007A7000F07BFA01210848FEF70CFF4FF438
:10388C00FA7000F073FA00210448FEF704FF4FF4BD
:10389C00FA7000F06BFA00BFEDE700BF48000020A3
:1038AC002050000880B582B000AF786039607B682A
:1038BC00012B09D13B684FF6FF72934204D1402291
:1038CC0008210948FEF7C4FF7B68002B07D13B6831
:1038DC004FF6FF72934202D10348FFF719FA00BF6B
:1038EC000837BD4680BD00BF4800002080B500AF42
:1038FC004FF6FF710120FFF7D5FF80BD80B500AFFB
:10390C004FF6FF710020FFF7CDFF80BD80B500AFF3
:10391C0000F0CAF900F007F800F082F800F048F85F
:10392C00FFF728FFFCE780B590B000AF07F1180354
:10393C0028220021184601F034FB3B1D00221A609E
:10394C005A609A60DA601A610123BB614FF48033CC
:10395C00FB6100233B620123BB6202237B634FF4B8
:10396C008033BB634FF4E013FB6307F11803184675
:10397C0000F0B8FC0346002B01D000F09BF80F239D
:10398C007B600223BB600023FB604FF480633B61D0
:10399C0000237B613B1D0221184600F025FF0346E6
:1039AC00002B01D000F086F800BF4037BD4680BD2B
:1039BC0080B500AF184B194A1A60174B4FF482723E
:1039CC005A60154B4FF400429A60134B0022DA6098
:1039DC00114B02221A61104B01225A610E4B4FF40B
:1039EC0080229A610C4B1822DA610B4B00221A626E
:1039FC00094B00225A62084B00229A62064B0A229B
:103A0C00DA62054801F04CF80346002B01D000F0B7
:103A1C0051F800BF80BD00BF740000200030014091
:103A2C0080B588B000AF07F1100300221A605A600D
:103A3C009A60DA601D4B9B691C4A43F0200393612A
:103A4C001A4B9B6903F02003FB60FB68174B9B69C7
:103A5C00164A43F004039361144B9B6903F004036F
:103A6C00BB60BB68114B9B69104A43F00803936120
:103A7C000E4B9B6903F008037B607B680022482196
:103A8C000B4800F016FC48233B6101237B610023AB
:103A9C00BB610223FB6107F110031946044800F0D7
:103AAC006DFA00BF2037BD4680BD00BF001002403C
:103ABC000008014080B400AF72B600BF00BFFDE744
:103ACC0080B485B000AF154B9B69144A43F00103D9
:103ADC009361124B9B6903F00103BB60BB680F4BF6
:103AEC00DB690E4A43F08053D3610C4BDB6903F066
:103AFC0080537B607B680A4B5B68FB60FB6823F040
:103B0C00E063FB60FB6843F08063FB60044AFB6886
:103B1C00536000BF1437BD4680BC70470010024094
:103B2C000000014080B58AB000AF786007F1140343
:103B3C0000221A605A609A60DA607B681B68294A16
:103B4C0093424AD1284B9B69274A43F48053936193
:103B5C00254B9B6903F480533B613B69224B9B696A
:103B6C00214A43F0040393611F4B9B6903F0040348
:103B7C00FB60FB681C4B9B691B4A43F00803936179
:103B8C00194B9B6903F00803BB60BB684FF40043FF
:103B9C007B610223BB6103233B6207F114031946CB
:103BAC00124800F0EBF928237B610223BB6103234D
:103BBC003B6207F1140319460D4800F0DFF90D4B79
:103BCC005B687B627B6A43F0E0637B627B6A43F0F9
:103BDC0001037B62074A7B6A536000BF2837BD46EE
:103BEC0080BD00BF003001400010024000080140C1
:103BFC00000C01400000014080B400AF00BFFDE7A5
:103C0C0080B400AF00BFFDE780B400AF00BFFDE79C
:103C1C0080B400AF00BFFDE780B400AF00BFFDE78C
:103C2C0080B400AF00BFBD4680BC704780B400AF0D
:103C3C0000BFBD4680BC704780B400AF00BFBD461E
:103C4C0080BC704780B500AF00F074F800BF80BD39
:103C5C0080B400AF00BFBD4680BC7047FFF7F8FFD3
:103C6C000B480C490C4A002302E0D458C4500433CE
:103C7C00C4188C42F9D3094A094C002301E01360A3
:103C8C000432A242FBD301F095F9FFF73FFE7047D7
:103C9C00000000200C000020005800080C00002040
:103CAC00D0000020FEE7000080B500AF084B1B6879
:103CBC00074A43F010031360032000F02BF90F2088
:103CCC0000F008F8FFF7FCFE0023184680BD00BF8B
:103CDC000020024080B582B000AF7860124B1A68A9
:103CEC00124B1B7819464FF47A73B3FBF1F3B2FB0A
:103CFC00F3F3184600F035F90346002B01D00123ED
:103D0C000EE07B680F2B0AD8002279684FF0FF3049
:103D1C0000F00BF9064A7B681360002300E00123D6
:103D2C0018460837BD4680BD000000200800002062
:103D3C000400002080B400AF054B1B781A46054BDD
:103D4C001B681344034A136000BFBD4680BC704718
:103D5C0008000020CC00002080B400AF024B1B6890
:103D6C001846BD4680BC7047CC00002080B584B09E
:103D7C0000AF7860FFF7F0FFB8607B68FB60FB6812
:103D8C00B3F1FF3F05D00A4B1B781A46FB6813446E
:103D9C00FB6000BFFFF7E0FF0246BB68D31AFA686E
:103DAC009A42F7D800BF00BF1037BD4680BD00BF98
:103DBC000800002080B485B000AF78607B6803F009
:103DCC000703FB600C4BDB68BB60BA684FF6FF0364
:103DDC001340BB60FB681A02BB68134343F0BF631C
:103DEC0043F40033BB60044ABB68D36000BF143794
:103DFC00BD4680BC704700BF00ED00E080B400AF52
:103E0C00044BDB681B0A03F007031846BD4680BC55
:103E1C00704700BF00ED00E080B483B000AF0346F4
:103E2C003960FB7197F90730002B0ADB3B68DAB27B
:103E3C000C4997F907301201D2B20B4483F80023D6
:103E4C000AE03B68DAB20849FB7903F00F03043B44
:103E5C001201D2B20B441A7600BF0C37BD4680BC9F
:103E6C00704700BF00E100E000ED00E080B489B0D5
:103E7C0000AFF860B9607A60FB6803F00703FB6180
:103E8C00FB69C3F10703042B28BF0423BB61FB6947
:103E9C000433062B02D9FB69033B00E000237B6152
:103EAC004FF0FF32BB6902FA03F3DA43BB681A40E6
:103EBC007B699A404FF0FF317B6901FA03F3D943D8
:103ECC007B680B40134318462437BD4680BC7047B3
:103EDC0080B582B000AF78607B68013BB3F1807F26
:103EEC0001D301230FE00A4A7B68013B53600F2189
:103EFC004FF0FF30FFF790FF054B00229A60044B08
:103F0C0007221A60002318460837BD4680BD00BF43
:103F1C0010E000E080B582B000AF78607868FFF701
:103F2C0049FF00BF0837BD4680BD80B586B000AFE5
:103F3C000346B9607A60FB7300237B61FFF75EFF79
:103F4C0078617A68B9687869FFF790FF024697F94B
:103F5C000F3011461846FFF75FFF00BF1837BD46FC
:103F6C0080BD80B582B000AF78607868FFF7B0FF95
:103F7C00034618460837BD4680BD000080B48BB0A0
:103F8C0000AF7860396000237B6200233B6269E1FB
:103F9C0001227B6A02FA03F3FB613B681B68FA6936
:103FAC001340BB61BA69FB699A4240F058813B6887
:103FBC005B689A4A93425ED0984A934275D8984A65
:103FCC00934258D0964A93426FD8964A934252D015
:103FDC00944A934269D8944A93424CD0924A934261
:103FEC0063D8924A934246D0904A93425DD8122BA2
:103FFC002AD8122B59D801A252F823F0834000087A
:10400C005D4000086F400008B1400008B740000850
:10401C00B7400008B7400008B7400008B740000898
:10402C00B7400008B7400008B7400008B740000888
:10403C00B7400008B7400008B7400008B740000878
:10404C006540000879400008794A934213D02CE06F
:10405C003B68DB683B6229E03B68DB6804333B620E
:10406C0024E03B68DB6808333B621FE03B68DB689D
:10407C000C333B621AE03B689B68002B02D1042393
:10408C003B6213E03B689B68012B05D108233B6224
:10409C007B68FA691A6109E008233B627B68FA695C
:1040AC005A6103E000233B6200E000BFBB69FF2BB9
:1040BC0001D87B6801E07B6804337B61BB69FF2B13
:1040CC0002D87B6A9B0002E07B6A083B9B003B6149
:1040DC007B691A680F213B6901FA03F3DB431A4031
:1040EC00396A3B6901FA03F31A437B691A603B682E
:1040FC005B6803F08053002B00F0B1804D4B9B6943
:10410C004C4A43F0010393614A4B9B6903F0010352
:10411C00BB60BB68484A7B6A9B08023352F8233069
:10412C00FB607B6A03F003039B000F2202FA03F38C
:10413C00DB43FA681340FB607B68404A934213D020
:10414C007B683F4A93420DD07B683E4A934207D02E
:10415C007B683D4A934201D1032306E0042304E02B
:10416C00022302E0012300E000237A6A02F003023A
:10417C0092009340FA681343FB602F497B6A9B08BB
:10418C000233FA6841F823203B685B6803F4801320
:10419C00002B06D02D4B9A682C49BB6913438B60BE
:1041AC0006E02A4B9A68BB69DB43284913408B60B5
:1041BC003B685B6803F40013002B06D0234BDA68D2
:1041CC002249BB691343CB6006E0204BDA68BB691C
:1041DC00DB431E491340CB603B685B6803F4003340
:1041EC00002B06D0194B5A681849BB6913434B6016
:1041FC0006E0164B5A68BB69DB43144913404B600D
:10420C003B685B6803F48033002B21D00F4B1A689A
:10421C000E49BB6913430B6021E000BF0000321054
:10422C0000003110000022100000211000001210BC
:10423C000000111000100240000001400008014075
:10424C00000C01400010014000140140000401402A
:10425C000B4B1A68BB69DB43094913400B607B6A43
:10426C0001337B623B681A687B6A22FA03F3002BEA
:10427C007FF48EAE00BF00BF2C37BD4680BC7047AC
:10428C000004014080B485B000AF78600B467B80A1
:10429C007B689A687B881340002B02D00123FB7348
:1042AC0001E00023FB73FB7B18461437BD4680BC32
:1042BC00704780B483B000AF78600B467B801346A8
:1042CC007B707B78002B03D07A887B681A6103E0C3
:1042DC007B881A047B681A6100BF0C37BD4680BC12
:1042EC007047000080B586B000AF78607B68002B0B
:1042FC0001D1012372E27B681B6803F00103002BE0
:10430C0000F08780924B5B6803F00C03042B0CD0FD
:10431C008F4B5B6803F00C03082B12D18C4B5B6842
:10432C0003F48033B3F5803F0BD1894B1B6803F446
:10433C000033002B6CD07B685B68002B68D10123A9
:10434C004CE27B685B68B3F5803F06D1804B1B6801
:10435C007F4A43F4803313602EE07B685B68002B4C
:10436C000CD17B4B1B687A4A23F480331360784B57
:10437C001B68774A23F4802313601DE07B685B681D
:10438C00B3F5A02F0CD1724B1B68714A43F48023F8
:10439C0013606F4B1B686E4A43F4803313600BE061
:1043AC006B4B1B686A4A23F480331360684B1B68A1
:1043BC00674A23F4802313607B685B68002B13D05F
:1043CC00FFF7CAFC386108E0FFF7C6FC02463B6900
:1043DC00D31A642B01D9032300E25D4B1B6803F451
:1043EC000033002BF0D014E0FFF7B6FC386108E086
:1043FC00FFF7B2FC02463B69D31A642B01D90323A5
:10440C00ECE1534B1B6803F40033002BF0D100E0BC
:10441C0000BF7B681B6803F00203002B63D04C4B7E
:10442C005B6803F00C03002B0BD0494B5B6803F06B
:10443C000C03082B1CD1464B5B6803F48033002B18
:10444C0016D1434B1B6803F00203002B05D07B688D
:10445C001B69012B01D00123C0E13D4B1B6823F0EC
:10446C00F8027B685B69DB00394913430B603AE067
:10447C007B681B69002B20D0364B01221A60FFF79A
:10448C006BFC386108E0FFF767FC02463B69D31A06
:10449C00022B01D90323A1E12D4B1B6803F002036E
:1044AC00002BF0D02A4B1B6823F0F8027B685B6969
:1044BC00DB00274913430B6015E0264B00221A60E2
:1044CC00FFF74AFC386108E0FFF746FC02463B69FF
:1044DC00D31A022B01D9032380E11D4B1B6803F077
:1044EC000203002BF0D17B681B6803F00803002B40
:1044FC003AD07B689B69002B19D0174B01221A60AC
:10450C00FFF72AFC386108E0FFF726FC02463B69FE
:10451C00D31A022B01D9032360E10D4B5B6A03F024
:10452C000203002BF0D0012000F09CFA1CE00A4B97
:10453C0000221A60FFF710FC38610FE0FFF70CFC4B
:10454C0002463B69D31A022B08D9032346E100BF6C
:10455C00001002400000424280044242924B5B6ACF
:10456C0003F00203002BE9D17B681B6803F0040302
:10457C00002B00F0A6800023FB758B4BDB6903F04E
:10458C008053002B0DD1884BDB69874A43F0805355
:10459C00D361854BDB6903F08053BB60BB6801239F
:1045AC00FB75824B1B6803F48073002B18D17F4B77
:1045BC001B687E4A43F480731360FFF7CDFB3861B0
:1045CC0008E0FFF7C9FB02463B69D31A642B01D9FB
:1045DC00032303E1754B1B6803F48073002BF0D0AD
:1045EC007B68DB68012B06D16F4B1B6A6E4A43F06C
:1045FC00010313622DE07B68DB68002B0CD16A4B46
:10460C001B6A694A23F001031362674B1B6A664AF3
:10461C0023F0040313621CE07B68DB68052B0CD1D0
:10462C00614B1B6A604A43F0040313625E4B1B6AC6
:10463C005D4A43F0010313620BE05B4B1B6A5A4A61
:10464C0023F001031362584B1B6A574A23F00403EF
:10465C0013627B68DB68002B15D0FFF77DFB38619C
:10466C000AE0FFF779FB02463B69D31A41F2883224
:10467C00934201D90323B1E04B4B1B6A03F00203B5
:10468C00002BEED014E0FFF767FB38610AE0FFF770
:10469C0063FB02463B69D31A41F28832934201D93B
:1046AC0003239BE0404B1B6A03F00203002BEED16B
:1046BC00FB7D012B05D13C4BDB693B4A23F080533E
:1046CC00D3617B68DB69002B00F08780364B5B681D
:1046DC0003F00C03082B61D07B68DB69022B46D1FD
:1046EC00334B00221A60FFF737FB386108E0FFF705
:1046FC0033FB02463B69D31A022B01D903236DE02D
:10470C00294B1B6803F00073002BF0D17B681B6AEC
:10471C00B3F5803F08D1244B5B6823F400327B68EF
:10472C009B68214913434B601F4B5B6823F4741245
:10473C007B68196A7B685B6A0B431B4913434B60AC
:10474C001B4B01221A60FFF707FB386108E0FFF7EB
:10475C0003FB02463B69D31A022B01D903233DE02C
:10476C00114B1B6803F00073002BF0D035E0104B9D
:10477C0000221A60FFF7F0FA386108E0FFF7ECFA54
:10478C0002463B69D31A022B01D9032326E0064BC0
:10479C001B6803F00073002BF0D11EE07B68DB6913
:1047AC00012B07D1012319E00010024000700040DA
:1047BC00600042420B4B5B68FB60FB6803F4803289
:1047CC007B681B6A9A4206D1FB6803F470127B6803
:1047DC005B6A9A4201D0012300E000231846183787
:1047EC00BD4680BD0010024080B584B000AF78603B
:1047FC0039607B68002B01D10123D0E06A4B1B6828
:10480C0003F007033A689A4210D9674B1B6823F0F0
:10481C00070265493B6813430B60634B1B6803F04D
:10482C0007033A689A4201D00123B8E07B681B6801
:10483C0003F00203002B20D07B681B6803F00403F9
:10484C00002B05D0594B5B68584A43F4E063536026
:10485C007B681B6803F00803002B05D0534B5B6887
:10486C00524A43F460535360504B5B6823F0F002A0
:10487C007B689B684D4913434B607B681B6803F056
:10488C000103002B40D07B685B68012B07D1474BA1
:10489C001B6803F40033002B15D101237FE07B68E8
:1048AC005B68022B07D1414B1B6803F00073002B94
:1048BC0009D1012373E03D4B1B6803F00203002B6D
:1048CC0001D101236BE0394B5B6823F003027B6859
:1048DC005B68364913434B60FFF73EFAF8600AE019
:1048EC00FFF73AFA0246FB68D31A41F28832934238
:1048FC0001D9032353E02D4B5B6803F00C027B685A
:10490C005B689B009A42EBD1274B1B6803F00703B3
:10491C003A689A4210D2244B1B6823F007022249B2
:10492C003B6813430B60204B1B6803F007033A688A
:10493C009A4201D0012332E07B681B6803F0040328
:10494C00002B08D0194B5B6823F4E0627B68DB68B2
:10495C00164913434B607B681B6803F00803002B5C
:10496C0009D0124B5B6823F460527B681B69DB0037
:10497C000E4913434B6000F021F802460B4B5B6869
:10498C001B0903F00F030A49CB5C22FA03F3094A13
:10499C001360094B1B681846FFF79CF90023184657
:1049AC001037BD4680BD00BF002002400010024001
:1049BC00CC570008000000200400002080B487B011
:1049CC0000AF0023FB600023BB6000237B6100234E
:1049DC007B6000233B611E4B5B68FB60FB6803F054
:1049EC000C03042B02D0082B03D027E0194B3B619E
:1049FC0027E0FB689B0C03F00F03174AD35C7B602A
:104A0C00FB6803F48033002B10D0114B5B685B0CFC
:104A1C0003F00103114AD35CBB607B680D4A03FBB6
:104A2C0002F2BB68B2FBF3F37B6104E07B680C4AD7
:104A3C0002FB03F37B617B693B6102E0054B3B614D
:104A4C0000BF3B6918461C37BD4680BC704700BF91
:104A5C000010024000127A00DC570008EC570008E6
:104A6C0000093D0080B485B000AF78600A4B1B682C
:104A7C000A4AA2FB03235B0A7A6802FB03F3FB607E
:104A8C0000BFFB685A1EFA60002BF9D100BF00BFB3
:104A9C001437BD4680BC704700000020D34D621017
:104AAC0080B582B000AF78607B68002B01D1012308
:104ABC0076E07B685B6A002B08D17B685B68B3F59A
:104ACC00827F09D07B680022DA6105E07B680022D6
:104ADC001A617B6800225A617B6800229A627B68AB
:104AEC0093F85130DBB2002B06D17B68002283F89F
:104AFC0050207868FFF716F87B68022283F8512063
:104B0C007B681B681A687B681B6822F040021A607D
:104B1C007B685B6803F482727B689B6803F40443D4
:104B2C001A437B68DB6803F400631A437B681B69D8
:104B3C0003F002031A437B685B6903F001031A4319
:104B4C007B689B6903F400731A437B68DB6903F091
:104B5C0038031A437B681B6A03F0800342EA0301A3
:104B6C007B689B6A03F400527B681B680A431A60DB
:104B7C007B689B691A0C7B681B6802F004025A6004
:104B8C007B681B68DA697B681B6822F40062DA6157
:104B9C007B6800225A657B68012283F85120002330
:104BAC0018460837BD4680BD80B588B000AFF860A8
:104BBC00B9603B601346FB80FFF7CEF8F861FB88C9
:104BCC007B83FB6893F85130DBB2012B01D00223BD
:104BDC002AE1BB68002B02D0FB88002B01D10123FA
:104BEC0022E1FB6893F85030012B01D102231BE129
:104BFC00FB68012283F85020FB68032283F85120C4
:104C0C00FB6800225A65FB68BA681A63FB68FA886D
:104C1C009A86FB68FA88DA86FB6800229A63FB683E
:104C2C0000229A87FB680022DA87FB6800225A640C
:104C3C00FB6800221A64FB689B68B3F5004F0FD128
:104C4C00FB681B681A68FB681B6822F040021A603C
:104C5C00FB681B681A68FB681B6842F480421A6088
:104C6C00FB681B681B6803F04003402B07D0FB68F4
:104C7C001B681A68FB681B6842F040021A60FB68EC
:104C8C00DB68B3F5006F52D1FB685B68002B02D078
:104C9C007B8B012B45D1FB681B6B1A88FB681B684F
:104CAC00DA60FB681B6B9A1CFB681A63FB68DB8E73
:104CBC009BB2013B9AB2FB68DA8632E0FB681B6858
:104CCC009B6803F00203022B12D1FB681B6B1A8842
:104CDC00FB681B68DA60FB681B6B9A1CFB681A6329
:104CEC00FB68DB8E9BB2013B9AB2FB68DA8618E05C
:104CFC00FFF732F80246FB69D31A3A689A4203D896
:104D0C003B68B3F1FF3F02D13B68002B09D1FB6834
:104D1C00012283F85120FB68002283F850200323E2
:104D2C0082E0FB68DB8E9BB2002BC7D153E0FB68A3
:104D3C005B68002B02D07B8B012B47D1FB681A6B75
:104D4C00FB681B680C3312781A70FB681B6B5A1CBF
:104D5C00FB681A63FB68DB8E9BB2013B9AB2FB6863
:104D6C00DA8633E0FB681B689B6803F00203022BB6
:104D7C0013D1FB681A6BFB681B680C3312781A7022
:104D8C00FB681B6B5A1CFB681A63FB68DB8E9BB2BF
:104D9C00013B9AB2FB68DA8618E0FEF7DDFF0246AB
:104DAC00FB69D31A3A689A4203D83B68B3F1FF3FC8
:104DBC0002D13B68002B09D1FB68012283F85120FA
:104DCC00FB68002283F8502003232DE0FB68DB8E68
:104DDC009BB2002BC6D1FA693968F86800F0B0F8BC
:104DEC000346002B02D0FB6820225A65FB689B68A7
:104DFC00002B0AD100237B61FB681B68DB687B619D
:104E0C00FB681B689B687B617B69FB68012283F8EC
:104E1C005120FB68002283F85020FB685B6D002B4F
:104E2C0001D0012300E0002318462037BD4680BD89
:104E3C0080B588B000AFF860B9603B601346FB7179
:104E4C00FEF78AFF0246BB6A9B1A3A681344FB6161
:104E5C00FEF782FFB861394B1B685B011B0DFA69C9
:104E6C0002FB03F37B6154E03B68B3F1FF3F50D08E
:104E7C00FEF772FF0246BB69D31AFA699A4202D94D
:104E8C00FB69002B3DD1FB681B685A68FB681B68EB
:104E9C0022F0E0025A60FB685B68B3F5827F11D1A7
:104EAC00FB689B68B3F5004F04D0FB689B68B3F5B7
:104EBC00806F07D1FB681B681A68FB681B6822F0BF
:104ECC0040021A60FB689B6AB3F5005F0FD1FB6868
:104EDC001B681A68FB681B6822F400521A60FB6896
:104EEC001B681A68FB681B6842F400521A60FB6866
:104EFC00012283F85120FB68002283F85020032301
:104F0C0017E07B69002B01D10023FB617B69013B1E
:104F1C007B61FB681B689A68BB681340BA689A424D
:104F2C000CBF01230023DBB21A46FB799A429BD1BA
:104F3C00002318462037BD4680BD00BF000000206E
:104F4C0080B586B002AFF860B9607A607B68009378
:104F5C00BB6801220221F868FFF76AFF0346002BA9
:104F6C0007D0FB685B6D43F02002FB685A65032396
:104F7C0013E07B680093BB6800228021F868FFF780
:104F8C0057FF0346002B07D0FB685B6D43F02002F4
:104F9C00FB685A65032300E0002318461037BD4612
:104FAC0080BD03460244934200D1704703F8011BB5
:104FBC00F9E7000070B500260C4D0D4C641BA410D5
:104FCC00A64209D100F01AF800260A4D0A4C641BBF
:104FDC00A410A64205D170BD55F8043B9847013684
:104FEC00EEE755F8043B98470136F2E7F057000816
:104FFC00F0570008F0570008F8570008F8B500BF44
:10500C00F8BC08BC9E467047F8B500BFF8BC08BC9D
:04501C009E467047F5
:105020004C6F72656D20697073756D20646F6C6F65
:10503000722073697420616D65742C20636F6E73C8
:1050400065637465747572206164697069736369FE
:105050006E6720656C69742E204375726162697495
:1050600075722061646970697363696E6720616E2F
:10507000746520736564206E6962682074696E636C
:105080006964756E7420666575676961742E204D5C
:10509000616563656E617320656E696D206D617316
:1050A00073612C206672696E67696C6C6120736530
:1050B00064206D616C6573756164612065742C207A
:1050C0006D616C6573756164612073697420616DD5
:1050D0006574207475727069732E20536564207036
:1050E0006F72747469746F72206E65717565207566
:1050F0007420616E7465207072657469756D2076B8
:1051000069746165206D616C657375616461206EA1
:10511000756E6320626962656E64756D2E204E75D2
:105120006C6C616D20616C697175657420756C744F
:105130007269636573206D617373612065752068A2
:10514000656E6472657269742E205574207365648F
:10515000206E697369206C6F72656D2E20496E2018
:10516000766573746962756C756D20707572757390
:10517000206120746F72746F7220696D7065726443
:1051800069657420706F73756572652E200000006C
:1051900000000000003E5B4F5B3E3E6B4F6B3E1CD1
:1051A0003E7C3E1C183C7E3C181C577D571C1C5EE8
:1051B0007F5E1C00183C1800FFE7C3E7FF001824BF
:1051C0001800FFE7DBE7FF30483A060E2629792969
:1051D00026407F050507407F05253F5A3CE73C5A9E
:1051E0007F3E1C1C08081C1C3E7F14227F22145F7B
:1051F0005F005F5F06097F017F006689956A6060D6
:1052000060606094A2FFA29408047E040810207ECF
:10521000201008082A1C08081C2A08081E10101054
:10522000100C1E0C1E0C30383E3830060E3E0E069A
:10523000000000000000005F0000000700070014ED
:105240007F147F14242A7F2A1223130864623649AC
:105250005620500008070300001C22410000412294
:105260001C002A1C7F1C2A08083E08080080703099
:105270000008080808080000606000201008040208
:105280003E5149453E00427F40007249494946210E
:1052900041494D331814127F1027454545393C4A82
:1052A0004949314121110907364949493646494999
:1052B000291E0000140000004034000000081422E1
:1052C000411414141414004122140802015909064F
:1052D0003E415D594E7C1211127C7F494949363E50
:1052E000414141227F4141413E7F494949417F0936
:1052F0000909013E414151737F0808087F00417F41
:1053000041002040413F017F081422417F4040403E
:10531000407F021C027F7F0408107F3E4141413ED6
:105320007F090909063E4151215E7F091929462658
:105330004949493203017F01033F4040403F1F205C
:1053400040201F3F4038403F631408146303047833
:1053500004036159494D43007F4141410204081053
:1053600020004141417F040201020440404040408E
:10537000000307080020545478407F2844443838FC
:1053800044444428384444287F385454541800086E
:105390007E090218A4A49C787F0804047800447D48
:1053A00040002040403D007F1028440000417F40E5
:1053B000007C047804787C08040478384444443839
:1053C000FC1824241818242418FC7C080404084819
:1053D0005454542404043F44243C4040207C1C206A
:1053E00040201C3C4030403C44281028444C9090C5
:1053F000907C4464544C440008364100000077001F
:1054000000004136080002010204023C2623263C2B
:105410001EA1A161123A4040207A385454555921B6
:10542000555579412254547842215554784020549E
:105430005579400C1E5272123955555559395454EC
:10544000545939555454580000457C410002457D5B
:10545000420001457C407D1211127DF0282528F084
:105460007C545545002054547C547C0A097F4932B1
:10547000494949323A4444443A324A4848303A4128
:1054800041217A3A42402078009DA0A07D3D4242D1
:10549000423D3D4040403D3C24FF2424487E49435A
:1054A000662B2FFC2F2BFF0929F620C0887E0903CD
:1054B00020545479410000447D413048484A3238F4
:1054C0004040227A007A0A0A727D0D19317D262920
:1054D000292F28262929292630484D402038080818
:1054E000080808080808382F10C8ACBA2F1028344C
:1054F000FA00007B000008142A142222142A14083F
:105500005500550055AA55AA55AAFF55FF55FF004D
:105510000000FF00101010FF00141414FF00101002
:10552000FF00FF1010F010F0141414FC001414F716
:1055300000FF0000FF00FF1414F404FC1414171003
:105540001F10101F101F1414141F00101010F00053
:105550000000001F101010101F10101010F010008D
:105560000000FF101010101010101010FF1000009D
:1055700000FF140000FF00FF00001F10170000FCD8
:1055800004F414141710171414F404F40000FF00AA
:10559000F714141414141414F700F7141414171433
:1055A00010101F101F141414F4141010F010F00039
:1055B000001F101F0000001F14000000FC1400005A
:1055C000F010F01010FF10FF141414FF141010103E
:1055D0001F00000000F010FFFFFFFFFFF0F0F0F0F1
:1055E000F0FFFFFF0000000000FFFF0F0F0F0F0F85
:1055F0003844443844FC4A4A4A347E0202060602D1
:105600007E027E0263554941633844443C04407E37
:10561000201E2006027E020299A5E7A5991C2A49B0
:105620002A1C4C7201724C304A4D4D30304878483B
:1056300030BC625A463D3E494949007E0101017E27
:105640002A2A2A2A2A44445F444440514A4440407A
:10565000444A51400000FF0103E080FF00000808B9
:105660006B6B083612362436060F090F0600001839
:10567000180000001010003040FF0101001F010160
:105680001E00191D1712003C3C3C3C0000000000AD
:10569000000000000000000000000000D50300082A
:1056A000E70300089D0400081D0400085D040008CD
:1056B00089020008E3040008951C0008051D000885
:1056C000F50400085F050008C70500084306000848
:1056D0007B060008E10D0008091A00080000000020
:1056E00000000000FB220008291E0008711E0008AF
:1056F000D11F0008DD2100080D21000889020008E3
:105700004D1E0008951C0008A3260008BD250008B2
:10571000D524000881230008430600087B06000802
:10572000E10D0008091A0008000000000000000058
:1057300000000000FB220008291E0008711E00085E
:10574000D11F0008DD2100080D2100088902000892
:105750004D1E000899280008A3260008BD25000852
:10576000D524000881230008430600087B060008B2
:10577000E10D0008091A0008612B00080000000074
:1057800000000000FB220008291E0008711E00080E
:10579000D11F0008DD2100080D2100088902000842
:1057A0004D1E0008F12B0008A3260008BD250008A7
:1057B000D524000881230008430600087B06000862
:1057C000E10D0008091A0008612B00080000000024
:1057D0000000000001020304060708090203040593
:1057E000060708090A0B0C0D0E0F1010010200002D
:0857F00031010008F93800083E
:0857F8000D0100080939000849
:0C58000000127A001000000001000000FF
:0400000508003C694A
:00000001FF
