:020000040800F2
:100000000050002031100008610F0008690F00083F
:10001000710F0008790F0008810F00080000000030
:10002000000000000000000000000000890F000830
:10003000950F000800000000A10F0008AD0F000898
:10004000791000087910000879100008791000086C
:10005000791000087910000879100008791000085C
:10006000791000087910000879100008791000084C
:10007000791000087910000879100008791000083C
:10008000791000087910000879100008791000082C
:10009000791000087910000879100008791000081C
:1000A000791000087910000879100008791000080C
:1000B00079100008791000087910000879100008FC
:1000C00079100008791000087910000879100008EC
:1000D00079100008791000087910000879100008DC
:1000E000791000087910000879100008000000005D
:1000F0000000000000000000000000000000000000
:0C01000000000000000000005FF808F1A3
:1001100010B5054C237833B9044B13B10448AFF341
:1001200000800123237010BD70000020000000003B
:100130002837000808B5034B1BB103490348AFF348
:10014000008008BD0000000074000020283700086F
:1001500081F0004102E000BF83F0004330B54FEA78
:1001600041044FEA430594EA050F08BF90EA020FE5
:100170001FBF54EA000C55EA020C7FEA645C7FEA78
:10018000655C00F0E2804FEA5454D4EB5555B8BF9B
:100190006D420CDD2C4480EA020281EA030382EA0C
:1001A000000083EA010180EA020281EA0303362D9E
:1001B00088BF30BD11F0004F4FEA01314FF4801C71
:1001C0004CEA113102D0404261EB410113F0004F83
:1001D0004FEA03334CEA133302D0524263EB43033A
:1001E00094EA050F00F0A780A4F10104D5F1200ED8
:1001F0000DDB02FA0EFC22FA05F2801841F1000133
:1002000003FA0EF2801843FA05F359410EE0A5F106
:1002100020050EF1200E012A03FA0EFC28BF4CF037
:10022000020C43FA05F3C01851EBE37101F00045ED
:1002300007D54FF0000EDCF1000C7EEB00006EEBFA
:100240000101B1F5801F1BD3B1F5001F0CD3490884
:100250005FEA30004FEA3C0C04F101044FEA4452DB
:1002600012F5800F80F09A80BCF1004F08BF5FEA62
:10027000500C50F1000041EB045141EA050130BD42
:100280005FEA4C0C404141EB0101013C28BFB1F554
:10029000801FE9D291F0000F04BF01460020B1FA9F
:1002A00081F308BF2033A3F10B03B3F120020CDA72
:1002B0000C3208DD02F1140CC2F10C0201FA0CF050
:1002C00021FA02F10CE002F11402D8BFC2F1200CB5
:1002D00001FA02F120FA0CFCDCBF41EA0C0190406B
:1002E000E41AA2BF01EB0451294330BD6FEA0404B4
:1002F0001F3C1CDA0C340EDC04F11404C4F120029F
:1003000020FA04F001FA02F340EA030021FA04F3B0
:1003100045EA030130BDC4F10C04C4F1200220FA07
:1003200002F001FA04F340EA0300294630BD21FA45
:1003300004F0294630BD94F0000F83F4801306BF0B
:1003400081F480110134013D4EE77FEA645C18BFFF
:100350007FEA655C29D094EA050F08BF90EA020F96
:1003600005D054EA000C04BF1946104630BD91EA8E
:10037000030F1EBF0021002030BD5FEA545C05D191
:100380004000494128BF41F0004130BD14F58004D0
:100390003CBF01F5801130BD01F0004545F0FE4144
:1003A00041F470014FF0000030BD7FEA645C1ABF79
:1003B000194610467FEA655C1CBF0B46024650EAB0
:1003C000013406BF52EA033591EA030F41F40021DC
:1003D00030BD00BF90F0000F04BF0021704730B562
:1003E0004FF4806404F132044FF000054FF0000137
:1003F00050E700BF90F0000F04BF0021704730B5F8
:100400004FF4806404F1320410F0004548BF4042CC
:100410004FF000013EE700BF42004FEAE2014FEA21
:1004200031014FEA02701FBF12F07F4393F07F4FFC
:1004300081F06051704732F07F4208BF704793F0FF
:100440007F4F04BF41F40021704730B54FF4607412
:1004500001F0004521F000411CE700BF50EA010215
:1004600008BF704730B54FF000050AE050EA0102BE
:1004700008BF704730B511F0004502D5404261EB2E
:1004800041014FF4806404F132045FEA915C3FF46F
:10049000D8AE4FF003025FEADC0C18BF03325FEA0C
:1004A000DC0C18BF033202EBDC02C2F1200300FABD
:1004B00003FC20FA02F001FA03FE40EA0E0021FAE2
:1004C00002F11444BDE600BF70B54FF0FF0C4CF4D0
:1004D000E06C1CEA11541DBF1CEA135594EA0C0F82
:1004E00095EA0C0F00F0DEF82C4481EA030621EABD
:1004F0004C5123EA4C5350EA013518BF52EA0335F8
:1005000041F4801143F4801338D0A0FB02CE4FF0A9
:100510000005E1FB02E506F00042E0FB03E54FF0D9
:100520000006E1FB03569CF0000F18BF4EF0010ED1
:10053000A4F1FF04B6F5007F64F5407404D25FEACD
:100540004E0E6D4146EB060642EAC62141EA555180
:100550004FEAC52040EA5E504FEACE2EB4F1FD0CC2
:1005600088BFBCF5E06F1ED8BEF1004F08BF5FEA40
:10057000500E50F1000041EB045170BD06F00046F2
:1005800046EA010140EA020081EA0301B4EB5C049F
:10059000C2BFD4EB0C0541EA045170BD41F4801197
:1005A0004FF0000E013C00F3AB8014F1360FDEBFBC
:1005B000002001F0004170BDC4F10004203C35DA98
:1005C0000C341BDC04F11404C4F1200500FA05F31B
:1005D00020FA04F001FA05F240EA020001F00042BC
:1005E00021F0004110EBD37021FA04F642EB060132
:1005F0005EEA430E08BF20EAD37070BDC4F10C045C
:10060000C4F1200500FA04F320FA05F001FA04F21F
:1006100040EA020001F0004110EBD37041F100010B
:100620005EEA430E08BF20EAD37070BDC4F1200516
:1006300000FA05F24EEA020E20FA04F301FA05F27E
:1006400043EA020321FA04F001F0004121FA04F226
:1006500020EA020000EBD3705EEA430E08BF20EAF6
:10066000D37070BD94F0000F0FD101F00046400030
:1006700041EB010111F4801F08BF013CF7D041EAB2
:10068000060195F0000F18BF704703F000465200B6
:1006900043EB030313F4801F08BF013DF7D043EA87
:1006A0000603704794EA0C0F0CEA135518BF95EA3D
:1006B0000C0F0CD050EA410618BF52EA4306D1D1C4
:1006C00081EA030101F000414FF0000070BD50EAE3
:1006D000410606BF1046194652EA430619D094EA6D
:1006E0000C0F02D150EA013613D195EA0C0F05D157
:1006F00052EA03361CBF104619460AD181EA0301AB
:1007000001F0004141F0FE4141F470014FF0000062
:1007100070BD41F0FE4141F4780170BD70B54FF0FD
:10072000FF0C4CF4E06C1CEA11541DBF1CEA13557D
:1007300094EA0C0F95EA0C0F00F0A7F8A4EB05045F
:1007400081EA030E52EA03354FEA013100F0888056
:100750004FEA03334FF0805545EA131343EA12631F
:100760004FEA022245EA111545EA10654FEA0026D4
:100770000EF000419D4208BF964244F1FD0404F58D
:10078000407402D25B084FEA3202B61A65EB0305E9
:100790005B084FEA32024FF480104FF4002CB6EBA6
:1007A000020E75EB030E22BFB61A754640EA0C0026
:1007B0005B084FEA3202B6EB020E75EB030E22BF66
:1007C000B61A754640EA5C005B084FEA3202B6EBA7
:1007D000020E75EB030E22BFB61A754640EA9C0066
:1007E0005B084FEA3202B6EB020E75EB030E22BF36
:1007F000B61A754640EADC0055EA060E18D04FEAF4
:10080000051545EA16754FEA06164FEAC30343EA93
:1008100052734FEAC2025FEA1C1CC0D111F4801F60
:100820000BD141EA00014FF000004FF0004CB6E759
:1008300011F4801F04BF01430020B4F1FD0C88BFF8
:10084000BCF5E06F3FF6AFAEB5EB030C04BFB6EB03
:10085000020C5FEA500C50F1000041EB045170BDF6
:100860000EF0004E4EEA113114EB5C04C2BFD4EB23
:100870000C0541EA045170BD41F480114FF0000EA7
:10088000013C90E645EA060E8DE60CEA135594EA23
:100890000C0F08BF95EA0C0F3FF43BAF94EA0C0F26
:1008A0000AD150EA01347FF434AF95EA0C0F7FF49B
:1008B00025AF104619462CE795EA0C0F06D152EAEF
:1008C00003353FF4FDAE1046194622E750EA4106D3
:1008D00018BF52EA43067FF4C5AE50EA41047FF4E4
:1008E0000DAF52EA43057FF4EBAE12E74FEA410247
:1008F000B2F1E04324BFB3F5001CDCF1FE5C0DD97E
:1009000001F0004C4FEAC0024CEA5070B2F1004FC7
:1009100040EB830008BF20F00100704711F0804FCA
:1009200021D113F13872BCBF01F00040704741F48F
:1009300080114FEA5252C2F11802C2F1200C10FA93
:100940000CF320FA02F018BF40F001004FEAC12377
:100950004FEAD32303FA0CFC40EA0C0023FA02F31B
:100960004FEA4303CCE77FEA625307D150EA0133F1
:100970001EBF4FF0FE4040F44000704701F00040C1
:1009800040F0FE4040F40000704700BF80F000409F
:1009900002E000BF81F0004142001FBF5FEA410357
:1009A00092EA030F7FEA226C7FEA236C6AD04FEA57
:1009B0001262D2EB1363C1BFD2184140484041409C
:1009C000B8BF5B42192B88BF704710F0004F40F44E
:1009D000000020F07F4018BF404211F0004F41F46A
:1009E000000121F07F4118BF494292EA030F3FD036
:1009F000A2F1010241FA03FC10EB0C00C3F1200349
:100A000001FA03F100F0004302D5494260EB4000D7
:100A1000B0F5000F13D3B0F1807F06D340084FEA42
:100A2000310102F10102FE2A51D2B1F1004F40EB37
:100A3000C25008BF20F0010040EA0300704749009F
:100A400040EB0000013A28BFB0F5000FEDD2B0FA3C
:100A500080FCACF1080CB2EB0C0200FA0CF0AABF5F
:100A600000EBC25052421843BCBFD04018437047FD
:100A700092F0000F81F4000106BF80F40000013203
:100A8000013BB5E74FEA41037FEA226C18BF7FEADA
:100A9000236C21D092EA030F04D092F0000F08BF1C
:100AA0000846704790EA010F1CBF0020704712F003
:100AB0007F4F04D1400028BF40F00040704712F142
:100AC00000723CBF00F50000704700F0004343F0A7
:100AD000FE4040F4000070477FEA226216BF0846DD
:100AE0007FEA23630146420206BF5FEA412390EAA0
:100AF000010F40F4800070474FF0000304E000BF96
:100B000010F0004348BF40425FEA000C08BF704746
:100B100043F0964301464FF000001CE050EA01020A
:100B200008BF70474FF000030AE000BF50EA01021F
:100B300008BF704711F0004302D5404261EB41010C
:100B40005FEA010C02BF84460146002043F0B64331
:100B500008BFA3F18053A3F50003BCFA8CF2083A56
:100B6000A3EBC25310DB01FA02FC634400FA02FC5F
:100B7000C2F12002BCF1004F20FA02F243EB020066
:100B800008BF20F00100704702F1200201FA02FCC8
:100B9000C2F1200250EA4C0021FA02F243EB0200BB
:100BA00008BF20EADC7070474FF0FF3C06E000BF52
:100BB0004FF0010C02E000BF4FF0010C4DF804CDE6
:100BC0004FEA40024FEA41037FEA226C18BF7FEAF6
:100BD000236C11D001B052EA530C18BF90EA010FF8
:100BE00058BFB2EB030088BFC81738BF6FEAE17087
:100BF00018BF40F0010070477FEA226C02D15FEA23
:100C0000402C05D17FEA236CE4D15FEA412CE1D08E
:100C10005DF8040B704700BF844608466146FFE755
:100C20000FB5FFF7C9FF002848BF10F1000F0FBD37
:100C30004DF808EDFFF7F4FF0CBF012000205DF830
:100C400008FB00BF4DF808EDFFF7EAFF34BF0120B5
:100C500000205DF808FB00BF4DF808EDFFF7E0FF4E
:100C600094BF012000205DF808FB00BF4DF808ED9F
:100C7000FFF7D2FF94BF012000205DF808FB00BF02
:100C80004DF808EDFFF7C8FF34BF012000205DF8E4
:100C900008FB00BF80B588B002AF3B46074A42213F
:100CA000184602F041F9384600230093044B022213
:100CB000002102F055F900BFFDE700BF8C000020C5
:100CC0000000F04180B500AF00F0D8F900F007F85F
:100CD00000F07EF800F04EF8FFF7DCFFFCE780B58F
:100CE00090B000AF07F1180328220021184602F047
:100CF000D7FC3B1D00221A605A609A60DA601A61C4
:100D00000123BB614FF48033FB6100233B6201236D
:100D1000BB6202237B634FF48033BB634FF48013C9
:100D2000FB6307F11803184601F0CAFC0346002BC9
:100D300001D000F09FF80F237B600223BB600023EB
:100D4000FB604FF480633B6100237B613B1D01210D
:100D5000184601F037FF0346002B01D000F08AF857
:100D600000224FF0E061002002F016F800BF40378B
:100D7000BD4680BD80B500AF124B134A1A60114BBF
:100D8000124A5A600F4B00229A600E4B0022DA6022
:100D90000C4B4FF480421A610A4B00225A61094BF6
:100DA00000229A61074B0022DA61064B00221A6288
:100DB000044800F051FC0346002B01D000F05AF823
:100DC00000BF80BD8C00002000540040801A060047
:100DD00080B588B000AF07F1100300221A605A6096
:100DE0009A60DA60204B9B691F4A43F020039361AD
:100DF0001D4B9B6903F02003FB60FB681A4B9B694A
:100E0000194A43F008039361174B9B6903F00803E9
:100E1000BB60BB68144B9B69134A43F004039361A6
:100E2000114B9B6903F004037B607B684FF63873BA
:100E30003B6100237B610023BB6107F1100319466E
:100E40000A4800F085FA4FF480733B6102237B610E
:100E50000223FB6107F110031946054800F078FAF8
:100E600000BF2037BD4680BD00100240000C01408D
:100E70000008014080B400AF72B600BF00BFFDE7BC
:100E800080B485B000AF154B9B69144A43F0010351
:100E90009361124B9B6903F00103BB60BB680F4B6E
:100EA000DB690E4A43F08053D3610C4BDB6903F0DE
:100EB00080537B607B680A4B5B68FB60FB6823F0B8
:100EC000E063FB60FB6843F08063FB60044AFB68FF
:100ED000536000BF1437BD4680BC7047001002400D
:100EE0000000014080B588B000AF786007F11003C2
:100EF00000221A605A609A60DA607B681B68154AA3
:100F0000934223D1144B9B69134A43F00803936126
:100F1000114B9B6903F00803FB60FB68C0233B6136
:100F200012237B610323FB6107F1100319460B4871
:100F300000F00EFA084BDB69074A43F40013D36153
:100F4000054BDB6903F40013BB60BB6800BF2037AF
:100F5000BD4680BD0054004000100240000C01401E
:100F600080B400AF00BFFDE780B400AF00BFFDE775
:100F700080B400AF00BFFDE780B400AF00BFFDE765
:100F800080B400AF00BFFDE780B400AF00BFBD4636
:100F900080BC704780B400AF00BFBD4680BC7047C6
:100FA00080B400AF00BFBD4680BC704780B500AFC5
:100FB00000F0AAF800BF80BD80B586B000AF7860B1
:100FC000144A154BD31A7B617B693B61134B1B6839
:100FD000002B02D1114B124A1A60104B1A687B6821
:100FE00013443A699A4207D202F072FB03460C227C
:100FF0001A604FF0FF3309E0084B1B68FB60074B9A
:101000001A687B681344054A1360FB681846183752
:10101000BD4680BD0050002000040000E00000201C
:101020003002002080B400AF00BFBD4680BC7047D6
:10103000FFF7F8FF0B480C490C4A002302E0D45894
:10104000C4500433C4188C42F9D3094A094C002314
:1010500001E013600432A242FBD302F03FFBFFF732
:1010600031FE704700000020700000204C3800085E
:101070007000002030020020FEE7000080B500AFC5
:10108000084B1B68074A43F010031360032000F06D
:101090002BF90F2000F008F8FFF7F2FE00231846A6
:1010A00080BD00BF0020024080B582B000AF7860F4
:1010B000124B1A68124B1B7819464FF47A73B3FB24
:1010C000F1F3B2FBF3F3184600F035F90346002BB9
:1010D00001D001230EE07B680F2B0AD8002279682B
:1010E0004FF0FF3000F00BF9064A7B6813600023D5
:1010F00000E0012318460837BD4680BD00000020EF
:10110000080000200400002080B400AF054B1B78CD
:101110001A46054B1B681344034A136000BFBD46C3
:1011200080BC704708000020E400002080B400AFBD
:10113000024B1B681846BD4680BC7047E400002087
:1011400080B584B000AF7860FFF7F0FFB8607B68CF
:10115000FB60FB68B3F1FF3F05D00A4B1B781A46D2
:10116000FB681344FB6000BFFFF7E0FF0246BB686B
:10117000D31AFA689A42F7D800BF00BF1037BD46AD
:1011800080BD00BF0800002080B485B000AF78604B
:101190007B6803F00703FB600C4BDB68BB60BA683D
:1011A0004FF6FF031340BB60FB681A02BB68134392
:1011B00043F0BF6343F40033BB60044ABB68D360B1
:1011C00000BF1437BD4680BC704700BF00ED00E093
:1011D00080B400AF044BDB681B0A03F0070318461A
:1011E000BD4680BC704700BF00ED00E080B483B016
:1011F00000AF03463960FB7197F90730002B0ADB1B
:101200003B68DAB20C4997F907301201D2B20B44AD
:1012100083F800230AE03B68DAB20849FB7903F05F
:101220000F03043B1201D2B20B441A7600BF0C37F5
:10123000BD4680BC704700BF00E100E000ED00E06B
:1012400080B489B000AFF860B9607A60FB6803F0E1
:101250000703FB61FB69C3F10703042B28BF0423C9
:10126000BB61FB690433062B02D9FB69033B00E039
:1012700000237B614FF0FF32BB6902FA03F3DA43CC
:10128000BB681A407B699A404FF0FF317B6901FAD5
:1012900003F3D9437B680B40134318462437BD46FC
:1012A00080BC704780B582B000AF78607B68013B3E
:1012B000B3F1807F01D301230FE00A4A7B68013B31
:1012C00053600F214FF0FF30FFF790FF054B0022D6
:1012D0009A60044B07221A60002318460837BD465F
:1012E00080BD00BF10E000E080B582B000AF786044
:1012F0007868FFF749FF00BF0837BD4680BD80B55D
:1013000086B000AF0346B9607A60FB7300237B614F
:10131000FFF75EFF78617A68B9687869FFF790FF38
:10132000024697F90F3011461846FFF75FFF00BFDE
:101330001837BD4680BD80B582B000AF7860786850
:10134000FFF7B0FF034618460837BD4680BD0000D2
:1013500080B48BB000AF7860396000237B620023DB
:101360003B6269E101227B6A02FA03F3FB613B689D
:101370001B68FA691340BB61BA69FB699A4240F085
:1013800058813B685B689A4A93425ED0984A934280
:1013900075D8984A934258D0964A93426FD8964A45
:1013A000934252D0944A934269D8944A93424CD083
:1013B000924A934263D8924A934246D0904A9342CB
:1013C0005DD8122B2AD8122B59D801A252F823F03B
:1013D0004B1400082514000837140008791400087D
:1013E0007F1400087F1400087F1400087F14000891
:1013F0007F1400087F1400087F1400087F14000881
:101400007F1400087F1400087F1400087F14000870
:101410007F1400082D14000841140008794A9342F3
:1014200013D02CE03B68DB683B6229E03B68DB685B
:1014300004333B6224E03B68DB6808333B621FE017
:101440003B68DB680C333B621AE03B689B68002B0F
:1014500002D104233B6213E03B689B68012B05D15A
:1014600008233B627B68FA691A6109E008233B6242
:101470007B68FA695A6103E000233B6200E000BF29
:10148000BB69FF2B01D87B6801E07B6804337B617B
:10149000BB69FF2B02D87B6A9B0002E07B6A083B9A
:1014A0009B003B617B691A680F213B6901FA03F3DA
:1014B000DB431A40396A3B6901FA03F31A437B693B
:1014C0001A603B685B6803F08053002B00F0B1802A
:1014D0004D4B9B694C4A43F0010393614A4B9B6916
:1014E00003F00103BB60BB68484A7B6A9B08023378
:1014F00052F82330FB607B6A03F003039B000F224A
:1015000002FA03F3DB43FA681340FB607B68404A4E
:10151000934213D07B683F4A93420DD07B683E4A8A
:10152000934207D07B683D4A934201D1032306E0F2
:10153000042304E0022302E0012300E000237A6A8E
:1015400002F0030292009340FA681343FB602F49B4
:101550007B6A9B080233FA6841F823203B685B688A
:1015600003F48013002B06D02D4B9A682C49BB69DD
:1015700013438B6006E02A4B9A68BB69DB4328491A
:1015800013408B603B685B6803F40013002B06D0AC
:10159000234BDA682249BB691343CB6006E0204B3A
:1015A000DA68BB69DB431E491340CB603B685B686C
:1015B00003F40033002B06D0194B5A681849BB6955
:1015C00013434B6006E0164B5A68BB69DB43144972
:1015D00013404B603B685B6803F48033002B21D0E1
:1015E0000F4B1A680E49BB6913430B6021E000BF23
:1015F0000000321000003110000022100000211005
:101600000000121000001110001002400000014004
:1016100000080140000C014000100140001401408E
:10162000000401400B4B1A68BB69DB4309491340B6
:101630000B607B6A01337B623B681A687B6A22FA23
:1016400003F3002B7FF48EAE00BF00BF2C37BD46E6
:1016500080BC70470004014080B584B000AF786062
:101660007B68002B01D101232BE17B6893F83D308F
:10167000DBB2002B06D17B68002283F83C2078681F
:10168000FFF730FC7B68242283F83D207B681B68D1
:101690001A687B681B6822F001021A607B681B686D
:1016A0001A687B681B6842F400421A607B681B68FA
:1016B0001A687B681B6822F400421A6001F002FC81
:1016C000F8607B685B68814A934207D8FB68804A70
:1016D000934294BF01230023DBB206E0FB687D4AFE
:1016E000934294BF01230023DBB2002B01D00123DE
:1016F000E7E0FB68784AA2FB03239B0CBB607B6896
:101700001B685B6823F03F017B681B68BA680A436B
:101710005A607B681B681B6A23F03F017B685B682B
:101720006A4A934202D8BB68013309E0BB684FF4B0
:10173000967202FB03F3694AA2FB03239B09013360
:101740007A6812680B4313627B681B68DB6923F4B9
:101750004F4222F0FF027B685B685C498B4219D8DC
:10176000FB68591E7B685B685B00B1FBF3F3591C97
:1017700040F6FC730B40002B0AD0FB68591E7B68B7
:101780005B685B00B1FBF3F30133C3F30B0351E080
:1017900004234FE07B689B68002B11D1FB68581E27
:1017A0007B6859680B465B000B44B0FBF3F30133D5
:1017B000C3F30B03002B0CBF01230023DBB212E0A9
:1017C000FB68581E7B6859680B469B000B449900C8
:1017D0000B44B0FBF3F30133C3F30B03002B0CBF3B
:1017E00001230023DBB2002B01D0012322E07B6820
:1017F0009B68002B0ED1FB68581E7B6859680B460E
:101800005B000B44B0FBF3F30133C3F30B0343F46E
:1018100000430FE0FB68581E7B6859680B469B002D
:101820000B4499000B44B0FBF3F30133C3F30B03F8
:1018300043F44043796809681343CB617B681B68B4
:101840001B6823F0C0017B68DA697B681B6A1A4356
:101850007B681B680A431A607B681B689B6823F4DB
:10186000034323F0FF037A6811697A68D268114351
:101870007A6812680B4393607B681B68DB6823F00F
:10188000FF017B685A697B689B691A437B681B6808
:101890000A43DA607B681B681A687B681B6842F041
:1018A00001021A607B6800221A647B68202283F898
:1018B0003D207B6800221A637B68002283F83E206B
:1018C000002318461037BD4680BD00BFA08601002A
:1018D0007F841E00FF083D0083DE1B43D34D621052
:1018E00080B588B002AFF8607A601A460B467B81FB
:1018F00013463B81FFF71AFC7861FB6893F83D3093
:10190000DBB2202B40F0E0807B6900931923012299
:101910007049F86800F09EFC0346002B01D00223BA
:10192000D3E0FB6893F83C30012B01D10223CCE0DB
:10193000FB68012283F83C20FB681B681B6803F0EE
:101940000103012B07D0FB681B681A68FB681B6842
:1019500042F001021A60FB681B681A68FB681B688A
:1019600022F400621A60FB68212283F83D20FB68A4
:10197000102283F83E20FB6800221A64FB687A6814
:101980005A62FB683A895A85FB685B8D9AB2FB689C
:101990001A85FB68504ADA6279897B693A6AF86885
:1019A00000F008FB0346002B01D001238DE000234B
:1019B0003B61FB681B685B693B61FB681B689B695B
:1019C0003B613B6966E07A69396AF86800F05CFD62
:1019D0000346002B0DD0FB681B6C042B07D1FB6862
:1019E0001B681A68FB681B6842F400721A600123C6
:1019F0006BE0FB685B6A1A78FB681B681A61FB681E
:101A00005B6A5A1CFB685A62FB685B8D9BB2013BA8
:101A10009AB2FB685A85FB681B8D013B9AB2FB6842
:101A20001A85FB681B685B6903F00403042B1BD158
:101A3000FB681B8D002B17D0FB685B6A1A78FB686C
:101A40001B681A61FB685B6A5A1CFB685A62FB6878
:101A50005B8D9BB2013B9AB2FB685A85FB681B8D7C
:101A6000013B9AB2FB681A857A69396AF86800F016
:101A700053FD0346002B0DD0FB681B6C042B07D1D4
:101A8000FB681B681A68FB681B6842F400721A60E6
:101A900001231AE0FB681B8D002B94D1FB681B68A7
:101AA0001A68FB681B6842F400721A60FB68202207
:101AB00083F83D20FB68002283F83E20FB6800226B
:101AC00083F83C20002300E0022318461837BD4667
:101AD00080BD00BF020010000000FFFF80B58CB089
:101AE00002AFF8607A601A460B467B8113463B8151
:101AF00000233B62FFF71AFB7862FB6893F83D30E6
:101B0000DBB2202B40F04B827B6A00931923012229
:101B10007F49F86800F09EFB0346002B01D00223AA
:101B20003EE2FB6893F83C30012B01D1022337E2FF
:101B3000FB68012283F83C20FB681B681B6803F0EC
:101B40000103012B07D0FB681B681A68FB681B6840
:101B500042F001021A60FB681B681A68FB681B6888
:101B600022F400621A60FB68222283F83D20FB68A1
:101B7000102283F83E20FB6800221A64FB687A6812
:101B80005A62FB683A895A85FB685B8D9AB2FB689A
:101B90001A85FB685F4ADA6279897B6A3A6BF86872
:101BA00000F08AFA0346002B01D00123F8E1FB681C
:101BB0001B8D002B13D10023FB61FB681B685B6945
:101BC000FB61FB681B689B69FB61FB69FB681B6829
:101BD0001A68FB681B6842F400721A60CCE1FB686B
:101BE0001B8D012B1ED1FB681B681A68FB681B68E4
:101BF00022F480621A6072B600BF0023BB61FB68EA
:101C00001B685B69BB61FB681B689B69BB61BB6947
:101C1000FB681B681A68FB681B6842F400721A6054
:101C200062B635E0FB681B8D022B1ED1FB681B687A
:101C30001A68FB681B6842F400621A6072B600BF43
:101C400000237B61FB681B685B697B61FB681B6829
:101C50009B697B617B69FB681B681A68FB681B6872
:101C600022F480621A6062B612E0FB681B681A6890
:101C7000FB681B6842F480621A6000233B61FB68CA
:101C80001B685B693B61FB681B689B693B613B6947
:101C900072E1FB681B8D032B00F21F81FB681B8D1B
:101CA000012B23D17A6A396BF86800F07DFC03467A
:101CB000002B01D0012373E1FB681B681A69FB68E4
:101CC0005B6AD2B21A70FB685B6A5A1CFB685A6284
:101CD000FB681B8D013B9AB2FB681A85FB685B8D24
:101CE0009BB2013B9AB2FB685A8545E1FB681B8DAC
:101CF000022B52D17B6A00933B6B00220649F868A5
:101D000000F0A8FA0346002B08D0012348E100BFE9
:101D1000020010000000FFFF0400010072B600BFC7
:101D2000FB681B681A68FB681B6842F400721A6043
:101D3000FB681B681A69FB685B6AD2B21A70FB68A1
:101D40005B6A5A1CFB685A62FB681B8D013B9AB2A6
:101D5000FB681A85FB685B8D9BB2013B9AB2FB68FE
:101D60005A8562B600BFFB681B681A69FB685B6A2C
:101D7000D2B21A70FB685B6A5A1CFB685A62FB6835
:101D80001B8D013B9AB2FB681A85FB685B8D9BB289
:101D9000013B9AB2FB685A85EEE07B6A00933B6B8D
:101DA00000228149F86800F055FA0346002B01D063
:101DB0000123F5E0FB681B681A68FB681B6822F4C6
:101DC00080621A6072B600BFFB681B681A69FB6804
:101DD0005B6AD2B21A70FB685B6A5A1CFB685A6273
:101DE000FB681B8D013B9AB2FB681A85FB685B8D13
:101DF0009BB2013B9AB2FB685A856C4B1B68DB08AF
:101E00006B4AA2FB03231A0A13469B001344DA0011
:101E1000D31A3B623B6A013B3B623B6A002B18D101
:101E2000FB6800221A63FB68202283F83D20FB68D0
:101E3000002283F83E20FB681B6C43F02002FB6805
:101E40001A6462B600BFFB68002283F83C200123BD
:101E5000A6E0FB681B685B6903F00403042BD9D17F
:101E6000FB681B681A68FB681B6842F400721A6002
:101E7000FB681B681A69FB685B6AD2B21A70FB6860
:101E80005B6A5A1CFB685A62FB681B8D013B9AB265
:101E9000FB681A85FB685B8D9BB2013B9AB2FB68BD
:101EA0005A8562B600BFFB681B681A69FB685B6AEB
:101EB000D2B21A70FB685B6A5A1CFB685A62FB68F4
:101EC0001B8D013B9AB2FB681A85FB685B8D9BB248
:101ED000013B9AB2FB685A854EE07A6A396BF86822
:101EE00000F062FB0346002B01D0012358E0FB68A1
:101EF0001B681A69FB685B6AD2B21A70FB685B6A7E
:101F00005A1CFB685A62FB681B8D013B9AB2FB6846
:101F10001A85FB685B8D9BB2013B9AB2FB685A85C0
:101F2000FB681B685B6903F00403042B24D1FB6886
:101F30001B8D032B07D1FB681B681A68FB681B68A5
:101F400022F480621A60FB681B681A69FB685B6A8E
:101F5000D2B21A70FB685B6A5A1CFB685A62FB6853
:101F60001B8D013B9AB2FB681A85FB685B8D9BB2A7
:101F7000013B9AB2FB685A85FB681B8D002B7FF4EE
:101F800088AEFB68202283F83D20FB68002283F89E
:101F90003E20FB68002283F83C20002300E002235F
:101FA00018462837BD4680BD04000100000000200F
:101FB00089B5F81480B588B002AFF8607A603B60EC
:101FC0000B467B81FB68DB6A7B617B69082B06D053
:101FD0007B69012B03D07B6913F5803F08D1FB6837
:101FE0001B681A68FB681B6842F480721A600BE079
:101FF000FB681B6B122B07D1FB681B681A68FB6818
:102000001B6842F480721A603B6800937B68002270
:102010004FF00111F86800F01DF90346002B0DD0B8
:10202000FB681B681B6803F48073B3F5807F03D1E2
:10203000FB684FF400721A64032335E0FB681B69E8
:10204000B3F5804F08D17B89DBB21A46FB681B6869
:1020500002F0FE021A611BE07B89DB11DBB203F0A8
:102060000603DBB263F00F03DAB2FB681B681A6188
:102070003B687A680E49F86800F066F90346002B61
:1020800001D0012310E07B89DAB2FB681B681A617A
:102090003B687A680749F86800F056F90346002B58
:1020A00001D0012300E0002318461837BD4680BD4B
:1020B000080001000200010080B588B002AFF8609E
:1020C0007A603B600B467B81FB68DB6A7B61FB6867
:1020D0001B681A68FB681B6842F480621A607B699F
:1020E000082B06D07B69012B03D07B6913F5803F59
:1020F00008D1FB681B681A68FB681B6842F4807291
:102100001A600BE0FB681B6B112B07D1FB681B6887
:102110001A68FB681B6842F480721A603B6800937F
:102120007B6800224FF00111F86800F093F8034635
:10213000002B0DD0FB681B681B6803F48073B3F59C
:10214000807F03D1FB684FF400721A64032379E0A7
:10215000FB681B69B3F5804F08D17B89DBB243F084
:102160000103DAB2FB681B681A615FE07B89DB114F
:10217000DBB203F00603DBB263F00F03DAB2FB68F5
:102180001B681A613B687A683049F86800F0DCF82F
:102190000346002B01D0012354E07B89DAB2FB68AF
:1021A0001B681A613B687A682949F86800F0CCF826
:1021B0000346002B01D0012344E000233B61FB6870
:1021C0001B685B693B61FB681B689B693B613B6902
:1021D000FB681B681A68FB681B6842F480721A600F
:1021E0003B6800937B6800224FF00111F86800F013
:1021F00031F80346002B0DD0FB681B681B6803F405
:102200008073B3F5807F03D1FB684FF400721A64CA
:10221000032317E07B89DB11DBB203F00603DBB29B
:1022200063F00E03DAB2FB681B681A613B687A68D8
:102230000749F86800F088F80346002B01D0012315
:1022400000E0002318461837BD4680BD0800010095
:102250000200010080B584B000AFF860B9603B6057
:102260001346FB7148E03B68B3F1FF3F44D0FEF7F3
:102270005DFF0246BB69D31A3A689A4202D33B68B3
:10228000002B39D1BB681B0CDBB2012B0DD1FB68D5
:102290001B685B69DA43BB6813409BB2002B0CBF21
:1022A00001230023DBB21A460CE0FB681B689B6924
:1022B000DA43BB6813409BB2002B0CBF0123002301
:1022C000DBB21A46FB799A4216D1FB6800221A63E8
:1022D000FB68202283F83D20FB68002283F83E2023
:1022E000FB681B6C43F02002FB681A64FB68002249
:1022F00083F83C20012323E0BB681B0CDBB2012BDD
:102300000DD1FB681B685B69DA43BB6813409BB265
:10231000002B0CBF01230023DBB21A460CE0FB6844
:102320001B689B69DA43BB6813409BB2002B0CBF50
:1023300001230023DBB21A46FB799A4293D0002393
:1023400018461037BD4680BD80B584B000AFF86038
:10235000B9607A603B6071E0FB681B685B6903F4FD
:102360008063B3F5806F23D1FB681B681A68FB6834
:102370001B6842F400721A60FB681B686FF480628D
:102380005A61FB6800221A63FB68202283F83D2013
:10239000FB68002283F83E20FB681B6C43F00402BC
:1023A000FB681A64FB68002283F83C20012367E085
:1023B0007B68B3F1FF3F41D0FEF7B8FE02463B68B1
:1023C000D31A7A689A4202D37B68002B36D1BB6855
:1023D0001B0CDBB2012B0CD1FB681B685B69DA4379
:1023E000BB6813409BB2002B14BF01230023DBB258
:1023F0000BE0FB681B689B69DA43BB6813409BB228
:10240000002B14BF01230023DBB2002B16D0FB6886
:1024100000221A63FB68202283F83D20FB6800221B
:1024200083F83E20FB681B6C43F02002FB681A64B3
:10243000FB68002283F83C20012321E0BB681B0CD1
:10244000DBB2012B0CD1FB681B685B69DA43BB680C
:1024500013409BB2002B14BF01230023DBB20BE01F
:10246000FB681B689B69DA43BB6813409BB2002B77
:1024700014BF01230023DBB2002B7FF46DAF0023D8
:1024800018461037BD4680BD80B584B000AFF860F7
:10249000B9607A6034E0F86800F0E3F80346002B96
:1024A00001D0012334E0BB68B3F1FF3F28D0FEF731
:1024B0003DFE02467B68D31ABA689A4202D3BB68D3
:1024C000002B1DD1FB681B685B6903F08003802B28
:1024D00016D0FB6800221A63FB68202283F83D2097
:1024E000FB68002283F83E20FB681B6C43F020024F
:1024F000FB681A64FB68002283F83C20012307E094
:10250000FB681B685B6903F08003802BC3D1002349
:1025100018461037BD4680BD80B584B000AFF86066
:10252000B9607A6034E0F86800F09BF80346002B4D
:1025300001D0012334E0BB68B3F1FF3F28D0FEF7A0
:10254000F5FD02467B68D31ABA689A4202D3BB688B
:10255000002B1DD1FB681B685B6903F00403042B8F
:1025600016D0FB6800221A63FB68202283F83D2006
:10257000FB68002283F83E20FB681B6C43F02002BE
:10258000FB681A64FB68002283F83C20012307E003
:10259000FB681B685B6903F00403042BC3D10023B1
:1025A00018461037BD4680BD80B584B000AFF860D6
:1025B000B9607A6049E0FB681B685B6903F010034F
:1025C000102B19D1FB681B686FF010025A61FB6871
:1025D00000221A63FB68202283F83D20FB6800225A
:1025E00083F83E20FB681A6CFB681A64FB680022C3
:1025F00083F83C20012330E0FEF798FD02467B681B
:10260000D31ABA689A4202D3BB68002B1DD1FB686B
:102610001B685B6903F04003402B16D0FB68002267
:102620001A63FB68202283F83D20FB68002283F8B0
:102630003E20FB681B6C43F02002FB681A64FB68B9
:10264000002283F83C20012307E0FB681B685B69DC
:1026500003F04003402BAED1002318461037BD468F
:1026600080BD80B483B000AF78607B681B685B6915
:1026700003F48063B3F5806F1BD17B681B686FF434
:1026800080625A617B6800221A637B68202283F88B
:102690003D207B68002283F83E207B681B6C43F062
:1026A00004027B681A647B68002283F83C200123C3
:1026B00000E0002318460C37BD4680BC7047000080
:1026C00080B586B000AF78607B68002B01D1012314
:1026D00072E27B681B6803F00103002B00F0878027
:1026E000924B5B6803F00C03042B0CD08F4B5B68A0
:1026F00003F00C03082B12D18C4B5B6803F480337E
:10270000B3F5803F0BD1894B1B6803F40033002BDA
:102710006CD07B685B68002B68D101234CE27B683E
:102720005B68B3F5803F06D1804B1B687F4A43F45A
:10273000803313602EE07B685B68002B0CD17B4BF1
:102740001B687A4A23F480331360784B1B68774AFE
:1027500023F4802313601DE07B685B68B3F5A02F32
:102760000CD1724B1B68714A43F4802313606F4B8A
:102770001B686E4A43F4803313600BE06B4B1B689D
:102780006A4A23F480331360684B1B68674A23F45A
:10279000802313607B685B68002B13D0FEF7C6FCB8
:1027A000386108E0FEF7C2FC02463B69D31A642B8D
:1027B00001D9032300E25D4B1B6803F40033002BB7
:1027C000F0D014E0FEF7B2FC386108E0FEF7AEFC92
:1027D00002463B69D31A642B01D90323ECE1534B26
:1027E0001B6803F40033002BF0D100E000BF7B68CE
:1027F0001B6803F00203002B63D04C4B5B6803F0B3
:102800000C03002B0BD0494B5B6803F00C03082B27
:102810001CD1464B5B6803F48033002B16D1434B2D
:102820001B6803F00203002B05D07B681B69012B9A
:1028300001D00123C0E13D4B1B6823F0F8027B6807
:102840005B69DB00394913430B603AE07B681B6925
:10285000002B20D0364B01221A60FEF767FC38614E
:1028600008E0FEF763FC02463B69D31A022B01D94C
:102870000323A1E12D4B1B6803F00203002BF0D0D2
:102880002A4B1B6823F0F8027B685B69DB00274951
:1028900013430B6015E0264B00221A60FEF746FC3E
:1028A000386108E0FEF742FC02463B69D31A022B6E
:1028B00001D9032380E11D4B1B6803F00203002BA9
:1028C000F0D17B681B6803F00803002B3AD07B68CB
:1028D0009B69002B19D0174B01221A60FEF726FCCA
:1028E000386108E0FEF722FC02463B69D31A022B4E
:1028F00001D9032360E10D4B5B6A03F00203002B57
:10290000F0D0012000F0F2FA1CE00A4B00221A601D
:10291000FEF70CFC38610FE0FEF708FC02463B694D
:10292000D31A022B08D9032346E100BF001002404E
:102930000000424280044242924B5B6A03F0020371
:10294000002BE9D17B681B6803F00403002B00F027
:10295000A6800023FB758B4BDB6903F08053002BB3
:102960000DD1884BDB69874A43F08053D361854B97
:10297000DB6903F08053BB60BB680123FB75824BAE
:102980001B6803F48073002B18D17F4B1B687E4AB1
:1029900043F480731360FEF7C9FB386108E0FEF76B
:1029A000C5FB02463B69D31A642B01D9032303E11B
:1029B000754B1B6803F48073002BF0D07B68DB68D9
:1029C000012B06D16F4B1B6A6E4A43F00103136261
:1029D0002DE07B68DB68002B0CD16A4B1B6A694ACF
:1029E00023F001031362674B1B6A664A23F004035A
:1029F00013621CE07B68DB68052B0CD1614B1B6A02
:102A0000604A43F0040313625E4B1B6A5D4A43F065
:102A1000010313620BE05B4B1B6A5A4A23F001036C
:102A20001362584B1B6A574A23F0040313627B68F6
:102A3000DB68002B15D0FEF779FB38610AE0FEF762
:102A400075FB02463B69D31A41F28832934201D9A1
:102A50000323B1E04B4B1B6A03F00203002BEED0C3
:102A600014E0FEF763FB38610AE0FEF75FFB024605
:102A70003B69D31A41F28832934201D903239BE088
:102A8000404B1B6A03F00203002BEED1FB7D012BB0
:102A900005D13C4BDB693B4A23F08053D3617B6813
:102AA000DB69002B00F08780364B5B6803F00C037A
:102AB000082B61D07B68DB69022B46D1334B0022A7
:102AC0001A60FEF733FB386108E0FEF72FFB024681
:102AD0003B69D31A022B01D903236DE0294B1B68F4
:102AE00003F00073002BF0D17B681B6AB3F5803FC5
:102AF00008D1244B5B6823F400327B689B68214932
:102B000013434B601F4B5B6823F474127B68196A94
:102B10007B685B6A0B431B4913434B601B4B0122D1
:102B20001A60FEF703FB386108E0FEF7FFFA024681
:102B30003B69D31A022B01D903233DE0114B1B68DB
:102B400003F00073002BF0D035E0104B00221A6028
:102B5000FEF7ECFA386108E0FEF7E8FA02463B6956
:102B6000D31A022B01D9032326E0064B1B6803F07E
:102B70000073002BF0D11EE07B68DB69012B07D1CD
:102B8000012319E000100240007000406000424242
:102B90000B4B5B68FB60FB6803F480327B681B6A4D
:102BA0009A4206D1FB6803F470127B685B6A9A4212
:102BB00001D0012300E0002318461837BD4680BD30
:102BC0000010024080B584B000AF786039607B6847
:102BD000002B01D10123D0E06A4B1B6803F00703EF
:102BE0003A689A4210D9674B1B6823F0070265497F
:102BF0003B6813430B60634B1B6803F007033A68A1
:102C00009A4201D00123B8E07B681B6803F00203FD
:102C1000002B20D07B681B6803F00403002B05D039
:102C2000594B5B68584A43F4E06353607B681B6808
:102C300003F00803002B05D0534B5B68524A43F462
:102C400060535360504B5B6823F0F0027B689B68D5
:102C50004D4913434B607B681B6803F00103002B55
:102C600040D07B685B68012B07D1474B1B6803F49E
:102C70000033002B15D101237FE07B685B68022BBA
:102C800007D1414B1B6803F00073002B09D10123CE
:102C900073E03D4B1B6803F00203002B01D10123BD
:102CA0006BE0394B5B6823F003027B685B68364955
:102CB00013434B60FEF73AFAF8600AE0FEF736FA83
:102CC0000246FB68D31A41F28832934201D90323AA
:102CD00053E02D4B5B6803F00C027B685B689B0044
:102CE0009A42EBD1274B1B6803F007033A689A42DC
:102CF00010D2244B1B6823F0070222493B68134380
:102D00000B60204B1B6803F007033A689A4201D01E
:102D1000012332E07B681B6803F00403002B08D01A
:102D2000194B5B6823F4E0627B68DB681649134348
:102D30004B607B681B6803F00803002B09D0124B23
:102D40005B6823F460527B681B69DB000E49134308
:102D50004B6000F059F802460B4B5B681B0903F00F
:102D60000F030A49CB5C22FA03F3094A1360094BAB
:102D70001B681846FEF798F9002318461037BD4621
:102D800080BD00BF00200240001002404037000814
:102D9000000000200400002080B58AB000AFF86079
:102DA000B9607A6007F1180300221A605A609A60CD
:102DB000DA600223FB6103237B6200233B624FF452
:102DC0008073BB610E4B9B690D4A43F00403936112
:102DD0000B4B9B6903F004037B617B6907F11803CC
:102DE00019460848FEF7B4FA054B5B6823F0E06229
:102DF0000349BB6813434B6000BF2837BD4680BD05
:102E0000001002400008014080B487B000AF0023EA
:102E1000FB600023BB6000237B6100237B600023F9
:102E20003B611E4B5B68FB60FB6803F00C03042BEB
:102E300002D0082B03D027E0194B3B6127E0FB6849
:102E40009B0C03F00F03174AD35C7B60FB6803F411
:102E50008033002B10D0114B5B685B0C03F0010337
:102E6000114AD35CBB607B680D4A03FB02F2BB686E
:102E7000B2FBF3F37B6104E07B680C4A02FB03F3D3
:102E80007B617B693B6102E0054B3B6100BF3B69B5
:102E900018461C37BD4680BC704700BF001002407A
:102EA00000127A00583700086837000800093D0012
:102EB00080B400AF024B1B681846BD4680BC70470B
:102EC0000000002080B500AFFFF7F2FF0246054B7F
:102ED0005B681B0A03F007030349CB5C22FA03F388
:102EE000184680BD001002405037000880B485B0FD
:102EF00000AF78600A4B1B680A4AA2FB03235B0AF7
:102F00007A6802FB03F3FB6000BFFB685A1EFA609D
:102F1000002BF9D100BF00BF1437BD4680BC7047FD
:102F200000000020D34D621080B485B000AFF8607F
:102F30000B467A60FB72FB7A03F07F03DAB2FB6820
:102F40001A70FB687A685A60FB6800229A60FB6816
:102F50000022DA60FB6818461437BD4680BC704713
:102F600080B584B000AFF8607B600B46FB721346FF
:102F7000BB72BB7A4FF4207242FA03F39AB2FB6839
:102F80001A82BB7A4FF4F07242FA03F39AB2FB68EA
:102F90005A82FB68FA7A1A75BB69002B03D1FB6869
:102FA0001B8A5B0000E0BB69FA68D360FB68DB68E2
:102FB000184600F0BFFA03461A46FB689A60FB68A1
:102FC0009B68002B04D1FB680022DA60012307E034
:102FD000B97AFB7A7A68184600F06CF8034600BFAD
:102FE00018461037BD4680BD80B586B002AF034697
:102FF000FB71FA1D4FF0FF33009301234221094872
:10300000FEF76EFC07F10F024FF0FF330093012330
:1030100042210448FEF762FDFB7B18461037BD468F
:1030200080BD00BF8C00002080B584B002AF034695
:103030000A46FB711346BB71FA1D4FF0FF33009334
:10304000012342210748FEF74BFCBA1D4FF0FF3326
:103050000093012342210348FEF742FC00BF0837DA
:10306000BD4680BD8C00002080B584B000AF786084
:103070000023FB6012E0FB685B007A681344187859
:10308000FB685B007A6813445B781946FFF7CCFF56
:103090000120FEF755F8FB680133FB60FB685B001D
:1030A0007A6813441B78C92BE5D900BF00BF1037DD
:1030B000BD4680BD80B582B000AF03463A60FB716B
:1030C0000B46BB7180211220FFF7AEFF0120FEF7F7
:1030D00037F8386800F020F8FB79002B03D10B4853
:1030E000FFF7C2FF02E00A48FFF7BEFF0948FFF7FB
:1030F000BBFFBB79184600F0F7F94FF49670FEF766
:103100001FF8002318460837BD4680BD6C370008FD
:10311000743700087C37000880B58CB000AF786049
:10312000042387F8253078497868FDF7A9FD034620
:10313000002B01D0744B00E07B687B607868FDF762
:103140006BF96FA3D3E90023FDF7BEF902460B46E6
:10315000104619464FF000026C4BFDF7DFFA0246AD
:103160000B4610461946FDF7C1FB03463B62684B10
:10317000FB61F869FDF7C0FC03461946386AFDF7A4
:1031800061FD0346002B14D000216B20FFF74CFF9C
:103190001F211120FFF748FFFA6913469B001344D3
:1031A0005C4AA2FB03231B0D1846FDF7A5FC034652
:1031B000A1E0002387F82F30012387F82E30524BEF
:1031C000BB62002387F8273069E097F82730524A1E
:1031D000D35C1A46514B02FB03F3BB6197F82730CF
:1031E000002B01D0022300E00123FB75FB7D87F853
:1031F00026304BE097F82630BA69B2FBF3F33B6117
:103200003869FDF779FC03461946386AFDF71AFD5F
:103210000346002B34D13869FDF76EFC034618468F
:10322000FDF7FAF84FF00002384BFDF74DF9024672
:103230000B461046194632A3D3E90023FDF76EFA78
:1032400002460B4610461946FDF750FB0346FB604D
:10325000F9687868FDF79EFB0346BB60B96AB868F9
:10326000FDF7F0FC0346002B0BD0BB68BB6297F860
:10327000273087F82F3097F8263087F82E3000E077
:1032800000BF97F82630013387F8263097F82630AC
:10329000202BAFD997F82730013387F8273097F8DC
:1032A000272097F825309A428FD397F82F301A4A63
:1032B000D35C97F82E209A4208D100216B20FFF7AB
:1032C000B3FE40211120FFF7AFFE0FE097F82F303B
:1032D0009B01DBB219466B20FFF7A6FE97F82E3054
:1032E000013BDBB219461120FFF79EFEB96A7868F0
:1032F000FDF750FB034618463037BD4680BD00BF82
:103300000000000080844E410000F04100001440A5
:10331000B0710B0083DE1B434038000800366E019D
:1033200090B585B000AF0446084611461A462346BC
:10333000FB710346BB710B46BB801346FB70FB79E8
:10334000002B01D0042300E00023FB73FB79042B46
:1033500003D1FB7B43F00803FB73FB7B19460C2076
:10336000FFF762FEFB79002B03D0FB791833DBB249
:1033700000E00023FB73FB7B19463E20FFF754FE61
:10338000FB79032B28BF0323FB73FB7B1A46120137
:103390001344DBB219467220FFF746FEFB79002B7F
:1033A00003D0FB79103BDBB200E00823FB73FB7B0F
:1033B00019467320FFF738FEFB79042B01D1402317
:1033C00000E02023FB737020FFF70EFE0346BB7363
:1033D0007120FFF709FE03467B7397F90E3023F047
:1033E0007F035AB297F90F3013435BB2BB7397F95F
:1033F0000D3023F07F035AB297F90F3013435BB2BD
:103400007B73BB7B19467020FFF70EFE7B7B194652
:103410007120FFF709FEBB799BB203F5F0737B8146
:10342000BB8803F520732F4A82FB03121112DA17AF
:103430008A1A4FF4447101FB02F29A1A13463B8137
:10344000BB88DB089BB2DBB219461720FFF7ECFD07
:103450003B89DB089BB2DBB219461820FFF7E4FD7D
:10346000FB789B015AB23B89DB005BB203F0380367
:103470005BB213435AB2BB885BB203F007035BB283
:1034800013435BB2DBB219463220FFF7CDFDBB79A7
:103490009B08DBB219461920FFF7C6FD7B899B0804
:1034A0009BB2DBB219461A20FFF7BEFD7B899B0059
:1034B0005BB203F00C035AB297F9063003F0030332
:1034C0005BB213435BB2DBB219460320FFF7ACFDDE
:1034D00097F820301946A220FFF7A6FD00BF143749
:1034E000BD4690BD9D82975390B585B002AF03460F
:1034F000FB71FB790E4A12F82310FB790C4A9B00F2
:1035000013445B781C46FB79094A9B0013449A7864
:10351000FB7907489B000344DB78F8790093134656
:103520002246FFF7FDFE00BF0C37BD4690BD00BF31
:103530000C000020024B0146186800F025B800BFBF
:103540002000002070B50F4E0C463168054611B9B9
:1035500000F0AEF830602146284600F0A9F8431C80
:1035600003D14FF0FF34204670BDC41C24F0030487
:10357000A042F8D0211A284600F09AF80130F2D182
:10358000EFE700BFE80000202DE9F843CD1C25F04F
:10359000030508350C2D38BF0C25002D064601DB30
:1035A000A94204D90C2333600020BDE8F883DFF87A
:1035B000D48000F069F8D8F800301C4644BB294696
:1035C0003046FFF7BFFF431C044658D1D8F80040EF
:1035D0002746002F43D1002C4BD023683946304674
:1035E00004EB030900F064F8814542D121683046BC
:1035F0006D1A2946FFF7A6FF01303AD023682B4405
:103600002360D8F800305A6862BBC8F800700FE039
:103610002268521B20D40B2A17D96119A3422560B6
:1036200018BF5960636808BFC8F8001062514B604A
:10363000304600F02FF804F10B00231D20F00700A6
:10364000C21A1CBF1B1AA350AFE76268A3420CBF8B
:10365000C8F800205A60EBE723466468AEE73C46B2
:103660007F68B6E71A465B68A342FBD1002353602C
:10367000DEE70C233046336000F00CF894E7056079
:10368000D6E700BFEC000020014800F04BB800BFB7
:103690002C020020014800F046B800BF2C02002098
:1036A00003460244934200D1704703F8011BF9E737
:1036B00038B50023054D044608462B60FDF77CFC19
:1036C000431C02D12B6803B1236038BD28020020BF
:1036D000014B1868704700BF2000002070B500261D
:1036E0000C4D0D4C641BA410A64209D100F01CF82F
:1036F00000260A4D0A4C641BA410A64205D170BDD9
:1037000055F8043B98470136EEE755F8043B9847D7
:103710000136F2E74438000844380008443800080D
:103720004838000870477047F8B500BFF8BC08BCBF
:103730009E467047F8B500BFF8BC08BC9E4670476F
:103740000000000000000000010203040607080951
:103750000000000001020304020304050607080933
:103760000A0B0C0D0E0F10100102000012048C0049
:1037700040D0FFFF120040C0FFFF00003A041502D6
:103780007A207B1C7C287D3C7E557F6880768180FA
:103790008288838F849685A386AF87C488D789E87B
:1037A00013E0000010000D001420A505AB072475E0
:1037B000256326A59F78A068A103A6DFA7DFA8F050
:1037C000A990AA9413E50E610F4B16021E07210261
:1037D00022912907330B350B371D3871392A3C7874
:1037E0004D404E20695D74198D4F8E008F00900002
:1037F0009100920096009A80B084B10CB20EB38210
:10380000B80A431444F0453446584728483A598882
:103810005A885B445C675D495E0E640465206605FA
:10382000940495086C0A6D554F80508051005222C7
:10383000535E54806E116F9F550056405780CA00EA
:043840000104060871
:043844003501000842
:043848001101000862
:10384C0000127A00100000000100000009A2020220
:10385C000AAE04020BBA02020CD200020FFC0302E5
:10386C002400002000000000F0000020580100207F
:10387C00C00100200000000000000000000000005B
:10388C00000000000000000000000000000000002C
:10389C00000000000000000000000000000000001C
:1038AC00000000000000000000000000000000000C
:0400000508001031AE
:00000001FF
