:020000040800F2
:10000000005000209D110008CD100008D5100008F8
:10001000DD100008E5100008ED10000800000000E9
:10002000000000000000000000000000F5100008C3
:1000300001110008000000000D110008191100084E
:10004000E5110008E5110008E5110008E5110008B8
:10005000E5110008E5110008E5110008E5110008A8
:10006000E5110008E5110008E5110008E511000898
:10007000E5110008E5110008E5110008E511000888
:10008000E5110008E5110008E5110008E511000878
:10009000E5110008E5110008E5110008E511000868
:1000A000E5110008E5110008E5110008E511000858
:1000B000E5110008E5110008E5110008E511000848
:1000C000E5110008E5110008E5110008E511000838
:1000D000E5110008E5110008E5110008E511000828
:1000E000E5110008E5110008E51100080000000016
:1000F0000000000000000000000000000000000000
:0C01000000000000000000005FF808F1A3
:10010C0010B5054C237833B9044B13B10448AFF345
:10011C0000800123237010BD64000020000000004B
:10012C004441000808B5034B1BB103490348AFF326
:10013C00008008BD00000000680000204441000859
:10014C0080B586B002AF01F049F800F041FA00F03A
:10015C0025FB00F091FA00F0BDFA00F063FB07F10B
:10016C00080300210A461A800A469A700023FB7382
:10017C000023BB7300237B7300233B730123009389
:10018C003C233C220221012000F0B7FE0123009306
:10019C003C233C220221432000F0AFFE07F1080370
:1001AC0001221946A34802F04FFE7B7AFA7B9A4251
:1001BC0000F0F6807B7B002B41D17B7A1A463B46C4
:1001CC009D49184603F008FB0E21442000F058FD11
:1001DC0038460023009301230122984900F00CFDBE
:1001EC00FA7B3B1D9449184603F0F6FA0E21442085
:1001FC0000F046FD381D00230093022301228F4995
:10020C0000F0FAFC8D4B5B789B08DBB20E339BB293
:10021C001946442000F034FD381D002300930123BF
:10022C000222864900F0E8FC7B7B01335A4203F042
:10023C00030302F0030258BF53427B73B0E07B7B95
:10024C00012B46D17B7A1A463B467B49184603F074
:10025C00C3FA0E21442000F013FD3846002300930E
:10026C0001230122754900F0C7FCFA7B3B1D724942
:10027C00184603F0B1FA0E21442000F001FD381DA0
:10028C0000230093022301226C4900F0B5FC6B4B58
:10029C005B786B4AA2FB03239B08DBB207339BB250
:1002AC005B009BB21946442000F0EAFC381D002389
:1002BC00009301230322614900F09EFC7B7B0133F8
:1002CC005A4203F0030302F0030258BF53427B73FC
:1002DC0066E07B7B022B41D17B7A1A463B46564922
:1002EC00184603F079FA0E21442000F0C9FC384678
:1002FC000023009301230122504900F07DFCFA7B7E
:10030C003B1D4D49184603F067FA0E21442000F0BE
:10031C00B7FC381D0023009302230122474900F04B
:10032C006BFC464B5B789B08DBB20E339BB21946D9
:10033C00442000F0A5FC384600230093022302223F
:10034C003E4900F059FC7B7B01335A4203F0030316
:10035C0002F0030258BF53427B7321E07B7B032BDB
:10036C001ED17B7A1A463B463349184603F034FAC1
:10037C000E21442000F084FC384600230093032314
:10038C0001222E4900F038FC7B7AFB737B7B013316
:10039C005A4203F0030302F0030258BF53427B732B
:1003AC003B7ABA7B9A4200F0FE803B7B002B49D112
:1003BC003B7A1A463B462049184603F00DFA0E21AB
:1003CC00032000F05DFC384600230093012301223A
:1003DC001A4900F011FCBA7B3B1D1749184603F073
:1003EC00FBF90E21032000F04BFC381D0023009379
:1003FC0002230122114900F0FFFB104B5B789B0894
:10040C00DBB20E339BB21946032000F039FC381DC9
:10041C000023009301230222084900F0EDFB3B7BF3
:10042C0001335A4203F0030302F0030258BF534254
:10043C003B73B8E0D40000205C41000800000020B1
:10044C00ABAAAAAA3B7B012B46D13B7A1A463B4668
:10045C005C49184603F0C0F90E21032000F010FC93
:10046C0038460023009301230122574900F0C4FBB6
:10047C00BA7B3B1D5349184603F0AEF90E210320FD
:10048C0000F0FEFB381D00230093022301224E498D
:10049C0000F0B2FB4C4B5B784C4AA2FB03239B084D
:1004AC00DBB207339BB25B009BB21946032000F012
:1004BC00E7FB381D0023009301230322424900F07F
:1004CC009BFB3B7B01335A4203F0030302F0030214
:1004DC0058BF53423B7366E03B7B022B41D13B7AC6
:1004EC001A463B463749184603F076F90E2103208D
:1004FC0000F0C6FB38460023009301230122324949
:10050C0000F07AFBBA7B3B1D2E49184603F064F9C8
:10051C000E21032000F0B4FB381D002300930223AE
:10052C000122294900F068FB274B5B789B08DBB262
:10053C000E339BB21946032000F0A2FB3846002371
:10054C00009302230222204900F056FB3B7B01332F
:10055C005A4203F0030302F0030258BF53423B73A9
:10056C0021E03B7B032B1ED13B7A1A463B461549B7
:10057C00184603F031F90E21032000F081FB3846B8
:10058C0000230093032301220F4900F035FB3B7A33
:10059C00BB733B7B01335A4203F0030302F00302AB
:1005AC0058BF53423B73002300931F237F221F210C
:1005BC00002000F0BBFB00F079FB642000F070FE23
:1005CC00ECE500BF5C41000800000020ABAAAAAA21
:1005DC0080B594B000AF07F12803282200211846FB
:1005EC0003F01AF907F1140300221A605A609A609A
:1005FC00DA601A613B1D00221A605A609A60DA6058
:10060C000623BB6201237B630123BB631023FB63C3
:10061C0000237B6407F12803184601F075FD03469F
:10062C00002B01D000F0DCF80F237B610023BB61B1
:10063C000023FB6100233B6200237B6207F1140360
:10064C000021184601F0E2FF0346002B01D000F018
:10065C00C7F801237B604FF48073BB603B1D1846C9
:10066C0002F062F90346002B01D000F0B9F800BF8C
:10067C005037BD4680BD000080B500AF124B134A09
:10068C001A60114B124A5A600F4B00229A600E4BA3
:10069C000022DA600C4B4FF480421A610A4B0022A4
:1006AC005A61094B00229A61074B0022DA61064B12
:1006BC0000221A62044801F07FF80346002B01D097
:1006CC0000F08EF800BF80BD800000200054004078
:1006DC00801A060080B584B000AF07F10C0300212E
:1006EC000A461A800A469A700023BB603B460022D9
:1006FC001A605A60274B284A1A60264B4FF0FF327B
:10070C005A60244B4FF480729A60224802F078FAB7
:10071C000346002B01D000F063F818233B735923D8
:10072C007B730023BB7307F10C0301221946194894
:10073C0002F0F2FA0346002B01D000F051F8062328
:10074C003B7205237B721823BB722423FB7207F1C7
:10075C000803012219460F4802F04EFC0346002BF9
:10076C0001D000F03DF800233B7000237B70002388
:10077C00BB7000237B603B4601221946054802F002
:10078C00F1FC0346002B01D000F02AF800BF103713
:10079C00BD4680BDD40000200028004080B483B04A
:1007AC0000AF0E4B9B690D4A43F0100393610B4B4A
:1007BC009B6903F010037B607B68084B9B69074ABD
:1007CC0043F008039361054B9B6903F008033B60FE
:1007DC003B6800BF0C37BD4680BC70470010024020
:1007EC0080B400AF72B600BF00BFFDE780B586B025
:1007FC0002AF0346FB710B46BB7113467B71BB7991
:10080C003B737B797B7307F10C020A230093022361
:10081C007821034801F014F900BF1037BD4680BDA4
:10082C008000002080B500AFA82280217820FFF73F
:10083C00DDFF3F2280217820FFF7D8FFD3228021D3
:10084C007820FFF7D3FF002280217820FFF7CEFF1E
:10085C00A12280217820FFF7C9FFC82280217820AF
:10086C00FFF7C4FFDA2280217820FFF7BFFF1222A6
:10087C0080217820FFF7BAFF812280217820FFF7B2
:10088C00B5FF7F2280217820FFF7B0FFA4228021C2
:10089C007820FFF7ABFFD52280217820FFF7A6FF49
:1008AC00F02280217820FFF7A1FF8D228021782073
:1008BC00FFF79CFF142280217820FFF797FF20225E
:1008CC0080217820FFF792FF002280217820FFF70B
:1008DC008DFFAF2280217820FFF788FF002000F0E9
:1008EC00B7F900F0E3F9064B00221A80044B002202
:1008FC005A80034B01225A710123184680BD00BF58
:10090C00E800002080B483B000AF0346FB800B46A8
:10091C00BB801346FB70FB887F2B48D8BB883F2BD2
:10092C0045D8254B1B79002B06D0FB78002B0CBF30
:10093C0001230023DBB2FB70FB78012B1AD1FA8860
:10094C00BB88DB0898B20346DB0113441B4AD35C1B
:10095C005AB2BB8803F00703012101FA03F35BB21F
:10096C00134359B2FA880346DB011344C9B2134A44
:10097C00D1541DE0FA88BB88DB0898B20346DB0132
:10098C0013440E4AD35C5AB2BB8803F0070301210F
:10099C0001FA03F35BB2DB435BB2134059B2FA8842
:1009AC000346DB011344C9B2044AD15400E000BF32
:1009BC000C37BD4680BC7047E8000020F0000020DA
:1009CC0080B586B000AF396011461A460346FB71FC
:1009DC000B46BB7113467B71864B1B881A463B68D2
:1009EC001B7813447F2B07DC824B5B881A463B68D1
:1009FC005B7813443F2B01DD0023F7E03B681B7849
:100A0C000733002B00DA0733DB10DB00013B01223C
:100A1C0002FA03F3FB6000237B6154E07B7903F063
:100A2C000103002B5BD03B685A68FB79303B39687B
:100A3C00497801FB03F31846BB79796901FB03F391
:100A4C0003449B0013441B68BB6000233B6131E0F3
:100A5C00BA683B699A40FB681340002B11D0654B78
:100A6C001A883B699BB2134498B2624B5A887B69D3
:100A7C009BB213449BB297F820201946FFF742FF14
:100A8C0015E05C4B1A883B699BB2134498B2594BE6
:100A9C005A887B699BB2134499B297F82030002B8B
:100AAC000CBF01230023DBB21A46FFF72BFF3B6977
:100ABC0001333B613B681B781A463B699342C7D3B1
:100ACC007B6901337B613B685B781A46BB795B00C1
:100ADC0092FBF3F31A467B6993429FD300E000BF6D
:100AEC003B685B781A46BB795B0092FBF3F37B6146
:100AFC0054E07B7903F00203002B5AD03B685A6810
:100B0C00FB79303B3968497801FB03F31846BB7914
:100B1C00796901FB03F303449B0013441B68BB601E
:100B2C0000233B6131E0BA683B699A40FB68134093
:100B3C00002B11D02F4B1A883B699BB2134498B2EF
:100B4C002C4B5A887B699BB213449BB297F820209C
:100B5C001946FFF7D7FE15E0264B1A883B699BB266
:100B6C00134498B2234B5A887B699BB2134499B2B5
:100B7C0097F82030002B0CBF01230023DBB21A4660
:100B8C00FFF7C0FE3B6901333B613B681B781A469B
:100B9C003B699342C7D37B6901337B613B685A78CD
:100BAC00BB79B2FBF3F3DBB21A467B699342A0D359
:100BBC0000E000BF0F4B1B883A68127813449AB2BE
:100BCC000C4B1A800B4B1B881A463B681B78134442
:100BDC007F2B0ADD074B00221A80064B5B883A6894
:100BEC00527813449AB2034B5A80FB791846183743
:100BFC00BD4680BDE800002080B586B002AFF8602D
:100C0C00B96011461A460B46FB711346BB7115E0D1
:100C1C00FB681878B979FA793B7E00930B46B96872
:100C2C00FFF7CEFE03461A46FB681B789A4202D0A9
:100C3C00FB681B7808E0FB680133FB60FB681B78E2
:100C4C00002BE5D1FB681B7818461037BD4680BDDC
:100C5C0080B582B000AF0346FB71FB79002B01D14C
:100C6C00002300E0FF234FF480621946034802F092
:100C7C00D3FD00BF0837BD4680BD00BFF00000208B
:100C8C0080B483B000AF03460A46FB801346BB809A
:100C9C00054AFB881380044ABB88538000BF0C377D
:100CAC00BD4680BC704700BFE800002080B5A4B0F2
:100CBC0002AF002387F887302BE040233B710023E1
:100CCC0087F8863013E097F8862097F88730DB0199
:100CDC001A4497F88630013312498A5C88333B44B6
:100CEC0003F8842C97F88630013387F8863097F90F
:100CFC008630002BE7DA3A1D4FF47A730093812388
:100D0C007821094800F09CFE97F88730013387F86A
:100D1C00873097F88730072BCFD900BF00BF8837B3
:100D2C00BD4680BDF00000208000002090B585B04D
:100D3C0000AF0446084611461A462346FB7103468B
:100D4C00BB710B467B7113463B7197F90730002B37
:100D5C00C0F2CD8097F90530002BC0F2C880BB796A
:100D6C003F2B00F2C4803B793F2B00F2C080FA7914
:100D7C007B799A4204D27A79FB79D31ADBB203E0FD
:100D8C00FA797B79D31ADBB27B73BA793B799A42C5
:100D9C0004D23A79BB79D31ADBB203E0BA793B7946
:100DAC00D31ADBB23B73FA797B799A4201D20123D5
:100DBC0000E0FF23FB72BA793B799A4201D20123FE
:100DCC0000E0FF23BB727A7B3B7B9A4205D97B7B8D
:100DDC00DA0F13445B10DBB205E03B7BDA0F1344F4
:100DEC005B105B42DBB2FB737B7B002B27D13A7928
:100DFC00BB799A4205D23B793B72BB793B713B7A0A
:100E0C00BB717A79FB799A4205D27B793B72FB797B
:100E1C007B713B7AFB71BB79BB730BE0FB799BB2AB
:100E2C00BA7B91B297F820201846FFF76BFDBB7B7D
:100E3C000133BB73BA7B3B799A42EFD95AE03B7BC7
:100E4C00002B27D13A79BB799A4205D23B793B7278
:100E5C00BB793B713B7ABB717A79FB799A4205D2AB
:100E6C007B793B72FB797B713B7AFB71FB79BB73B2
:100E7C000BE0BB7B9BB2BA7991B297F82020184655
:100E8C00FFF740FDBB7B0133BB73BA7B7B799A4286
:100E9C00EFD92FE0FB799BB2BA7991B297F8202069
:100EAC001846FFF72FFDFA797B799A4203D1BA796C
:100EBC003B799A421DD0FB7B7B727A7A7B7B5B42BF
:100ECC009A4207DDFA7B3B7BD31AFB73FA79FB7AE8
:100EDC001344FB717A7A3B7B9A42DBD2FA7B7B7BA5
:100EEC001344FB73BA79BB7A1344BB71D2E700BFCE
:100EFC0000E000BF1437BD4690BD90B587B002AF7F
:100F0C000446084611461A462346FB710346BB713C
:100F1C000B467B7113463B7197F90730002B36DB80
:100F2C00BB793F2B33D8FA797B7913447F2B06DDC1
:100F3C00FB79C3F1FF2303F57F0380337B71BA790F
:100F4C003B7913443F2B03DDBB79C3F140033B7169
:100F5C000023FB7316E0BA79FB7B1344D9B2FA7900
:100F6C007B791344DCB2BA79FB7B1344DAB2F8799F
:100F7C0097F82030009313462246FFF7D7FEFB7BF1
:100F8C000133FB73FA7B3B799A42E4D900E000BF52
:100F9C001437BD4690BD000080B485B000AF154B32
:100FAC009B69144A43F001039361124B9B6903F054
:100FBC000103BB60BB680F4BDB690E4A43F08053E7
:100FCC00D3610C4BDB6903F080537B607B680A4B6D
:100FDC005B68FB60FB6823F0E063FB60FB6843F03D
:100FEC008063FB60044AFB68536000BF1437BD4646
:100FFC0080BC7047001002400000014080B588B0F2
:10100C0000AF786007F1100300221A605A609A60F2
:10101C00DA607B681B68154A934223D1144B9B6999
:10102C00134A43F008039361114B9B6903F00803C7
:10103C00FB60FB68C0233B6112237B610323FB61D4
:10104C0007F1100319460B4800F032FA084BDB6924
:10105C00074A43F40013D361054BDB6903F4001317
:10106C00BB60BB6800BF2037BD4680BD005400404C
:10107C0000100240000C014080B584B000AF7860D5
:10108C007B681B680B4A934210D101F031F80A4B74
:10109C00DB69094A43F00063D361074BDB6903F05A
:1010AC000063FB60FB68054B01221A6000BF103720
:1010BC00BD4680BD00280040001002403C04424266
:1010CC0080B400AF00BFFDE780B400AF00BFFDE708
:1010DC0080B400AF00BFFDE780B400AF00BFFDE7F8
:1010EC0080B400AF00BFFDE780B400AF00BFBD46C9
:1010FC0080BC704780B400AF00BFBD4680BC704759
:10110C0080B400AF00BFBD4680BC704780B500AF57
:10111C0000F0AAF800BF80BD80B586B000AF786043
:10112C00144A154BD31A7B617B693B61134B1B68CB
:10113C00002B02D1114B124A1A60104B1A687B68B3
:10114C0013443A699A4207D202F06EFB03460C2212
:10115C001A604FF0FF3309E0084B1B68FB60074B2C
:10116C001A687B681344054A1360FB6818461837E5
:10117C00BD4680BD0050002000040000F00400209B
:10118C004006002080B400AF00BFBD4680BC704755
:10119C00FFF7F8FF0B480C490C4A002302E0D45827
:1011AC00C4500433C4188C42F9D3094A094C0023A7
:1011BC0001E013600432A242FBD302F03BFBFEF7CA
:1011CC00BFFF70470000002064000020E0460008CC
:1011DC006400002040060020FEE7000080B500AF50
:1011EC00084B1B68074A43F010031360032000F000
:1011FC002BF90F2000F008F8FFF7CEFE002318465D
:10120C0080BD00BF0020024080B582B000AF786086
:10121C00124B1A68124B1B7819464FF47A73B3FBB6
:10122C00F1F3B2FBF3F3184600F035F90346002B4B
:10123C0001D001230EE07B680F2B0AD800227968BD
:10124C004FF0FF3000F00BF9064A7B681360002367
:10125C0000E0012318460837BD4680BD0800002079
:10126C00100000200C00002080B400AF054B1B7850
:10127C001A46054B1B681344034A136000BFBD4656
:10128C0080BC704710000020F404002080B400AF34
:10129C00024B1B681846BD4680BC7047F404002006
:1012AC0080B584B000AF7860FFF7F0FFB8607B6862
:1012BC00FB60FB68B3F1FF3F05D00A4B1B781A4665
:1012CC00FB681344FB6000BFFFF7E0FF0246BB68FE
:1012DC00D31AFA689A42F7D800BF00BF1037BD4640
:1012EC0080BD00BF1000002080B485B000AF7860D6
:1012FC007B6803F00703FB600C4BDB68BB60BA68D0
:10130C004FF6FF031340BB60FB681A02BB68134324
:10131C0043F0BF6343F40033BB60044ABB68D36043
:10132C0000BF1437BD4680BC704700BF00ED00E025
:10133C0080B400AF044BDB681B0A03F007031846AC
:10134C00BD4680BC704700BF00ED00E080B483B0A8
:10135C0000AF03463960FB7197F90730002B0ADBAD
:10136C003B68DAB20C4997F907301201D2B20B4440
:10137C0083F800230AE03B68DAB20849FB7903F0F2
:10138C000F03043B1201D2B20B441A7600BF0C3788
:10139C00BD4680BC704700BF00E100E000ED00E0FE
:1013AC0080B489B000AFF860B9607A60FB6803F074
:1013BC000703FB61FB69C3F10703042B28BF04235C
:1013CC00BB61FB690433062B02D9FB69033B00E0CC
:1013DC0000237B614FF0FF32BB6902FA03F3DA435F
:1013EC00BB681A407B699A404FF0FF317B6901FA68
:1013FC0003F3D9437B680B40134318462437BD468F
:10140C0080BC704780B582B000AF78607B68013BD0
:10141C00B3F1807F01D301230FE00A4A7B68013BC3
:10142C0053600F214FF0FF30FFF790FF054B002268
:10143C009A60044B07221A60002318460837BD46F1
:10144C0080BD00BF10E000E080B582B000AF7860D6
:10145C007868FFF749FF00BF0837BD4680BD80B5EF
:10146C0086B000AF0346B9607A60FB7300237B61E2
:10147C00FFF75EFF78617A68B9687869FFF790FFCB
:10148C00024697F90F3011461846FFF75FFF00BF71
:10149C001837BD4680BD80B582B000AF78607868E3
:1014AC00FFF7B0FF034618460837BD4680BD000065
:1014BC0080B48BB000AF7860396000237B6200236E
:1014CC003B6269E101227B6A02FA03F3FB613B6830
:1014DC001B68FA691340BB61BA69FB699A4240F018
:1014EC0058813B685B689A4A93425ED0984A934213
:1014FC0075D8984A934258D0964A93426FD8964AD8
:10150C00934252D0944A934269D8944A93424CD015
:10151C00924A934263D8924A934246D0904A93425D
:10152C005DD8122B2AD8122B59D801A252F823F0CD
:10153C00B715000891150008A3150008E51500085B
:10154C00EB150008EB150008EB150008EB1500086F
:10155C00EB150008EB150008EB150008EB1500085F
:10156C00EB150008EB150008EB150008EB1500084F
:10157C00EB15000899150008AD150008794A93423F
:10158C0013D02CE03B68DB683B6229E03B68DB68EE
:10159C0004333B6224E03B68DB6808333B621FE0AA
:1015AC003B68DB680C333B621AE03B689B68002BA2
:1015BC0002D104233B6213E03B689B68012B05D1ED
:1015CC0008233B627B68FA691A6109E008233B62D5
:1015DC007B68FA695A6103E000233B6200E000BFBC
:1015EC00BB69FF2B01D87B6801E07B6804337B610E
:1015FC00BB69FF2B02D87B6A9B0002E07B6A083B2D
:10160C009B003B617B691A680F213B6901FA03F36C
:10161C00DB431A40396A3B6901FA03F31A437B69CD
:10162C001A603B685B6803F08053002B00F0B180BC
:10163C004D4B9B694C4A43F0010393614A4B9B69A8
:10164C0003F00103BB60BB68484A7B6A9B0802330A
:10165C0052F82330FB607B6A03F003039B000F22DC
:10166C0002FA03F3DB43FA681340FB607B68404AE1
:10167C00934213D07B683F4A93420DD07B683E4A1D
:10168C00934207D07B683D4A934201D1032306E085
:10169C00042304E0022302E0012300E000237A6A21
:1016AC0002F0030292009340FA681343FB602F4947
:1016BC007B6A9B080233FA6841F823203B685B681D
:1016CC0003F48013002B06D02D4B9A682C49BB6970
:1016DC0013438B6006E02A4B9A68BB69DB432849AD
:1016EC0013408B603B685B6803F40013002B06D03F
:1016FC00234BDA682249BB691343CB6006E0204BCD
:10170C00DA68BB69DB431E491340CB603B685B68FE
:10171C0003F40033002B06D0194B5A681849BB69E7
:10172C0013434B6006E0164B5A68BB69DB43144904
:10173C0013404B603B685B6803F48033002B21D073
:10174C000F4B1A680E49BB6913430B6021E000BFB5
:10175C000000321000003110000022100000211097
:10176C000000121000001110001002400000014097
:10177C0000080140000C0140001001400014014021
:10178C00000401400B4B1A68BB69DB430949134049
:10179C000B607B6A01337B623B681A687B6A22FAB6
:1017AC0003F3002B7FF48EAE00BF00BF2C37BD4679
:1017BC0080BC70470004014080B584B000AF7860F5
:1017CC007B68002B01D101232BE17B6893F83D3022
:1017DC00DBB2002B06D17B68002283F83C207868B2
:1017EC00FFF70CFC7B68242283F83D207B681B6888
:1017FC001A687B681B6822F001021A607B681B6800
:10180C001A687B681B6842F400421A607B681B688C
:10181C001A687B681B6822F400421A6001F03EF8DB
:10182C00F8607B685B68814A934207D8FB68804A02
:10183C00934294BF01230023DBB206E0FB687D4A90
:10184C00934294BF01230023DBB2002B01D0012370
:10185C00E7E0FB68784AA2FB03239B0CBB607B6828
:10186C001B685B6823F03F017B681B68BA680A43FE
:10187C005A607B681B681B6A23F03F017B685B68BE
:10188C006A4A934202D8BB68013309E0BB684FF443
:10189C00967202FB03F3694AA2FB03239B090133F3
:1018AC007A6812680B4313627B681B68DB6923F44C
:1018BC004F4222F0FF027B685B685C498B4219D86F
:1018CC00FB68591E7B685B685B00B1FBF3F3591C2A
:1018DC0040F6FC730B40002B0AD0FB68591E7B684A
:1018EC005B685B00B1FBF3F30133C3F30B0351E013
:1018FC0004234FE07B689B68002B11D1FB68581EBA
:10190C007B6859680B465B000B44B0FBF3F3013367
:10191C00C3F30B03002B0CBF01230023DBB212E03B
:10192C00FB68581E7B6859680B469B000B4499005A
:10193C000B44B0FBF3F30133C3F30B03002B0CBFCD
:10194C0001230023DBB2002B01D0012322E07B68B2
:10195C009B68002B0ED1FB68581E7B6859680B46A0
:10196C005B000B44B0FBF3F30133C3F30B0343F401
:10197C0000430FE0FB68581E7B6859680B469B00C0
:10198C000B4499000B44B0FBF3F30133C3F30B038B
:10199C0043F44043796809681343CB617B681B6847
:1019AC001B6823F0C0017B68DA697B681B6A1A43E9
:1019BC007B681B680A431A607B681B689B6823F46E
:1019CC00034323F0FF037A6811697A68D2681143E4
:1019DC007A6812680B4393607B681B68DB6823F0A2
:1019EC00FF017B685A697B689B691A437B681B689B
:1019FC000A43DA607B681B681A687B681B6842F0D4
:101A0C0001021A607B6800221A647B68202283F82A
:101A1C003D207B6800221A637B68002283F83E20FD
:101A2C00002318461037BD4680BD00BFA0860100BC
:101A3C007F841E00FF083D0083DE1B43D34D6210E4
:101A4C0080B588B002AFF8607A601A460B467B818D
:101A5C0013463B81FFF71AFC7861FB6893F83D3025
:101A6C00DBB2202B40F0E0807B690093192301222C
:101A7C007049F86800F064F90346002B01D002238A
:101A8C00D3E0FB6893F83C30012B01D10223CCE06E
:101A9C00FB68012283F83C20FB681B681B6803F081
:101AAC000103012B07D0FB681B681A68FB681B68D5
:101ABC0042F001021A60FB681B681A68FB681B681D
:101ACC0022F400621A60FB68212283F83D20FB6837
:101ADC00102283F83E20FB6800221A64FB687A68A7
:101AEC005A62FB683A895A85FB685B8D9AB2FB682F
:101AFC001A85FB68504ADA6279897B693A6AF86818
:101B0C0000F09CF80346002B01D001238DE000234C
:101B1C003B61FB681B685B693B61FB681B689B69ED
:101B2C003B613B6966E07A69396AF86800F022FA31
:101B3C000346002B0DD0FB681B6C042B07D1FB68F4
:101B4C001B681A68FB681B6842F400721A60012358
:101B5C006BE0FB685B6A1A78FB681B681A61FB68B0
:101B6C005B6A5A1CFB685A62FB685B8D9BB2013B3B
:101B7C009AB2FB685A85FB681B8D013B9AB2FB68D5
:101B8C001A85FB681B685B6903F00403042B1BD1EB
:101B9C00FB681B8D002B17D0FB685B6A1A78FB68FF
:101BAC001B681A61FB685B6A5A1CFB685A62FB680B
:101BBC005B8D9BB2013B9AB2FB685A85FB681B8D0F
:101BCC00013B9AB2FB681A857A69396AF86800F0A9
:101BDC0019FA0346002B0DD0FB681B6C042B07D1A4
:101BEC00FB681B681A68FB681B6842F400721A6079
:101BFC0001231AE0FB681B8D002B94D1FB681B683A
:101C0C001A68FB681B6842F400721A60FB68202299
:101C1C0083F83D20FB68002283F83E20FB680022FD
:101C2C0083F83C20002300E0022318461837BD46F9
:101C3C0080BD00BF020010000000FFFF80B588B01F
:101C4C0002AFF8607A603B600B467B81FB68DB6A15
:101C5C007B617B69082B06D07B69012B03D07B69E8
:101C6C0013F5803F08D1FB681B681A68FB681B687A
:101C7C0042F480721A600BE0FB681B6B122B07D1CD
:101C8C00FB681B681A68FB681B6842F480721A6058
:101C9C003B6800937B6800224FF00111F86800F05C
:101CAC004FF80346002B0DD0FB681B681B6803F430
:101CBC008073B3F5807F03D1FB684FF400721A6414
:101CCC00032335E0FB681B69B3F5804F08D17B8992
:101CDC00DBB21A46FB681B6802F0FE021A611BE0BD
:101CEC007B89DB11DBB203F00603DBB263F00F037D
:101CFC00DAB2FB681B681A613B687A680E49F868AF
:101D0C0000F098F80346002B01D0012310E07B89EA
:101D1C00DAB2FB681B681A613B687A680749F86895
:101D2C0000F088F80346002B01D0012300E00023CB
:101D3C0018461837BD4680BD08000100020001009E
:101D4C0080B584B000AFF860B9603B601346FB719E
:101D5C0048E03B68B3F1FF3F44D0FFF797FA0246E7
:101D6C00BB69D31A3A689A4202D33B68002B39D12B
:101D7C00BB681B0CDBB2012B0DD1FB681B685B69CC
:101D8C00DA43BB6813409BB2002B0CBF012300232A
:101D9C00DBB21A460CE0FB681B689B69DA43BB6834
:101DAC0013409BB2002B0CBF01230023DBB21A465D
:101DBC00FB799A4216D1FB6800221A63FB68202239
:101DCC0083F83D20FB68002283F83E20FB681B6CE7
:101DDC0043F02002FB681A64FB68002283F83C2065
:101DEC00012323E0BB681B0CDBB2012B0DD1FB687C
:101DFC001B685B69DA43BB6813409BB2002B0CBFBA
:101E0C0001230023DBB21A460CE0FB681B689B69BC
:101E1C00DA43BB6813409BB2002B0CBF0123002399
:101E2C00DBB21A46FB799A4293D00023184610373E
:101E3C00BD4680BD80B584B000AFF860B9607A60F3
:101E4C003B6071E0FB681B685B6903F48063B3F56E
:101E5C00806F23D1FB681B681A68FB681B6842F40F
:101E6C0000721A60FB681B686FF480625A61FB6831
:101E7C0000221A63FB68202283F83D20FB680022B5
:101E8C0083F83E20FB681B6C43F00402FB681A6469
:101E9C00FB68002283F83C20012367E07B68B3F1E8
:101EAC00FF3F41D0FFF7F2F902463B68D31A7A683C
:101EBC009A4202D37B68002B36D1BB681B0CDBB279
:101ECC00012B0CD1FB681B685B69DA43BB681340C0
:101EDC009BB2002B14BF01230023DBB20BE0FB6889
:101EEC001B689B69DA43BB6813409BB2002B14BF81
:101EFC0001230023DBB2002B16D0FB6800221A63EF
:101F0C00FB68202283F83D20FB68002283F83E20EA
:101F1C00FB681B6C43F02002FB681A64FB68002210
:101F2C0083F83C20012321E0BB681B0CDBB2012BA6
:101F3C000CD1FB681B685B69DA43BB6813409BB22E
:101F4C00002B14BF01230023DBB20BE0FB681B68E2
:101F5C009B69DA43BB6813409BB2002B14BF01236F
:101F6C000023DBB2002B7FF46DAF00231846103733
:101F7C00BD4680BD80B584B000AFF860B9607A60B2
:101F8C0034E0F86800F086F80346002B01D00123FA
:101F9C0034E0BB68B3F1FF3F28D0FFF777F9024676
:101FAC007B68D31ABA689A4202D3BB68002B1DD146
:101FBC00FB681B685B6903F08003802B16D0FB6801
:101FCC0000221A63FB68202283F83D20FB68002264
:101FDC0083F83E20FB681B6C43F02002FB681A64FC
:101FEC00FB68002283F83C20012307E0FB681B6898
:101FFC005B6903F08003802BC3D100231846103794
:10200C00BD4680BD80B584B000AFF860B9607A6021
:10201C0034E0F86800F03EF80346002B01D00123B1
:10202C0034E0BB68B3F1FF3F28D0FFF72FF902462D
:10203C007B68D31ABA689A4202D3BB68002B1DD1B5
:10204C00FB681B685B6903F00403042B16D0FB6868
:10205C0000221A63FB68202283F83D20FB680022D3
:10206C0083F83E20FB681B6C43F02002FB681A646B
:10207C00FB68002283F83C20012307E0FB681B6807
:10208C005B6903F00403042BC3D1002318461037FB
:10209C00BD4680BD80B483B000AF78607B681B68A0
:1020AC005B6903F48063B3F5806F1BD17B681B689D
:1020BC006FF480625A617B6800221A637B6820226D
:1020CC0083F83D207B68002283F83E207B681B6CE4
:1020DC0043F004027B681A647B68002283F83C207E
:1020EC00012300E0002318460C37BD4680BC704726
:1020FC0080B400AF034B01221A6000BFBD4680BC08
:10210C00704700BF20000E4280B586B000AF7860EB
:10211C007B68002B01D1012372E27B681B6803F002
:10212C000103002B00F08780924B5B6803F00C03DB
:10213C00042B0CD08F4B5B6803F00C03082B12D1D3
:10214C008C4B5B6803F48033B3F5803F0BD1894B28
:10215C001B6803F40033002B6CD07B685B68002B8E
:10216C0068D101234CE27B685B68B3F5803F06D1F4
:10217C00804B1B687F4A43F4803313602EE07B68EE
:10218C005B68002B0CD17B4B1B687A4A23F48033A1
:10219C001360784B1B68774A23F4802313601DE08F
:1021AC007B685B68B3F5A02F0CD1724B1B68714A2E
:1021BC0043F4802313606F4B1B686E4A43F48033E7
:1021CC0013600BE06B4B1B686A4A23F4803313607B
:1021DC00684B1B68674A23F4802313607B685B6839
:1021EC00002B13D0FFF752F8386108E0FFF74EF8D8
:1021FC0002463B69D31A642B01D9032300E25D4BE1
:10220C001B6803F40033002BF0D014E0FFF73EF80A
:10221C00386108E0FFF73AF802463B69D31A642BA1
:10222C0001D90323ECE1534B1B6803F40033002B5F
:10223C00F0D100E000BF7B681B6803F00203002BA9
:10224C0063D04C4B5B6803F00C03002B0BD0494B59
:10225C005B6803F00C03082B1CD1464B5B6803F442
:10226C008033002B16D1434B1B6803F00203002B69
:10227C0005D07B681B69012B01D00123C0E13D4BCC
:10228C001B6823F0F8027B685B69DB003949134358
:10229C000B603AE07B681B69002B20D0364B012287
:1022AC001A60FEF7F3FF386108E0FEF7EFFF024615
:1022BC003B69D31A022B01D90323A1E12D4B1B68D7
:1022CC0003F00203002BF0D02A4B1B6823F0F8021A
:1022DC007B685B69DB00274913430B6015E0264BD9
:1022EC0000221A60FEF7D2FF386108E0FEF7CEFF3D
:1022FC0002463B69D31A022B01D9032380E11D4B03
:10230C001B6803F00203002BF0D17B681B6803F001
:10231C000803002B3AD07B689B69002B19D0174B14
:10232C0001221A60FEF7B2FF386108E0FEF7AEFF3B
:10233C0002463B69D31A022B01D9032360E10D4BF2
:10234C005B6A03F00203002BF0D0012000F0CEFA00
:10235C001CE00A4B00221A60FEF798FF38610FE070
:10236C00FEF794FF02463B69D31A022B08D90323CC
:10237C0046E100BF0010024000004242800442428D
:10238C00924B5B6A03F00203002BE9D17B681B685C
:10239C0003F00403002B00F0A6800023FB758B4B8D
:1023AC00DB6903F08053002B0DD1884BDB69874A26
:1023BC0043F08053D361854BDB6903F08053BB60E2
:1023CC00BB680123FB75824B1B6803F48073002BE5
:1023DC0018D17F4B1B687E4A43F480731360FEF761
:1023EC0055FF386108E0FEF751FF02463B69D31AEE
:1023FC00642B01D9032303E1754B1B6803F4807331
:10240C00002BF0D07B68DB68012B06D16F4B1B6A6D
:10241C006E4A43F0010313622DE07B68DB68002BEE
:10242C000CD16A4B1B6A694A23F001031362674B98
:10243C001B6A664A23F0040313621CE07B68DB68AA
:10244C00052B0CD1614B1B6A604A43F004031362E9
:10245C005E4B1B6A5D4A43F0010313620BE05B4B5E
:10246C001B6A5A4A23F001031362584B1B6A574AE2
:10247C0023F0040313627B68DB68002B15D0FEF796
:10248C0005FF38610AE0FEF701FF02463B69D31AEB
:10249C0041F28832934201D90323B1E04B4B1B6AC2
:1024AC0003F00203002BEED014E0FEF7EFFE3861D0
:1024BC000AE0FEF7EBFE02463B69D31A41F2883282
:1024CC00934201D903239BE0404B1B6A03F00203A8
:1024DC00002BEED1FB7D012B05D13C4BDB693B4A3C
:1024EC0023F08053D3617B68DB69002B00F087807D
:1024FC00364B5B6803F00C03082B61D07B68DB69FF
:10250C00022B46D1334B00221A60FEF7BFFE386116
:10251C0008E0FEF7BBFE02463B69D31A022B01D939
:10252C0003236DE0294B1B6803F00073002BF0D1E3
:10253C007B681B6AB3F5803F08D1244B5B6823F49E
:10254C0000327B689B68214913434B601F4B5B68CF
:10255C0023F474127B68196A7B685B6A0B431B4912
:10256C0013434B601B4B01221A60FEF78FFE386140
:10257C0008E0FEF78BFE02463B69D31A022B01D909
:10258C0003233DE0114B1B6803F00073002BF0D0CC
:10259C0035E0104B00221A60FEF778FE386108E037
:1025AC00FEF774FE02463B69D31A022B01D90323B2
:1025BC0026E0064B1B6803F00073002BF0D11EE0E5
:1025CC007B68DB69012B07D1012319E00010024065
:1025DC0000700040600042420B4B5B68FB60FB6884
:1025EC0003F480327B681B6A9A4206D1FB6803F4C1
:1025FC0070127B685B6A9A4201D0012300E00023D1
:10260C0018461837BD4680BD0010024080B584B016
:10261C0000AF786039607B68002B01D10123D0E0DA
:10262C006A4B1B6803F007033A689A4210D9674B50
:10263C001B6823F0070265493B6813430B60634B2F
:10264C001B6803F007033A689A4201D00123B8E0F3
:10265C007B681B6803F00203002B20D07B681B688F
:10266C0003F00403002B05D0594B5B68584A43F424
:10267C00E06353607B681B6803F00803002B05D0F4
:10268C00534B5B68524A43F460535360504B5B6846
:10269C0023F0F0027B689B684D4913434B607B68C9
:1026AC001B6803F00103002B40D07B685B68012B97
:1026BC0007D1474B1B6803F40033002B15D10123C2
:1026CC007FE07B685B68022B07D1414B1B6803F0F2
:1026DC000073002B09D1012373E03D4B1B6803F001
:1026EC000203002B01D101236BE0394B5B6823F013
:1026FC0003027B685B68364913434B60FEF7C6FDEB
:10270C00F8600AE0FEF7C2FD0246FB68D31A41F2FC
:10271C008832934201D9032353E02D4B5B6803F0BD
:10272C000C027B685B689B009A42EBD1274B1B68C1
:10273C0003F007033A689A4210D2244B1B6823F02B
:10274C00070222493B6813430B60204B1B6803F0C4
:10275C0007033A689A4201D0012332E07B681B6878
:10276C0003F00403002B08D0194B5B6823F4E062E0
:10277C007B68DB68164913434B607B681B6803F06E
:10278C000803002B09D0124B5B6823F460527B6862
:10279C001B69DB000E4913434B6000F021F8024625
:1027AC000B4B5B681B0903F00F030A49CB5C22FA45
:1027BC0003F3094A1360094B1B681846FEF724FD06
:1027CC00002318461037BD4680BD00BF00200240D4
:1027DC000010024064460008080000200C00002095
:1027EC0080B487B000AF0023FB600023BB600023E4
:1027FC007B6100237B6000233B611E4B5B68FB60AD
:10280C00FB6803F00C03042B02D0082B03D027E049
:10281C00194B3B6127E0FB689B0C03F00F03174A35
:10282C00D35C7B60FB6803F48033002B10D0114B1E
:10283C005B685B0C03F00103114AD35CBB607B68E3
:10284C000D4A03FB02F2BB68B2FBF3F37B6104E0BD
:10285C007B680C4A02FB03F37B617B693B6102E002
:10286C00054B3B6100BF3B6918461C37BD4680BC1D
:10287C00704700BF0010024000127A007C4600082E
:10288C008C46000800093D0080B400AF024B1B6869
:10289C001846BD4680BC70470800002080B500AFCC
:1028AC00FFF7F2FF0246054B5B681B0A03F00703B8
:1028BC000349CB5C22FA03F3184680BD001002409A
:1028CC007446000880B500AFFFF7DEFF0246054BEB
:1028DC005B68DB0A03F007030349CB5C22FA03F3C2
:1028EC00184680BD001002407446000880B485B0C4
:1028FC0000AF78600A4B1B680A4AA2FB03235B0AF1
:10290C007A6802FB03F3FB6000BFFB685A1EFA6097
:10291C00002BF9D100BF00BF1437BD4680BC7047F7
:10292C0008000020D34D621080B586B000AF7860EF
:10293C0000233B610023FB607B681B6803F00103F1
:10294C00002B7DD00023FB754F4BDB6903F08053CC
:10295C00002B0DD14C4BDB694B4A43F08053D361B8
:10296C00494BDB6903F08053BB60BB680123FB75EB
:10297C00464B1B6803F48073002B18D1434B1B6828
:10298C00424A43F480731360FEF780FC386108E020
:10299C00FEF77CFC02463B69D31A642B01D9032356
:1029AC006DE03A4B1B6803F48073002BF0D0364B70
:1029BC001B6A03F44073FB60FB68002B2ED07B6812
:1029CC005B6803F44073FA689A4227D02E4B1B6A5B
:1029DC0023F44073FB602E4B01221A602C4B002217
:1029EC001A60294AFB681362FB6803F00103002B91
:1029FC0014D0FEF74BFC38610AE0FEF747FC0246A8
:102A0C003B69D31A41F28832934201D9032336E051
:102A1C001D4B1B6A03F00203002BEED01A4B1B6AF2
:102A2C0023F440727B685B68174913430B62FB7D90
:102A3C00012B05D1144BDB69134A23F08053D3616E
:102A4C007B681B6803F00203002B08D00E4B5B68FD
:102A5C0023F440427B689B680B4913434B607B68B3
:102A6C001B6803F01003002B08D0074B5B6823F4A2
:102A7C0080027B68DB68044913434B6000231846D3
:102A8C001837BD4680BD00BF0010024000700040EA
:102A9C004004424280B588B000AF786000237B616F
:102AAC000023FB6100233B610023FB600023BB611F
:102ABC007B68102B0AD07B68102B00F28A807B6815
:102ACC00012B45D07B68022B75D082E0464B5B68AE
:102ADC00FB60454B1B6803F08073002B7BD0FB68BD
:102AEC009B0C03F00F03414AD35C3B61FB6803F47E
:102AFC008033002B15D03C4B5B685B0C03F001035F
:102B0C003B4AD35C7B61FB6803F48033002B0DD014
:102B1C00384A7B69B2FBF3F23B6902FB03F3FB61BE
:102B2C0004E03B69344A02FB03F3FB612E4B5B6808
:102B3C0003F48003B3F5800F02D1FB69BB614AE05B
:102B4C00FB695B002D4AA2FB03235B08BB6142E0DF
:102B5C00254B1B6AFB60FB6803F44073B3F5807F65
:102B6C0008D1FB6803F00203002B03D04FF40043A1
:102B7C00BB611FE0FB6803F44073B3F5007F09D120
:102B8C00194B5B6A03F00203002B03D049F6404358
:102B9C00BB610FE0FB6803F44073B3F5407F1CD1BD
:102BAC00114B1B6803F40033002B16D04FF2244357
:102BBC00BB6112E011E0FFF785FE02460A4B5B6831
:102BCC009B0B03F0030301335B00B2FBF3F3BB611C
:102BDC0004E000BF02E000BF00E000BFBB69184684
:102BEC002037BD4680BD00BF001002409046000853
:102BFC00A046000800127A0000093D00ABAAAAAA60
:102C0C0080B584B000AF78600023FB607B68002B3C
:102C1C0001D101237AE07B685B7CDBB2002B05D110
:102C2C007B6800221A747868FEF726FA7B68022209
:102C3C005A74786800F02FFB0346002B04D07B6895
:102C4C0004225A74012361E0786800F0E8FB034623
:102C5C00002B04D07B6804225A74012356E07B6855
:102C6C001B685A687B681B6822F007025A607B68F5
:102C7C009B68002B05D0274B1B6B264A23F00103C6
:102C8C001363244BDB6A23F460727B689B682149D5
:102C9C001343CB627B685B68B3F1FF3F03D07B6867
:102CAC005B68FB600EE00120FFF7F4FEF860FB6848
:102CBC00002B04D17B6804225A74012326E0FB68A4
:102CCC00013BFB60FB681A0C7B681B6802F00F026F
:102CDC009A607B681B68FA6892B2DA60786800F0D8
:102CEC00C6FB0346002B04D07B6804225A740123D4
:102CFC000CE07B680022DA737B6801225A737B68D4
:102D0C0001229A737B6801225A74002318461037EB
:102D1C00BD4680BD006C004090B587B000AFF86038
:102D2C00B9607A6000237B6100233B61FB68002B58
:102D3C0002D0BB68002B01D1012380E0FB681B7C17
:102D4C00012B01D102237AE0FB6801221A74FB6883
:102D5C0002225A747B68002B13D1BB681B781A466D
:102D6C004FF4616303FB02F2BB685B7819460B46B8
:102D7C001B015B1A9B001344BA68927813447B6165
:102D8C001EE0BB681B78184600F0B6FB03461A46DB
:102D9C004FF4616303FB02F4BB685B78184600F0E8
:102DAC00ABFB03461A4613461B019B1A9B001C44A3
:102DBC00BB689B78184600F09FFB034623447B615D
:102DCC007969F86800F0C4FA0346002B07D0FB6859
:102DDC0004225A74FB6800221A7401232FE0FB684A
:102DEC001B685A68FB681B6822F005025A60F86879
:102DFC0000F0D5FA38613B69B3F1FF3F18D03A695E
:102E0C007B699A4214D23B6903F5A83303F5C0736E
:102E1C003B613969F86800F0DBFA0346002B07D0F8
:102E2C00FB6804225A74FB6800221A74012306E022
:102E3C00FB6801225A74FB6800221A74002318469E
:102E4C001C37BD4690BD000080B588B000AFF8605F
:102E5C00B9607A600023BB610023FB6100237B61B6
:102E6C0000233B61FB68002B02D0BB68002B01D117
:102E7C000123B5E0FB681B685B6803F00403002BBF
:102E8C0001D00123ACE0F86800F032FAB861BB69FC
:102E9C00554AA2FB0323DB0A3B61BA69524BA3FBE5
:102EAC000213DB0A4FF4616101FB03F3D31A4F4A9F
:102EBC00A2FB03235B09DAB2BB685A70BB694A4AAE
:102ECC00A2FB0312D20A4FF4616101FB02F29A1ABF
:102EDC00464BA3FB021359090B461B015B1A9B00C3
:102EEC00D11ACAB2BB689A703B69172B55D93B698A
:102EFC003F4AA2FB03231B097B6139693C4BA3FBB3
:102F0C0001231A0913465B001344DB00CA1AD2B220
:102F1C00BB681A70F86800F042FAF861FB69B3F10B
:102F2C00FF3F08D0FA69BB699A4204D9FA69BB69B8
:102F3C00D31AFB6102E04FF0FF33FB617B692D4A32
:102F4C0002FB03F3BA69D31ABB61B969F86800F0E4
:102F5C00FFF90346002B01D0012341E0FB69B3F1DB
:102F6C00FF3F0CD0FA69BB691344FB61F969F8683F
:102F7C0000F02EFA0346002B0AD0012330E0F96949
:102F8C00F86800F025FA0346002B01D0012327E056
:102F9C007969F86800F0CDFA03E03B69DAB2BB68F6
:102FAC001A707B68002B1AD0BB681B78184600F08F
:102FBC0086FA03461A46BB681A70BB685B781846DB
:102FCC0000F07DFA03461A46BB685A70BB689B78C2
:102FDC00184600F074FA03461A46BB689A70002330
:102FEC0018462037BD4680BDC5B3A2918988888814
:102FFC00ABAAAAAA8051010080B588B000AFF860D6
:10300C00B9607A600023FB610023BB6100237B6104
:10301C00FB68002B02D0BB68002B01D1012397E089
:10302C00FB681B7C012B01D1022391E0FB68012280
:10303C001A74FB6802225A747B68002B0CD1BB6893
:10304C00DA78FB68DA73BB685A78FB685A73BB682A
:10305C009A78FB689A731AE0BB68DB78184600F024
:10306C004BFA03461A46FB68DA73BB685B78184662
:10307C0000F042FA03461A46FB685A73BB689B7809
:10308C00184600F039FA03461A46FB689A73FB6837
:10309C00DB7B1846FB68597BFB689B7B1A4600F070
:1030AC0023FB03461A46FB681A73FB681A7BBB6842
:1030BC001A70F86800F01CF9F861FB69264AA2FB4B
:1030CC000323DB0A7B617B69182B3AD97B69234A82
:1030DC00A2FB03231B09224A02FB03F3FA69D31A4E
:1030EC00FB61F969F86800F033F90346002B07D04F
:1030FC00FB6804225A74FB6800221A74012327E02F
:10310C00F86800F04CF9B861BB69B3F1FF3F18D017
:10311C00BA69FB699A4214D2BB6903F5A83303F56B
:10312C00C073BB61B969F86800F052F90346002B13
:10313C0007D0FB6804225A74FB6800221A7401231E
:10314C0006E0FB6801225A74FB6800221A74002303
:10315C0018462037BD4680BDC5B3A291ABAAAAAA1A
:10316C008051010090B589B000AFF860B9607A6009
:10317C000023FB6107F1140300210A461A800A465A
:10318C009A70FB68002B02D0BB68002B01D1012385
:10319C007DE0FB681B7C012B01D1022377E0FB68EF
:1031AC0001221A74FB6802225A7407F114030022DC
:1031BC001946F868FFF748FE0346002B01D001239F
:1031CC0065E03B7D1A464FF4616303FB02F27B7DA5
:1031DC0019460B461B015B1A9B001344BA7D134422
:1031EC00BB617B68002B13D1BB681B781A464FF46C
:1031FC00616303FB02F2BB685B7819460B461B014B
:10320C005B1A9B001344BA6892781344FB611EE06E
:10321C00BB681B78184600F06FF903461A464FF44A
:10322C00616303FB02F4BB685B78184600F064F939
:10323C0003461A4613461B019B1A9B001C44BB6891
:10324C009B78184600F058F903462344FB61FA6951
:10325C00BB699A4205D2FB6903F5A83303F5C07329
:10326C00FB61F969F86800F0B3F80346002B07D04E
:10327C00FB6804225A74FB6800221A74012306E0CE
:10328C00FB6801225A74FB6800221A74002318464A
:10329C002437BD4690BD80B584B000AF7860002364
:1032AC00FB607B68002B01D101231DE07B681B6850
:1032BC005A687B681B6822F008025A60FDF7E6FF2B
:1032CC00F86009E0FDF7E2FF0246FB68D31AB3F59C
:1032DC007A7F01D9032307E07B681B685B6803F0E6
:1032EC000803002BEED0002318461037BD4680BDD6
:1032FC0080B487B000AF786000237B8200233B82D0
:10330C000023FB8100237B617B681B689B697B82AC
:10331C007B681B68DB69FB817B681B689B693B8254
:10332C007A8A3B8A9A4208D03B8A1A047B681B68CB
:10333C00DB699BB213437B6104E07B8A1A04FB8933
:10334C0013437B617B6918461C37BD4680BC7047B4
:10335C0080B584B000AF786039600023FB73786867
:10336C0000F05DF80346002B02D00123FB7311E043
:10337C007B681B683A68120C9A617B681B683A6818
:10338C0092B2DA61786800F072F80346002B01D033
:10339C000123FB73FB7B18461037BD4680BD80B400
:1033AC0085B000AF78600023FB810023BB817B6874
:1033BC001B681B6AFB817B681B685B6ABB81FB8992
:1033CC001A04BB89134318461437BD4680BC70479A
:1033DC0080B584B000AF786039600023FB737868E7
:1033EC0000F01DF80346002B02D00123FB7311E003
:1033FC007B681B683A68120C1A627B681B683A6817
:10340C0092B25A62786800F032F80346002B01D071
:10341C000123FB73FB7B18461037BD4680BD80B57E
:10342C0084B000AF78600023FB60FDF72FFFF860DD
:10343C0009E0FDF72BFF0246FB68D31AB3F57A7F40
:10344C0001D903230FE07B681B685B6803F0200342
:10345C00002BEED07B681B685A687B681B6842F0B7
:10346C0010025A60002318461037BD4680BD80B547
:10347C0084B000AF78600023FB607B681B685A68DF
:10348C007B681B6822F010025A60FDF7FFFEF860A3
:10349C0009E0FDF7FBFE0246FB68D31AB3F57A7F11
:1034AC0001D9032307E07B681B685B6803F02003EA
:1034BC00002BEED0002318461037BD4680BD80B4DB
:1034CC0085B000AF0346FB710023FB6005E0FB6891
:1034DC000133FB60FB790A3BFB71FB79092BF6D8B6
:1034EC00FB68DBB21B01DAB2FB791343DBB2184683
:1034FC001437BD4680BC704780B485B000AF03461E
:10350C00FB710023FB60FB791B09DBB21A461346E7
:10351C009B0013445B00FB60FB7903F00F03DAB2F2
:10352C00FB68DBB21344DBB218461437BD4680BCD3
:10353C00704780B586B000AF7860396000237B613E
:10354C0000233B610023FB600023BB607B68DB7BBB
:10355C007B617B685B7B3B617B689B7BFB600023B7
:10356C00BB606FE03B69012B11D03B69032B0ED084
:10357C003B69052B0BD03B69072B08D03B69082B0B
:10358C0005D03B690A2B02D03B690C2B17D1FB6889
:10359C001E2B03D8FB680133FB6050E03B690C2BFE
:1035AC0005D03B6901333B610123FB6047E00123FC
:1035BC003B610123FB607B6901337B613FE03B692D
:1035CC00042B08D03B69062B05D03B69092B02D094
:1035DC003B690B2B0CD1FB681D2B03D8FB6801330B
:1035EC00FB602CE03B6901333B610123FB6026E06F
:1035FC003B69022B23D1FB681B2B03D8FB680133DF
:10360C00FB601CE0FB681C2B11D17B699BB218463C
:10361C0000F038F80346002B03D0FB680133FB6045
:10362C000DE03B6901333B610123FB6007E0FB6864
:10363C001D2B04D13B6901333B610123FB60BB684B
:10364C000133BB60BA683B689A428BD37B69DAB2B0
:10365C007B68DA733B69DAB27B685A73FB68DAB25F
:10366C007B689A733B69DBB2FA68D2B21946786907
:10367C0000F03AF803461A467B681A7300BF1837F5
:10368C00BD4680BD80B483B000AF0346FB80FB8891
:10369C0003F003039BB2002B01D000231DE0FB8839
:1036AC00104AA2FB03125209642101FB02F29B1A7D
:1036BC009BB2002B01D001230FE0FB88094AA2FB2F
:1036CC000312D2094FF4C87101FB02F29B1A9BB290
:1036DC00002B01D1012300E0002318460C37BD4616
:1036EC0080BC70471F85EB5180B485B000AF78600B
:1036FC000B46FB701346BB700023BB600023FB60C2
:10370C007B6803F5FA63BB60FB78022B2DD8FA7843
:10371C0013465B001344DB009B1A2C4AA2FB0323C9
:10372C005A08BB781A44BB681A44BB68013B9B0817
:10373C001A44BB68013B2649A1FB03135B09D21A4F
:10374C00BB68013B2249A1FB0313DB0913441A1D7F
:10375C00204BA3FB0213D11A49080B4499080B46C2
:10376C00DB005B1AD31AFB6029E0FA7813465B0086
:10377C001344DB009B1A154AA2FB03235A08BB789F
:10378C001A44BB681A44BB689B081A44BB681049AE
:10379C00A1FB03135B09D21ABB680D49A1FB0313F0
:1037AC00DB0913449A1C0B4BA3FB0213D11A4908D7
:1037BC000B4499080B46DB005B1AD31AFB60FB68C1
:1037CC00DBB218461437BD4680BC7047398EE338DF
:1037DC001F85EB51254992240EB46FF0004100B5C2
:1037EC009CB01DAB029006900791049108480949C2
:1037FC0053F8042B0591006802A9019300F092F98B
:10380C000022029B1A701CB05DF804EB03B07047E9
:10381C00140000200802FFFF03460244934200D12B
:10382C00704703F8011BF9E7014B1868704700BF9C
:10383C001400002070B500260C4D0D4C641BA41018
:10384C00A64209D100F078FC00260A4D0A4C641BF4
:10385C00A410A64205D170BD55F8043B984701361B
:10386C00EEE755F8043B98470136F2E7D8460008D6
:10387C00D8460008D8460008DC4600087047704758
:10388C0038B50546002940D051F8043C0C1F002BDC
:10389C00B8BFE41800F0DEF81C4A136833B9636053
:1038AC0014602846BDE8384000F0DAB8A34208D9C5
:1038BC00206821188B4201BF19685B6809182160C8
:1038CC00EDE71A465B680BB1A342FAD911685018A0
:1038DC00A0420BD120680144501883421160E0D102
:1038EC0018685B68084410605360DAE702D90C234F
:1038FC002B60D6E7206821188B4201BF19685B68E2
:10390C000918216063605460CBE738BD3C06002089
:10391C0070B50F4E0C463168054611B900F0AAFB84
:10392C0030602146284600F0A5FB431C03D14FF024
:10393C00FF34204670BDC41C24F00304A042F8D010
:10394C00211A284600F096FB0130F2D1EFE700BFB8
:10395C00380600202DE9F843CD1C25F00305083569
:10396C000C2D38BF0C25002D064601DBA94204D9CD
:10397C000C2333600020BDE8F883DFF8D48000F01E
:10398C0069F8D8F800301C4644BB29463046FFF78E
:10399C00BFFF431C044658D1D8F800402746002FDF
:1039AC0043D1002C4BD023683946304604EB030935
:1039BC0000F060FB814542D1216830466D1A2946E2
:1039CC00FFF7A6FF01303AD023682B442360D8F8C8
:1039DC0000305A6862BBC8F800700FE02268521BB6
:1039EC0020D40B2A17D96119A342256018BF59603E
:1039FC00636808BFC8F8001062514B60304600F095
:103A0C002FF804F10B00231D20F00700C21A1CBF75
:103A1C001B1AA350AFE76268A3420CBFC8F8002082
:103A2C005A60EBE723466468AEE73C467F68B6E72E
:103A3C001A465B68A342FBD100235360DEE70C23DC
:103A4C003046336000F00CF894E70560D6E700BF11
:103A5C003C0600200148FFF711BF00BF34060020D0
:103A6C000148FFF70CBF00BF340600202DE9F047DA
:103A7C001F468E688246BE420C4690460B682DD877
:103A8C00B1F90C2012F4906F26D06569096905EB29
:103A9C004505A3EB010905EBD5757B1C4B446D105B
:103AAC009D4238BF1D46530527D52946FFF752FFC7
:103ABC00064660B34A46216900F0FAFAA38923F45A
:103ACC00906343F08003A38126614E4426603E46FA
:103ADC006561A5EB0905A560BE4200D93E4632469C
:103AEC004146206800F0ACFA0020A3689B1BA36041
:103AFC00236833442360BDE8F0872A4600F0E6FAD9
:103B0C0006460028E0D150462169FFF7B9FE0C2388
:103B1C00CAF80030A3894FF0FF3043F04003A38173
:103B2C00E9E700002DE9F04F98468B8907461B0604
:103B3C000D4614469DB010D50B6973B94021FFF7A3
:103B4C0009FF2860286130B90C233B604FF0FF302F
:103B5C001DB0BDE8F08F40236B6100230993202337
:103B6C008DF8293030234FF00109CDF80C80DFF8A7
:103B7C0098818DF82A3023469A4613F8012B0AB106
:103B8C00252AF9D1BAEB040B0BD05B462246294609
:103B9C003846FFF76BFF013000F0A780099A5A44B2
:103BAC0009929AF80030002B00F09F8000234FF010
:103BBC00FF32CDE905230AF1010A049307938DF82E
:103BCC0053301A935446052214F8011B4E4800F04A
:103BDC0061FA049AD8B9D00644BF20238DF853302B
:103BEC00110744BF2B238DF853309AF800302A2B41
:103BFC0015D0544600204FF00A0C079A214611F8B4
:103C0C00013B303B092B4BD9B0B1079214E0A0EB30
:103C1C00080309FA03F31343A2460493D2E7039B68
:103C2C00191D1B680391002BBBBF5B4242F00202C3
:103C3C0007930793B8BF049223782E2B0AD163788D
:103C4C002A2B32D1039B02341A1D1B68039243EAC0
:103C5C00E3730593DFF8B4A003225046217800F0FB
:103C6C0019FA38B14022049BA0EB0A00824013439E
:103C7C000134049314F8011B062225488DF82810F2
:103C8C0000F008FA002836D0224B1BBB039B0733ED
:103C9C0023F0070308330393099B334409936AE722
:103CAC000C4601200CFB0232A8E700234FF00A0C53
:103CBC00194601340593204610F8012B303A092A95
:103CCC0003D9002BC6D00591C4E7044601230CFB95
:103CDC000121F0E703AB00932A4638460E4B04A9AA
:103CEC00AFF30080421C0646D6D1AB895B063FF58C
:103CFC002DAF09982CE703AB00932A463846064BA8
:103D0C0004A900F07DF8EDE7A2460008A8460008DB
:103D1C00AC46000800000000793A00082DE9F04795
:103D2C00164698468A680B6907469342B8BF1346F5
:103D3C00336091F843200C46DDF820900AB1013332
:103D4C0033602368990642BF3368023333602568B9
:103D5C0015F0060506D104F1190AE36832689B1ABE
:103D6C00AB422BDC94F843302268003B18BF012394
:103D7C00920630D44146384604F14302C84701301C
:103D8C0023D02368226903F00603042B14BF0025FB
:103D9C0033684FF0000608BFE56804F11A0408BF49
:103DAC00ED1A54F8123C08BF25EAE5759342C4BFDE
:103DBC009B1AED18B5421AD1002008E00123524697
:103DCC0041463846C847013003D14FF0FF30BDE8BB
:103DDC00F0870135C1E73020E11881F843005A1C07
:103DEC0094F845102244023382F84310C2E70123B1
:103DFC00224641463846C8470130E6D00136D9E75D
:103E0C002DE9FF470F7E9146782F80460C469A4647
:103E1C000C9E01F1430207D8622F0AD8002F00F044
:103E2C00D380582F00F0BA8004F1420684F8427017
:103E3C003AE0A7F16303152BF6D801A151F823F052
:103E4C00A53E0008B93E0008353E0008353E000886
:103E5C00353E0008353E0008B93E0008353E0008E6
:103E6C00353E0008353E0008353E0008BB3F0008D3
:103E7C00E33E0008753F0008353E0008353E00085B
:103E8C00DD3F0008353E0008E33E0008353E0008E3
:103E9C00353E00087D3F000833681A1D1B683260F0
:103EAC0004F1420684F8423001239EE03368206816
:103EBC00191D3160060601D51D6803E04506FBD5CA
:103ECC00B3F90050002D03DA2D236D4284F84330F2
:103EDC000A23594811E021683368080653F8045B3B
:103EEC0002D4490648BFADB26F2F336014BF0A230A
:103EFC0008235148002184F843106668002EA8BF9F
:103F0C002168A660A4BF21F0040121600DB9002E28
:103F1C004BD01646B5FBF3F103FB1157C75D06F802
:103F2C00017D2F46BB420D46F4D9082B0BD12368DB
:103F3C00DF0708D5236961689942DEBF302306F894
:103F4C00013C06F1FF36921B22614B46214640464E
:103F5C00CDF800A003AAFFF7E1FE01304AD14FF0E3
:103F6C00FF3004B0BDE8F087236843F020032360E2
:103F7C007827324884F84570236831681F0651F859
:103F8C00045B02D45F0648BFADB23160D90744BFB1
:103F9C0043F0200323601DB11023ABE72648E9E76B
:103FAC00236823F020032360F6E71646BDE7336849
:103FBC002568181D616930602E061B6801D51960D3
:103FCC0002E06806FBD51980002316462361BCE786
:103FDC00336800211A1D32601E686268304600F09A
:103FEC0059F808B1801B606063682361002384F872
:103FFC004330AAE73246494640462369D047013050
:10400C00ADD023689B0713D4E068039B9842B8BFDC
:10401C001846A6E70123324649464046D0470130B0
:10402C009DD00135E36803995B1AAB42F2DCEBE7F8
:10403C00002504F11906F5E7B3460008C44600084C
:10404C00884210B501EB020402D98442234607D8FA
:10405C00431EA14208D011F8012B03F8012FF8E7F9
:10406C00014602448A4200D110BD13F8014D02F8FA
:10407C00014DF7E738B50023054D044608462B6083
:10408C00FDF74AF8431C02D12B6803B1236038BDFD
:10409C0030060020034610B5C9B2024493421846BC
:1040AC0001D1002003E0047801338C42F6D110BD1D
:1040BC000A44914200F1FF3300D1704710B511F85A
:1040CC00014B914203F8014FF9D110BD2DE9F0419C
:1040DC00804615460C4621B91146BDE8F041FFF764
:1040EC0039BC2AB9FFF7CCFB00242046BDE8F0818F
:1040FC0000F01AF88542064602D8B5EB500FF4D8FA
:10410C0029464046FFF726FC07460028ECD0B5426E
:10411C002A46214628BF3246FFF7CAFF21464046B1
:10412C00FFF7AEFB3C46E0E751F8043C181F002BB0
:10413C00BCBF0B58C0187047F8B500BFF8BC08BC22
:10414C009E467047F8B500BFF8BC08BC9E46704749
:10415C002530325800000000000000000000000074
:10416C00007E000080E70000E0C10300F0C1070002
:10417C00F0810700F8810F00F8811F00FC811F00FF
:10418C00FC811F00FC811F00FC813F00FC813F0073
:10419C00FC813F00FE813F00FE813F00FE813F001D
:1041AC00FC813F00FC813F00FC813F00FC811F0033
:1041BC00FC811F00FC811F00F8810F00F8810F00AB
:1041CC00F0810F00F0C10700C0C1030080E30100C3
:1041DC00007F000000000000000000000000000054
:1041EC0000030000000F0000007F000000FF010032
:1041FC0000FF070000FF1F00007F0000007F000091
:10420C00007F0000007F0000007F0000007F0000A6
:10421C00007F0000007F0000007F0000007F000096
:10422C00007F0000007F0000007F0000007F000086
:10423C00007F0000007F0000007F0000007F000076
:10424C00007F0000007F0000007F000080FF000066
:10425C00F0FF0F0000000000000000000000000054
:10426C00003E000080FF0000E0FF0300F0FF0700AD
:10427C00F0FF0F00F81F0E00F8071800F8031000ED
:10428C00F8030000F8030000F0030000F003000046
:10429C00F0030000E0030000C007000080070000EE
:1042AC00800F0000000F0000001C0000003C00000C
:1042BC00007800000070000004C000001C800100A9
:1042CC00FCFF0300FCFF0700F8FF0F00F8FF1F00C6
:1042DC00F8FF3F000000000000000000001E00007E
:1042EC00C0FF0000E0FF0100F01F0700F8070C0002
:1042FC00F8031800F8030000F0030000F0030000BE
:10430C00E0030000C0030000C0070000E00F000045
:10431C00F07F0000F87F0000FC0F0000FC030000A1
:10432C00FC010000FC000000FC0000007C00000010
:10433C007C0000007C00000078001C0070003F0036
:10434C00F0803F00E0E33F0080FF1F0000FF0F0004
:10435C0000F00300000000000000000070000000EE
:10436C00F0000000F0010000F0030000F007000076
:10437C00F0070000F00F0000F01F0000F037000005
:10438C00F0770000F0670000F0C70000F087010034
:10439C00F0070300F0070700F0070C00F0070C0013
:1043AC00F0071800F0073000FEFF3F00FEFF3F0053
:1043BC00FEFF3F00FEFF3F00F0070000F00700008B
:1043CC00F0070000F0070000F0070000F007000005
:1043DC0000000000000000000000000000000000D1
:1043EC00FCFF0000FCFF0100F8FF0300F8FF0300D6
:1043FC00F0FF0300F0FF07000000060000000600BD
:10440C0000000F0000F80F0080FF1F00C0FF1F000E
:10441C00E0FF1F00F0FF3F00F8FF0100F81F000055
:10442C00FC070000FC010000FC0000007C00000008
:10443C003C0000003C000000380000003800080080
:10444C0030003E0070803F00C0E03F0080FF1F0046
:10445C0000FE0F0000000000000000000000000043
:10446C0004000000F0010000800F0000003E00007E
:10447C00007C000000F8000000F0030000E00300E6
:10448C0000E0070000C00F0000C01F0000861F00E6
:10449C00C0FF1F00E0EF3F00F8833F00F8813F00B2
:1044AC00FC813F00FC813F00FC813F00FC803F0011
:1044BC00FC803F00FC803F00FC803F00FC801F0024
:1044CC00F8801F00F8C00F00F0C10700E0E1030006
:1044DC0080FF0100003E0000000000000000000012
:1044EC00FEFF0700FEFF0F00FEFF0F00FCFF0F009A
:1044FC00FCFF0F00FCFF1F003800180078001000B4
:10450C007000200070000000F0000000E0000000CF
:10451C00E0010000E0010000C0010000C003000049
:10452C0080030000800300008007000000070000EB
:10453C00000F0000000F0000000E0000001E000025
:10454C00001C0000001C0000003C000000380000B3
:10455C0000780000000000000000000000000000D7
:10456C0080FF0000E0E30300F0800F00F8800F00F4
:10457C00FC801F00FC801F007C803F00FCC03F00C3
:10458C00FCC01F00F8E01F00F0F91F00E0FF0F0057
:10459C0080FF0700C0FF0300E0FF0000F0FF0100F8
:1045AC00F8DF0700FC8F0F00FC031F00FC013F002D
:1045BC00FC013F00FE003F00FC003F00FC003F0000
:1045CC00FC003F00F8001F00F0810F00E0E3070043
:1045DC0080FF01000000000000000000000000004F
:1045EC0000FE0000808F0300E0070F00E0031F00B7
:1045FC00F0031F00F8033F00F8013F00FC013F00EF
:10460C00FC017F00FC017F00FC017F00FC013F00EE
:10461C00FC813F00FC813F00FCC11F00F8C10F0072
:10462C00F8FF0700F8FB0300F0030000F0030000A4
:10463C00E0070000E0070000800F0000801F000072
:10464C00003E0000007C000000F0010000C00700EC
:10465C0000003C0000000000000000000000000012
:10466C00010203040607080900000000010203040C
:10467C0002030405060708090A0B0C0D0E0F101097
:10468C000102000002030405060708090A0B0C0DC1
:10469C000E0F10100102232D302B2000686C4C00E3
:1046AC006566674546470030313233343536373826
:1046BC003941424344454600303132333435363784
:0C46CC003839616263646566000000001C
:0446D80031010008A4
:0446DC000D010008C4
:1046E00018200000644100080024F40010000000BD
:1046F000010000001800002000000000F804002065
:1047000060050020C8050020000000000000000037
:104710000000000000000000000000000000000099
:104720000000000000000000000000000000000089
:104730000000000000000000000000000000000079
:044740000000000075
:040000050800119D41
:00000001FF
